:100000000C945B000C9478000C9478000C947800AD
:100010000C9478000C9478000C9478000C94780080
:100020000C9478000C9478000C9478000C94B40A2A
:100030000C9478000C9478000C94220A0C947800AC
:100040000C9478000C9478000C9478000C94780050
:100050000C9478000C9457090C9478000C94780058
:100060000C9478000C9478002D013D092A635F08F8
:100070002000307E3130326D33793433355B365F7A
:100080003770387F397B41774647621F553E751C74
:10009000535B49306910740F4837454F4C0E720559
:1000A0004F7E6F1D5067434E475E630D6E15643D76
:1000B0006817593B000011241FBECFEFD8E0DEBF08
:1000C000CDBF11E0A0E0B1E0ECEFFDE202C0059091
:1000D0000D92A637B107D9F724E0A6E7B1E001C039
:1000E0001D92AF31B207E1F70E949C0C0C94FC16F4
:1000F0000C9400002A9A2C9A8CE284B91CBC83E5EB
:100100008CBD1DBC1DBC0895CF93DF93CDB7DEB76A
:1001100028970FB6F894DEBF0FBECDBF1816C4F0F7
:10012000880F990B19821A82FE01E80FF91F62836A
:10013000FE01E80FF91F41832A988A818EBD0DB414
:1001400007FEFDCF89818EBD0DB407FEFDCF2A9A33
:1001500028960FB6F894DEBF0FBECDBFDF91CF91CA
:1001600008952F923F924F925F926F927F928F925B
:100170009F92AF92BF92CF92DF92EF92FF920F9336
:100180001F93CF93DF9300D000D000D0CDB7DEB760
:100190006B017C0197FF10C0CB0177FF04C088275B
:1001A00099278C199D09AA2797FDA095BA2F8983B5
:1001B0009A83AB83BC8304C069837A838B839C83DB
:1001C000842E912C540122242394822F90E09E832C
:1001D0008D839AE0492E512C612C712C10E08D8179
:1001E0009E818A159B050CF45CC069817A818B81A4
:1001F0009C81A30192010E94D513672B682B692B68
:10020000B9F489819A81AB81BC810A97A105B105B6
:100210007CF4A114B10461F0A016B106B4F0C114CD
:10022000D104E104F10471F4A814B90459F40DC027
:1002300069817A818B819C81A30192010E94D513EF
:10024000362E04C08FE0382E01C0312CF501E85B5A
:10025000FC4F308269817A818B819C81A30192015C
:100260000E94D51329833A834B835C839FEFA91A9D
:10027000B90AC501885B9C4FFC013197232DA0165C
:10028000B10611F4206801C02F77208389819A81FB
:10029000AB81BC81892B8A2B8B2B09F4A0CF2394B3
:1002A0009ECFF7FE09C0F401E85BFC4FE20DF11DA3
:1002B00027FCFA958AE08083822D26960FB6F89463
:1002C000DEBF0FBECDBFDF91CF911F910F91FF9089
:1002D000EF90DF90CF90BF90AF909F908F907F90E6
:1002E0006F905F904F903F902F9008951F93CF9302
:1002F000DF9381110BC0C8E4D3E011E04991612F75
:1003000080E00E9484001F5F1930C1F7DF91CF9118
:100310001F910895AF92BF92CF92DF92EF92FF921A
:100320000F931F93CF93DF93A62F69300CF08FC0EC
:10033000662309F48CC0FC0101900020E9F7319795
:10034000E81BF90BB62FBE1BE62FFF27E7FDF09544
:10035000C12CD12C7601C3942B2F30E02E173F07F0
:10036000A4F5A0900001B0900101D0910201C091CC
:1003700003012091040120910501209106012091A3
:100380000701970186010B2E04C0000F111F221FC9
:10039000331F0A94D2F70095109520953095A0222E
:1003A000B122D223C323A0920001B0920101D093C5
:1003B0000201C093030110920401109205011092F2
:1003C000060110920701BF5FC7CF2FEF2A0FEC0184
:1003D0002830E0F449914423C9F030E0A22FB0E086
:1003E000A85BBC4F832F90E0FC01E859FF4F54916C
:1003F000552351F0E4914E1305C0FC01E759FF4F1E
:1004000084918C933E5FEECF2150E2CF409100016A
:10041000809101018091020180910301809104018A
:1004200080910501809106018091070169E080E0DB
:100430000E94840080E0DF91CF911F910F91FF9087
:10044000EF90DF90CF90BF90AF900C947601DF914A
:10045000CF911F910F91FF90EF90DF90CF90BF90C1
:10046000AF900895811121C08FEF80930001809398
:100470000101809302018093030180930401809322
:10048000050180930601809307014FEF69E080E04A
:100490000E948400E8E4F3E08FE0819393E0E0358C
:1004A000F907D9F780E00C9476010895CF93C82F0F
:1004B000803108F0C5E00E947A0040E06FE080E003
:1004C0000E94840047E06BE080E00E9484004C2F93
:1004D0006AE080E00E94840080E00E94320241E0F5
:1004E0006CE080E0CF910C9484008F929F92AF9249
:1004F000BF92CF92DF92EF92FF920F931F93CF9311
:10050000DF936A017B01811167C0293008F064C064
:10051000022F27E040E0C701B6010E94B100E0E0F1
:10052000F0E090E0C12CD12C7601C394E817F907D4
:1005300084F5D0910001C0910101B0910201A09118
:1005400003018090040190900501A0900601B090F5
:100550000701970186010E2E04C0000F111F221FF4
:10056000331F0A94D2F7D02BC12BB22BA32BD093DD
:100570000001C0930101B0930201A0930301809296
:10058000040190920501A0920601B09207013196F4
:10059000CDCF4091000180910101809102018091B5
:1005A00003018091040180910501809106018091F1
:1005B000070169E080E00E94840080E0DF91CF9134
:1005C0001F910F91FF90EF90DF90CF90BF90AF9071
:1005D0009F908F900C947601DF91CF911F910F9196
:1005E000FF90EF90DF90CF90BF90AF909F908F9053
:1005F00008952F923F924F925F926F927F928F92C7
:100600009F92AF92BF92CF92DF92EF92FF920F93A1
:100610001F93CF93DF93CDB7DEB763970FB6F894F0
:10062000DEBF0FBECDBF442309F4A2C0293008F0BD
:100630009FC0093008F09CC0212C312CE42EF12CF5
:10064000D7011197B88BAF87F7013297FA87E987FF
:10065000422E512C5A8A498AEF84F888E20CF31C06
:100660003FEF231A330AE985FA85E20DF31DA989C4
:10067000BA89EA17FB070CF048C0509000015E866B
:10068000109101015091020130910301A0910401E8
:10069000B0910501609006016B8A709007017D861C
:1006A000812C912C5401839404C0880C991CAA1CA1
:1006B000BB1CEA94D2F77501640124013501812C39
:1006C000912C5401C9825A826B827C828D829E82D7
:1006D000AF82B8865E8454286A8016297B805729A9
:1006E0008C8038295092000110930101509302012F
:1006F00030930301A0930401B09305019B8890926D
:100700000601AD84A0920701A7CF215041500E945D
:10071000B10040910001809101018091020180911E
:10072000030180910401809105018091060180916F
:10073000070169E080E00E94840080E063960FB6C4
:10074000F894DEBF0FBECDBFDF91CF911F910F9107
:10075000FF90EF90DF90CF90BF90AF909F908F90E1
:100760007F906F905F904F903F902F900C94760108
:1007700063960FB6F894DEBF0FBECDBFDF91CF9169
:100780001F910F91FF90EF90DF90CF90BF90AF90AF
:100790009F908F907F906F905F904F903F902F90A1
:1007A0000895893070F4E82FF0E0E95BFC4F808118
:1007B00060FD05C08F77808380E00C9476018068AF
:1007C000FACF089581111CC0E8E4F3E080E090E0E6
:1007D00070E09B01082E02C0359527950A94E2F738
:1007E00020FD03C020812F7702C020812068208354
:1007F000019631968830910561F780E00C9476017E
:100800000895462F811105C0603118F46AE00C94F8
:100810008400089520917601223078F49091780137
:10082000E92FF0E0E758FE4F80832F5F2093760199
:1008300081E0890F8170809378010895EF92FF9293
:100840000F931F93CF93DF9300D0CDB7DEB72FEF79
:10085000260F30E0A90145585E4F7A01FA01408128
:10086000F901E158FE4F908190937E018901000FBC
:10087000111FD801AC57BE4F2D913C91309383018D
:10088000209382018823B1F0253F51E0350798F588
:100890002F5F3F4F30938301209382012A3131052E
:1008A00050F14160253F314031F541FD24C04B7F7F
:1008B000426021C040FF0AC041FD08C042FF03C0A2
:1008C0004B7F95E004C010927E01446090E042FFAF
:1008D00008C080917E01893C20F010927E014B7F00
:1008E00093E040FF02C041FD94E01092830110921A
:1008F00082014C7F01C090E042FF07C080917E01E1
:10090000893C18F48F5F80937E0180917E01808303
:10091000992351F0862F4A8399830E940A04998172
:10092000892F0E940A044A81F801EC57FE4F8091FA
:1009300082019091830191838083F70140830F901E
:100940000F90DF91CF911F910F91FF90EF9008953D
:1009500020917601222379F090917701E92FF0E040
:10096000E758FE4F80812150209376019F5F917060
:1009700090937701089580E0089510928501109278
:10098000840110927B0110927F01109287011092D6
:10099000860110927C0110928001109289011092C0
:1009A000880110927D0110928101109279011092BC
:1009B0007A01109278011092770110927601559881
:1009C0005D9A54985C9A57985F9A0895CF9389B12D
:1009D000C1E085FB882780F961E08C270E941E0416
:1009E00089B18295817062E08C270E941E0489B1D2
:1009F000809563E0881F8827881FCF910C941E0480
:100A0000CF93DF93EC010E946F12882371F020973F
:100A100021F0CE010E94741303C08CEC0E94E712F7
:100A200084E40E94E71281E001C080E0DF91CF9171
:100A30000895FC01680F791F80E048E1E617F70789
:100A400081F0219198E0322F3827532F517030FDDB
:100A500084278695513009F480682695915099F73E
:100A6000EDCF0895FF920F931F93CF93DF93EC0187
:100A7000162F042FF22E0E946F12882369F12097FF
:100A800019F0CE010E94741380E2F89E90011124A7
:100A9000922F9F61F92E8EE40E94E712802F0E9410
:100AA000E712812F0E94E7128F2D0E94E7122097F4
:100AB00019F0CE010E94741388E40E94E7128FE2BD
:100AC00095E70197F1F700C00000DF91CF911F91EA
:100AD0000F91FF900C946F1280E0DF91CF911F91E6
:100AE0000F91FF900895CF93DF93EC010E946F1256
:100AF0008823F1F0209721F0CE010E94741303C0E7
:100B00008CEC0E94E7128EEB0E94E712C0E5D3E066
:100B10008FEF0E94E712899383E0C935D807C1F7A8
:100B200069E070E080E593E00E94190591E0811191
:100B300090E0892FDF91CF910895E0915403E295E1
:100B4000E695E370F0E0EE0FFF1FE85FFE4F608177
:100B500071818091500390915103682379238827F4
:100B600077FD8095982F0E94A11520E030E040E8A5
:100B70005DE30E945116089521982098299A289A99
:100B8000089523B1269521701899226080918A01D9
:100B9000982F9370291781F034E0839FC0011124AE
:100BA000822B80938A01813E11F48FEF03C0823D36
:100BB00019F481E080938B01089580918B0110924C
:100BC0008B0108954F925F926F927F92AF92BF9286
:100BD000CF92DF92EF92FF920F931F93CF93DF9309
:100BE000CDB7DEB729013A01621B730B840B950B5D
:100BF00029893A894B895C892A193B094C095D0985
:100C0000298B3A8B4B8B5C8B9B01AC0169897A8970
:100C10008B899C890E948F13E418F508060917092F
:100C2000A80197010E94D5132A0D3B1D4C1D5D1D87
:100C3000CA01B901DF91CF911F910F91FF90EF9001
:100C4000DF90CF90BF90AF907F906F905F904F906C
:100C500008954F925F926F927F92AF92BF92CF9220
:100C6000DF92EF92FF920F931F93CF93DF93CDB755
:100C7000DEB728970FB6F894DEBF0FBECDBF2901AF
:100C80003A01ED82FE820F8318870E949D146983CA
:100C90007A838B839C83A6019501698D7A8D8B8DD8
:100CA0009C8D0E949D149B01AC0169817A818B818E
:100CB0009C810E94511669837A838B839C83A30154
:100CC0009201C801B7010E949D149B01AC0169818A
:100CD0007A818B819C810E940615A60195010E9454
:100CE0009E1428960FB6F894DEBF0FBECDBFDF91DD
:100CF000CF911F910F91FF90EF90DF90CF90BF9019
:100D0000AF907F906F905F904F90089520E732E111
:100D100043E85BE30E94511620E030E040EA51E4F2
:100D20000E94061527E836E149E55DE30E949E141E
:100D300008952F923F924F925F926F927F928F927F
:100D40009F92AF92BF92CF92DF92EF92FF920F935A
:100D50001F93CF93DF93DC01C091A501D091A60131
:100D6000FE01EE0FFF1FE155FE4F208031809D01F7
:100D700040E050E060E070E080E090E05101C12C84
:100D8000D12CE12CF12C00E010E00E949414A090F2
:100D9000A701B090A801C090A901D090AA01E0904D
:100DA000AB01F090AC010091AD011091AE010E9439
:100DB0008B142093A7013093A8014093A90150936D
:100DC000AA016093AB017093AC018093AD01909345
:100DD000AE012196D093A601C093A501B183A08353
:100DE000C038D10521F41092A6011092A50107E0A8
:100DF0000E946F14C901DF91CF911F910F91FF9055
:100E0000EF90DF90CF90BF90AF909F908F907F90AA
:100E10006F905F904F903F902F9008950F931F9386
:100E2000CF93DF93CDB7DEB72A970FB6F894DEBF26
:100E30000FBECDBFF8948FEF898720E08E01075F4A
:100E40001F4F89858823D1F0211117C0BE016F5F24
:100E50007F4FC8012A870E944E1389858E5F2A859D
:100E6000823060F0FE013196A0E1B4E081918D9373
:100E7000E017F107D9F721E0E4CF21E07894822F41
:100E80002A960FB6F894DEBF0FBECDBFDF91CF918B
:100E90001F910F910895F8946091B10280E090E065
:100EA0000E94EE1646EB50E062E070E08AE593E0C7
:100EB0000E94CC16789408950E94A8048093590348
:100EC000882321F00E94A80480931C0408950F93A6
:100ED0001F939BE5899FF001112489E0689FE00D35
:100EE000F11D1124E65AFC4F828193818C0120E090
:100EF00030E0648175816115710561F046810E9461
:100F00009F13469FC001479F900D1124080F191F82
:100F1000211D311DC901B8011F910F9108959BE555
:100F2000899FF0011124E65AFC4FB081AF0120E007
:100F300030E0A0E060E070E0CB01AB1771F0FA01A7
:100F4000E20FF31F0780F085E02D6E0F7F1F811DDC
:100F5000911DAF5F275F3F4FF0CF0895AF92BF92D3
:100F6000CF92DF92EF92FF920F931F93CF93DF9375
:100F7000EAE5F3E0119284E0E031F807D9F785E083
:100F800080935A0392E0C92EC0925B030CE211E0F9
:100F900010935D0300935C03CEE1D0E0D0935F0338
:100FA000C0935E03C092600360E080E00E94670728
:100FB00070936203609361032BE4F22EF09263035B
:100FC000DD24D394D09264031093660300936503E9
:100FD00010926803109267031092690361E080E049
:100FE0000E94670770936B0360936A0310926C030F
:100FF000C0926D0338E5A32E32E0B32EB0926F039A
:10100000A0926E03D0937103C0937003C0927203D9
:1010100062E080E00E94670770937403609373033B
:10102000F0927503D0927603B0927803A092770382
:1010300010927A031092790310927B0363E080E0B0
:101040000E94670770937D0360937C0310927E0378
:10105000C0927F031093810300938003D093830396
:10106000C0938203C092840364E080E00E9467071B
:101070007093860360938503F092870384E08093E6
:10108000B503C092B60344E1E42EF12CF092B8030C
:10109000E092B70305E010E01093BA030093B903A0
:1010A000C092BB0360E081E00E9467077093BD03BC
:1010B0006093BC0384E18093BE03D092BF03CAE077
:1010C000D0E0D093C103C093C0031092C303109229
:1010D000C2031092C40361E081E00E94670770932D
:1010E000C6036093C5031092C703C092C803F09271
:1010F000CA03E092C9031093CC030093CB03C092C0
:10110000CD0362E081E00E9467077093CF03609394
:10111000CE0380E58093D003D092D103D093D30344
:10112000C093D2031092D5031092D4031092D60329
:1011300063E081E00E9467077093D8036093D70350
:101140001092D903DF91CF911F910F91FF90EF90F3
:10115000DF90CF90BF90AF9008958FEF8093B10252
:10116000EAE5F3E0819394E0E031F907D9F70895D7
:10117000813051F4409A611102C0429A07C0613037
:1011800031F44298439A08954098429843980895BC
:1011900020911D0427FD09C09093B5028093B402ED
:1011A00070E070931B0460931A04089510928100FC
:1011B000089584E0809381000895809117019091B3
:1011C0001801892B21F48091BC0281111BC010925F
:1011D0008500109284001092800084E0809381004A
:1011E0001092820081E19AE79093890080938800B1
:1011F00080911D04877F80931D0461E088EC90E05E
:101200000C94C80808951F93CF93DF931092850024
:10121000109284001092800010928100109282003F
:1012200060E080E00E94B8081092B702CDE1D4E0FF
:1012300018811E7F18838091B6020E948F076093E9
:10124000B8027093B9028093BA029093BB02177FE1
:101250001883DF91CF911F91089580E480937C00E3
:101260008FEC80937A00089514BC84E085BD16BC91
:1012700081E387BD0895853670F4282F30E0AFEF05
:10128000B0E00E94F41324E630E040E050E00E9419
:10129000D5132093B400089581E28093B00081E0DB
:1012A0008093B1001092B3001092B40008951F9281
:1012B0000F920FB60F9211248F929F92AF92BF920E
:1012C000CF92DF92EF92FF920F931F932F933F9352
:1012D0004F935F936F937F938F939F93AF93BF933E
:1012E000CF93DF93EF93FF939090A40191100CC0E4
:1012F00080917800909179000E9499069093B002B5
:101300008093AF0284E070C081E098126AC0809040
:10131000A30189E0881568F18091780090917900A7
:101320009C0140E050E060E070E080E090E0A09040
:101330009B01B0909C01C0909D01D0909E01E090D7
:101340009F01F090A0010091A1011091A2010E94C3
:101350008B1420939B0130939C0140939D015093EB
:101360009E0160939F017093A0018093A1019093CF
:10137000A20181E0880D8093A3018A30A1F520911C
:101380009B0130919C0140919D0150919E01609183
:101390009F017091A001EAE0AE2EB12CC12CD12C9E
:1013A000E12CF12C00E010E08091A1019091A201CC
:1013B0000E94101420931804309319041092A30172
:1013C00010929B0110929C0110929D0110929E011F
:1013D00010929F011092A0011092A1011092A201FF
:1013E00002C080E001C081E091E0990D923019F0D7
:1013F0009093A40102C01092A401806480937C00A9
:1014000080917A00806480937A00FF91EF91DF9160
:10141000CF91BF91AF919F918F917F916F915F918C
:101420004F913F912F911F910F91FF90EF90DF907F
:10143000CF90BF90AF909F908F900F900FBE0F9066
:101440001F9018951F920F920FB60F9211242F9391
:101450003F934F935F936F937F938F939F93AF933C
:10146000BF93EF93FF9316BC0E94E6040E94C10550
:101470008091990190919A010196813722E092071B
:1014800029F090939A018093990109C010929A01D2
:101490001092990180911E04816080931E048091B6
:1014A000B2029091B302181619066CF4019790934A
:1014B000B3028093B2028032934029F480911D04DC
:1014C000806280931D0480911A0490911B04892BE3
:1014D000D1F1809197019091980101969093980194
:1014E000809397012091B4023091B502821793073F
:1014F00040F48091950190919601892B11F45A9AAC
:1015000022C05A98809195019091960101969093EE
:101510009601809395012091B4023091B502821713
:10152000930788F0109296011092950110929801FD
:101530001092970180911A0490911B040197909347
:101540001B0480931A04FF91EF91BF91AF919F917B
:101550008F917F916F915F914F913F912F910F905C
:101560000FBE0F901F9018951F920F920FB60F92FB
:1015700011240F931F932F933F934F935F936F9378
:101580007F938F939F93AF93BF93CF93DF93EF930B
:10159000FF93109285001092840080911D0482FFB9
:1015A00017C08B7F80931D041092940110929301B9
:1015B00010929201109291011092900110928F015D
:1015C00082E090E0909311018093100110928E01BF
:1015D0008091BC02813009F076C080911701909112
:1015E0001801009709F455C0019790931801809352
:1015F00017018091100190911101029701F58091DE
:1016000012010E943B0960918F0181E00E94B8089D
:101610008091910190919201019690939201809313
:10162000910120911501309116018217930789F5D8
:10163000109292011092910181E090E026C01092E8
:10164000B400C0918F01D09190016C2F80E00E9476
:10165000B8088091150190911601892B81F081E0E5
:1016600090E0CD2B11F080E090E09093900180937A
:101670008F0161E08EE190E00E94C80804C01092E2
:10168000900110928F0182E090E09093110180937D
:1016900010018091170190911801892BA1F41092EB
:1016A0009401109293011092920110929101109264
:1016B000900110928F0182E090E09093110180934D
:1016C00010010E9403098091BC02811120C19091F8
:1016D0001D0493FB882780F921E0822780FB93F982
:1016E00090931D0420918E013091B6020BE53003DA
:1016F000C0011124DC01A65ABC4F3C91231708F00D
:10170000DEC030E019E0129FE001139FD00D1124DC
:10171000DE01A80FB91FA65ABC4F11964C9142305A
:1017200009F07CC0409110015091110142305105E7
:1017300091F52F5F3F4F129FD001139FB00D1124E1
:10174000A80FB91FA65ABC4F8C910E943B0960910B
:101750008F0181E00E94B8088091910190919201DF
:10176000019690939201809391012091B6022003FB
:10177000F0011124EC0FFD1FE65AFC4F2481358146
:101780008217930709F05CC01092920110929101A8
:1017900081E090E03EC01092B40060E080E00E94E2
:1017A000B8088091930190919401019690939401CF
:1017B000809393013091B60220918E013003F001A5
:1017C0001124129FE00DF11D1124E65AFC4F2681D1
:1017D00030E082179307A1F51092940110929301C3
:1017E00084819581892B79F081E090E020918F01AF
:1017F00030919001232B11F080E090E090939001C4
:1018000080938F0104C01092900110928F0182E0AA
:1018100090E0909311018093100112C02F5F3F4F11
:10182000129FF001139FF00D1124E80FF91FE65AE3
:10183000FC4F80810E943B0960E080E00E94B80874
:1018400080918C0190918D01019690938D018093F0
:101850008C0140918E01E091B6022BE5E202F0018D
:10186000112429E0429FE00DF11D1124E65AFC4F9E
:10187000278130858217930779F410928D01109299
:101880008C0181E0840F80938E018093B70261E028
:101890008EE190E00E94C8088091B8029091B90250
:1018A000A091BA02B091BB020197A109B10980933E
:1018B000B8029093B902A093BA02B093BB02E09130
:1018C000B6028BE5E802F0011124E65AFC4F909134
:1018D0008E01808198131BC0109294011092930185
:1018E00010929201109291011092900110928F012A
:1018F00082E090E0909311018093100110928E018C
:101900000E94030980911D04806180931D04FF9152
:10191000EF91DF91CF91BF91AF919F918F917F9187
:101920006F915F914F913F912F911F910F910F9068
:101930000FBE0F901F901895CF93DF93CDB7DEB7F2
:1019400029970FB6F894DEBF0FBECDBF569A5D9AA9
:1019500087E00E9456024D9917C068E08FE191E040
:101960000E948A014D9BFECF2FEF39E658E12150AE
:1019700030405040E1F700C0000080E00E94320299
:101980000E94AD080E944B0780E090E00E94C416C0
:101990008093B10246EB50E062E070E08AE593E0AC
:1019A0000E94B4168091B1028F3FC1F468E088E2D2
:1019B00091E00E948A016FEF79E688E16150704002
:1019C0008040E1F700C0000080E00E9432028BE01E
:1019D0008093B1020E94AE070E944B0768E081E34A
:1019E00091E00E948A016091B10270E080E090E095
:1019F00005E025E044E00E94F9020E946F120E9477
:101A00000E07182F9FEFE4E3FCE09150E040F04018
:101A1000E1F700C0000080E00E943202112309F4C7
:101A20004AC068E08AE391E00E948A01612F70E079
:101A300080E090E000E021E041E00E94F9022FEF19
:101A400039E658E1215030405040E1F700C0000035
:101A500068E083E491E00E948A016FEF79E688E113
:101A6000615070408040E1F700C0000068E08CE405
:101A700091E00E948A0123E049E169E180E194E07C
:101A80000E94320580E194E00E9400059FEFE9E6A4
:101A9000F8E19150E040F040E1F700C0000080E143
:101AA00094E00E9473050E949D054B015C0180E05B
:101AB0000E94320206C0812C912CA0EAAA2EA1E439
:101AC000BA2E0E94BD040E94BC053A9A3B9A389AED
:101AD000539A529A3D9A0E9434090E944C090E94DE
:101AE0002D0982E080936E0080936F008093BC028A
:101AF00080911D048E7F8F7E80931D0478941092B8
:101B0000B40060E080E00E94B80880911D04806805
:101B100080931D0461E08CE291E00E94C8088091EE
:101B2000B6020E948F076093B8027093B902809347
:101B3000BA029093BB0220911D0460317E40810562
:101B4000910548F4277F20931D041986F8EE2F2E67
:101B5000F3E03F2E4AC0822F886080931D04F5CFAA
:101B60008F7E80931D0468E085E591E00E948A01E4
:101B700063E088EC90E00E94C8085FEF69E678E1D6
:101B8000515060407040E1F700C0000080911D049A
:101B900086FF05C08F7B80931D040E944B0780E069
:101BA0000E9432028091B6020E948F076093B802B1
:101BB0007093B9028093BA029093BB0220911D04E6
:101BC00060317E4081059105D0F4277F20931D046C
:101BD000909159039130C1F08091BC02813009F499
:101BE00037C240F1823009F4DBC20E945C070E94D8
:101BF000DD05182F80911D0484FDB2CFE9CF822F1F
:101C0000886080931D04E4CF80911C04843021F708
:101C100080911D0480FDE0CF8091BC028F5F8330F6
:101C200019F08093BC0202C09093BC0280E00E9435
:101C30003202D2CF68E08EE591E00E948A01809165
:101C40001D0480FF02C007E001C000E06091B60201
:101C5000772767FD70956F5F7F4F882777FD8095A9
:101C6000982F27E047E00E94F90280911D0480FD33
:101C700006C066E081E491E00E948A010EC0609196
:101C8000B70270E06F5F7F4F882777FD8095982FB0
:101C900000E026E046E00E94F9028091B2029091B5
:101CA000B302892B09F061C06091B8027091B9024A
:101CB0008091BA029091BB026031FEE07F078105FE
:101CC000910500F52CE330E040E050E00E94B313B2
:101CD000CA01B90103E024E043E00E94F9026091E7
:101CE000B8027091B9028091BA029091BB022CE3C4
:101CF00030E040E050E00E94B31322E041E00E9457
:101D0000F9022DC020E13EE040E050E00E94B31314
:101D1000CA01B90103E024E043E00E94F9026091A6
:101D2000B8027091B9028091BA029091BB022CE383
:101D300030E040E050E00E94B313CA01B9016C5397
:101D400071098109910922E041E00E94F902609144
:101D50001D0463FB662760F981E00E94D103809136
:101D60001D048F7D80931D041DC08091B70290E0FB
:101D700001962091B60239E0389FF001399FF00DAD
:101D800011245BE52503C0011124E80FF91FE65A71
:101D9000FC4F608170E080E090E000E024E041E0F2
:101DA0000E94F902809159038130E9F480911C046A
:101DB0008530C9F480911D0480FD07C08D7F81604E
:101DC00080931D040E94DD080EC081FD06C0826064
:101DD00080931D041092810006C08D7F80931D04A6
:101DE00064E06093810080915903813009F04EC016
:101DF00080911C04843009F049C080911D0480FF4B
:101E000045C08D7F8E7F80931D040E9403098091C1
:101E10001D04846080931D0468E085E591E00E94C4
:101E20008A0163E088EC90E00E94C8087FEF89E6B1
:101E300098E1715080409040E1F700C0000080912F
:101E40001D0486FF05C08F7B80931D040E944B07F5
:101E500080E00E9432028091B6020E948F07609358
:101E6000B8027093B9028093BA029093BB0220919A
:101E70001D0460317E408105910520F4277F209369
:101E80001D0404C0822F886080931D0440911D04AE
:101E900040FD44C01130F1F48091B6028F5F823072
:101EA00019F08093B60202C01092B6028091B60279
:101EB0000E948F076093B8027093B9028093BA02B0
:101EC0009093BB0220911D0460317E4081059105F5
:101ED00010F51DC01F3F09F088CE8091B6028150D9
:101EE00087FD81E08093B6028091B6020E948F0741
:101EF0006093B8027093B9028093BA029093BB02C8
:101F000020911D0460317E408105910520F4277FDA
:101F100020931D046ACE822F88604DC0113009F0D5
:101F20004DC06091B6025091B702252F30E07BE59D
:101F30006703C0011124FC0169E0659FE00DF11DFC
:101F40001124E65AFC4F5181523009F04ECE2F5FDA
:101F50003F4F629FF001639FF00D1124E80FF91FBE
:101F6000E65AFC4F00813092B3022092B20204364E
:101F700038F445FF05C081E0800F80830E943B0953
:101F80008091B70290E001962091B60279E0789FA7
:101F9000F001799FF00D11243BE52303C0011124CA
:101FA000E80FF91FE65AFC4F8081081709F41DCE8F
:101FB00080911D04806480931D0417CE1F3F09F09B
:101FC00014CE6091B6025091B702252F30E07BE528
:101FD0006703C0011124FC0169E0659FE00DF11D5C
:101FE0001124E65AFC4F5181523009F0FECD2F5F8B
:101FF0003F4F629FF001639FF00D1124E80FF91F1E
:10200000E65AFC4FF0803092B3022092B202FF20D9
:1020100039F045FF05C08FEF8F0D80830E943B098B
:102020008091B70290E001962091B60279E0789F06
:10203000F001799FF00D11243BE52303C001112429
:10204000E80FF91FE65AFC4F8081F812B1CFCDCDD1
:1020500068E089E691E00E948A0160911201772789
:1020600067FD7095872F972F00E023E041E00E94E5
:10207000F90290911D04113031F4809112018436DF
:1020800074F48F5F07C01F3F51F48091120118163E
:1020900034F481508093120190FD0E943B0980919D
:1020A0001D0480FD28C067E04C990CC04F9B0AC0FE
:1020B00080E691E00E948A01809112010E943B0912
:1020C00060E00DC04F990DC04C9B0BC084E691E0C1
:1020D0000E948A01809112010E943B0961E081E027
:1020E00008C08FE391E00E948A011092B40061E081
:1020F00080E00E94B80880915903813001F58091F9
:102100001C048530E1F480911D0480FD18C060E25C
:102110007CE170931801609317018EE190E0909339
:1021200016018093150166E080E491E00E948A0127
:102130000E94DD0880911D04816080931D048091C0
:102140005903813009F051CD80911C04843009F08D
:102150004CCD80911D0480FF48CD8E7F80931D045F
:102160001092B4000E94030980911D048460809342
:102170001D0468E085E591E00E948A0163E088EC37
:1021800090E00E94C8089FEFE9E6F8E19150E04036
:10219000F040E1F700C0000080E00E94320225CD4F
:1021A0008091AF029091B002BC0180E090E00E946B
:1021B0009F1520E030E040EA5BE30E9451166B017E
:1021C0007C01609118047091190480E090E00E94F5
:1021D0009F1520E030E040EA5BE30E9451162B019E
:1021E0003C0180911E0480FF0FC08E7F80931E04EF
:1021F00080E194E00E9473050E949D054B015C0103
:1022000080E194E00E940005113031F429852F5FB0
:1022100029872430C4F407C01F3F29F43985315081
:10222000398737FDC2C05985513009F47CC01CF490
:10223000552351F0DACC6985623009F48CC06330E3
:1022400009F4B3C0D2CC198668E088E691E00E9418
:102250008A0120E732E143E85BE3C501B4010E9453
:10226000511620E030E040EA51E40E94061527E8CC
:1022700036E149E55DE30E949E1469837A838B838E
:102280009C839B01AC0160E070E080E89FE30E94CA
:1022900006152CEB34E743E95CE30E94511626E671
:1022A00036E646ED50E40E949E146D837E838F8354
:1022B0009887A3019201C701B6010E949D1429814C
:1022C0003A814B815C810E949D146B017C01F7FA7D
:1022D000F094F7F8F09429813A814B815C8160E0B9
:1022E00070E0CB010E949D149B01AC01C701B601B7
:1022F0000E94061520E030E040E85FE30E949E1453
:102300009B01AC016D817E818F8198850E949D1417
:1023100020E030E048EC52E40E9451160E946E1515
:1023200003E025E03EC068E08BE691E00E948A0170
:1023300061E08EE691E00E948A0120E030E040E218
:1023400051E4C501B4010E9451160E946E1503E0CC
:1023500025E042E027C068E080E791E00E948A0122
:10236000A3019201C701B6010E94021565E087FF33
:1023700003C088E391E002C081E491E00E948A01F9
:10238000A3019201C701B6010E949D149F7720E02E
:1023900030E04AE754E40E9451160E946E1504E0B2
:1023A00024E041E00E94F90220CC68E083E791E05C
:1023B0000E948A0120E030E04AE754E4C301B20100
:1023C0000E9451160E946E1504E025E041E00E9433
:1023D000F90273E0798709CC0F931F93CF93DF93B2
:1023E000009711F481E090E020911D0130911E01D1
:1023F0002C5F3F4FA901415C52404438510514F015
:1024000021EC32E030931E0120931D01E0911D016B
:10241000F0911E0193838283608171812091190163
:1024200030911A012E173F0721F470931A0160931F
:102430001901A0911901B0911A0141E250E029E17E
:1024400031E0E9010D911C9111970E171F0719F446
:1024500011967C936E9312960D911C911397081709
:10246000190740F48881998191838083F983E883F7
:1024700080E090E0E90128813981D2E0AD3BBD07E1
:1024800041F4F90182819381DF91CF911F910F91E6
:102490000895CD91DC911197088119810E171F07BE
:1024A00011F4798368830A811B810817190748F49E
:1024B0008D919C91119791838083ED93FC9380E0A3
:1024C00090E0A2E0CD3BDA07E1F2A881B98141506A
:1024D00051094115510509F0B5CFD3CF089588E1D1
:1024E0008093C10083E38093C4001092C500809163
:1024F000C0008D7F8093C0008091C00087FF03C023
:102500008091C600F9CFF89480EF8093C60080E4F4
:102510008093C00078948091C00087FFFCCF909199
:10252000C60081E0903F09F480E0089593E0909325
:10253000C4001092C5009091C00092609093C000BA
:102540009091C00097FF03C09091C600F9CF91E031
:10255000811101C090E09195F8949093C60080E4B9
:102560008093C00078948091C00086FFFCCF80915A
:10257000C00087FF03C08091C600F9CF089583E0B3
:102580008093C4001092C5008091C0008260809347
:10259000C0008091C00087FF03C08091C600F9CFC2
:1025A000F8948FEF8093C60080E48093C000789405
:1025B0008091C00086FFFCCF8091C00087FFFCCFD8
:1025C0009091C60081E09F3F09F080E0089593E07C
:1025D0009093C4001092C5009091C00092609093B7
:1025E000C00098E030E4282F21702195F8942093C2
:1025F000C6003093C00078942091C00027FFFCCF24
:1026000086952091C6002F3F09F48068915059F7B4
:102610000895DF92EF92FF920F931F93CF93DF9372
:10262000E82EEB010E946F12882369F180EF0E946F
:10263000E712F12C10E488EFD82ED10E0E94BF12C1
:10264000082F0E94BF12882319F0002361F01DC0DB
:10265000011109C01E1528F0888180FF04C0E11611
:1026600011F0F12E01E0802F0E949612988196952C
:1026700001119068988311501D11E0CF219611111E
:10268000DACF8F2D03C08FEF01C08EEFDF91CF9196
:102690001F910F91FF90EF90DF900895CF93DF93FC
:1026A000EC0188810E9409138883DF91CF910895FE
:1026B0000F931F93CF93DF93182F092F0E946F1250
:1026C000882369F083E30E94E712C12FD02F18E01E
:1026D0008FEF0E94E71289931150D1F781E0DF91CB
:1026E000CF911F910F9108950F931F93CF93DF9375
:1026F000182F092F0E946F12882361F085E50E9430
:10270000E712C12FD02F18E089910E94E7121150D3
:10271000D9F781E0DF91CF911F910F910895DB01EF
:102720008F939F930E940314BF91AF91A29F800D3E
:10273000911DA39F900DB29F900D11240895AA1B87
:10274000BB1B51E107C0AA1FBB1FA617B70710F09C
:10275000A61BB70B881F991F5A95A9F780959095CE
:10276000BC01CD010895A1E21A2EAA1BBB1BFD01DD
:102770000DC0AA1FBB1FEE1FFF1FA217B307E40760
:10278000F50720F0A21BB30BE40BF50B661F771FB8
:10279000881F991F1A9469F7609570958095909598
:1027A0009B01AC01BD01CF010895052E97FB1EF4DE
:1027B00000940E94EC1357FD07D00E94B31307FC4E
:1027C00003D04EF40C94EC13509540953095219520
:1027D0003F4F4F4F5F4F089590958095709561954D
:1027E0007F4F8F4F9F4F0895A29FB001B39FC001AD
:1027F000A39F700D811D1124911DB29F700D811D2D
:102800001124911D08950E94F413A59F900DB49F6B
:10281000900DA49F800D911D11240895689401C00E
:10282000E8948F929F92CF93DF930E941C14DF91C4
:10283000CF919F908F90089588249924F401E4010A
:10284000B0E49F93AA279A158B049C04ED05FE051E
:10285000CF05D007A10798F4AD2FDC2FCF2FFE2F87
:10286000E92D982C892E982F872F762F652F542F9E
:10287000432F322F2227B85031F7BF9127C01B2E8C
:10288000BF91BB27220F331F441F551F661F771FA1
:10289000881F991F881C991CEE1FFF1FCC1FDD1F6E
:1028A000AA1FBB1F8A149B04EC05FD05CE05DF059E
:1028B000A007B10748F08A189B08EC09FD09CE096A
:1028C000DF09A00BB10B21601A94E1F62EF49401FC
:1028D000AF01BE01CD01000C089597FB10F81694CE
:1028E00000080F93083098F00850232F342F452FFD
:1028F000562F672F782F892F902DF4CF0594979519
:1029000087957795679557954795379527950A95B4
:10291000AAF70F9108952A0D3B1D4C1D5D1D6E1DDC
:102920007F1D801F911F08952A193B094C095D09DD
:102930006E097F09800B910B08955058BB27AA2779
:102940000ED075C166D130F06BD120F031F49F3FCD
:1029500011F41EF45BC10EF4E095E7FB51C1E92FC1
:1029600077D180F3BA17620773078407950718F0C9
:1029700071F49EF58FC10EF4E0950B2EBA2FA02DA9
:102980000B01B90190010C01CA01A0011124FF271C
:10299000591B99F0593F50F4503E68F11A16F04017
:1029A000A22F232F342F4427585FF3CF4695379516
:1029B0002795A795F0405395C9F77EF41F16BA0BDB
:1029C000620B730B840BBAF09150A1F0FF0FBB1F89
:1029D000661F771F881FC2F70EC0BA0F621F731FD2
:1029E000841F48F4879577956795B795F7959E3F2F
:1029F00008F0B3CF9395880F08F09927EE0F9795BD
:102A000087950895D9D008F481E008950CD00FC1BE
:102A100007D140F0FED030F021F45F3F19F0F0C054
:102A2000511139C1F3C014D198F39923C9F3552337
:102A3000B1F3951B550BBB27AA27621773078407B1
:102A400038F09F5F5F4F220F331F441FAA1FA9F367
:102A500033D00E2E3AF0E0E830D091505040E69559
:102A6000001CCAF729D0FE2F27D0660F771F881FBA
:102A7000BB1F261737074807AB07B0E809F0BB0BA9
:102A8000802DBF01FF2793585F4F2AF09E3F5105CD
:102A900068F0B6C000C15F3FECF3983EDCF386956A
:102AA00077956795B795F7959F5FC9F7880F911D43
:102AB0009695879597F90895E1E0660F771F881F2F
:102AC000BB1F621773078407BA0720F0621B730BE2
:102AD000840BBA0BEE1F88F7E095089504D0689434
:102AE000B111D9C00895BCD088F09F5790F0B92F8C
:102AF0009927B751A0F0D1F0660F771F881F991F53
:102B00001AF0BA95C9F712C0B13081F0C3D0B1E064
:102B10000895C0C0672F782F8827B85F39F0B93F74
:102B2000CCF3869577956795B395D9F73EF4909554
:102B30008095709561957F4F8F4F9F4F0895E894D2
:102B400009C097FB3EF490958095709561957F4FF5
:102B50008F4F9F4F9923A9F0F92F96E9BB279395A3
:102B6000F695879577956795B795F111F8CFFAF4B3
:102B7000BB0F11F460FF1BC06F5F7F4F8F4F9F4FE4
:102B800016C0882311F096E911C0772321F09EE842
:102B9000872F762F05C0662371F096E8862F70E0A8
:102BA00060E02AF09A95660F771F881FDAF7880F82
:102BB0009695879597F90895990F0008550FAA0BD8
:102BC000E0E8FEEF16161706E807F907C0F0121640
:102BD0001306E407F50798F0621B730B840B950B43
:102BE00039F40A2661F0232B242B252B21F4089598
:102BF0000A2609F4A140A6958FEF811D811D089535
:102C000097F99F6780E870E060E008959FEF80EC9F
:102C1000089500240A941616170618060906089542
:102C200000240A9412161306140605060895092EA8
:102C30000394000C11F4882352F0BB0F40F4BF2B17
:102C400011F460FF04C06F5F7F4F8F4F9F4F089557
:102C500057FD9058440F551F59F05F3F71F047954D
:102C6000880F97FB991F61F09F3F79F08795089532
:102C7000121613061406551FF2CF4695F1DF08C051
:102C8000161617061806991FF1CF8695710561056E
:102C900008940895E894BB2766277727CB0197F916
:102CA00008950BD0C4CFB5DF28F0BADF18F0952314
:102CB00009F0A6CFABCF1124EECFCADFA0F3959FCA
:102CC000D1F3950F50E0551F629FF001729FBB2713
:102CD000F00DB11D639FAA27F00DB11DAA1F649FBF
:102CE0006627B00DA11D661F829F2227B00DA11D72
:102CF000621F739FB00DA11D621F839FA00D611DF8
:102D0000221F749F3327A00D611D231F849F600D18
:102D1000211D822F762F6A2F11249F5750408AF051
:102D2000E1F088234AF0EE0FFF1FBB1F661F771FDD
:102D3000881F91505040A9F79E3F510570F060CF19
:102D4000AACF5F3FECF3983EDCF3869577956795C5
:102D5000B795F795E7959F5FC1F7FE2B880F911DFB
:102D60009695879597F90895DC01CB01FC01F999B7
:102D7000FECF06C0F2BDE1BDF89A319600B40D92C7
:102D800041505040B8F70895F999FECF92BD81BDEA
:102D9000F89A992780B50895DC01A40FB51F41501A
:102DA000504048F0CB01840F951F2E910E94DD16F4
:102DB00041505040D0F70895262FF999FECF92BD8B
:102DC00081BDF89A019700B4021639F01FBA20BDF0
:102DD0000FB6F894FA9AF99A0FBE0895262FF9992A
:102DE000FECF1FBA92BD81BD20BD0FB6F894FA9AEE
:0C2DF000F99A0FBE01960895F894FFCFE9
:102DFC00FFFFFFFFFFFFFFFFF8FFFCFFFEFFFFFFE2
:102E0C0002003201001E00201CBD020000C1022D78
:102E1C002D496E69742D2D0050726F47496E69747F
:102E2C00002D2D202020202D2D0046696E642020A1
:102E3C00202000645320313862323000202053456A
:102E4C006E532020002D2D53746F502D2D005000EB
:102E5C002D462D002D722D005048007420002A00A4
:062E6C00554500556F0002
:00000001FF
