:100000000C945B000C9478000C9478000C947800AD
:100010000C9478000C9478000C9478000C94780080
:100020000C9478000C9478000C9478000C94A80739
:100030000C9478000C9478000C942D070C947800A4
:100040000C9478000C9478000C9478000C94780050
:100050000C9478000C9478000C9478000C94780040
:100060000C9478000C9478002D013D092A635F08F8
:100070002000307E3130326D33793433355B365F7A
:100080003770387F397B41774647621F553E751C74
:10009000535B49306910740F4837454F4C0E720559
:1000A0004F7E6F1D5067434E475F630D6E15643D75
:1000B0006817593B000011241FBECFEFD8E0DEBF08
:1000C000CDBF11E0A0E0B1E0EAE6FBE102C005909F
:1000D0000D92AA32B107D9F722E0AAE2B1E001C03D
:1000E0001D92AD31B207E1F70E949E090C94B30D49
:1000F0000C9400002A9A2C9A8CE284B91CBC83E5EB
:100100008CBD1DBC1DBC0895CF93DF93CDB7DEB76A
:1001100028970FB6F894DEBF0FBECDBF1816C4F0F7
:10012000880F990B19821A82FE01E80FF91F62836A
:10013000FE01E80FF91F41832A988A818EBD0DB414
:1001400007FEFDCF89818EBD0DB407FEFDCF2A9A33
:1001500028960FB6F894DEBF0FBECDBFDF91CF91CA
:1001600008952F923F924F925F926F927F928F925B
:100170009F92AF92BF92CF92DF92EF92FF920F9336
:100180001F93CF93DF93CDB7DEB727970FB6F894C1
:10019000DEBF0FBECDBF6B017C0197FF10C0CB014E
:1001A00077FF04C0882799278C199D09AA2797FDF6
:1001B000A095BA2F89839A83AB83BC8304C06983DB
:1001C0007A838B839C83842E912C540181E08D83D0
:1001D000822F90E09F838E838AE0482E512C612CE1
:1001E000712C202E312C8E819F818A159B050CF459
:1001F0005CC069817A818B819C81A30192010E94FC
:10020000480D672B682B692BB9F489819A81AB81E2
:10021000BC810A97A105B1057CF4A114B10461F079
:10022000A214B304ACF0C114D104E104F10471F4DC
:10023000A814B90459F40CC069817A818B819C811E
:10024000A30192010E94480D162F03C01FE001C0B8
:1002500010E0F501E65AFE4F108369817A818B81A7
:100260009C81A30192010E94480D29833A834B830C
:100270005C839FEFA91AB90AC501865A9E4FFC01FB
:100280003197A214B30411F4106801C01F771083D2
:1002900089819A81AB81BC81892B8A2B8B2B09F4B4
:1002A000A2CF8D818F5F8D839ECFF7FE0FC001118E
:1002B00007C084019D81090F111D97FD1A9501C08A
:1002C00010E0F801E65AFE4F8AE080838D81279680
:1002D0000FB6F894DEBF0FBECDBFDF91CF911F9157
:1002E0000F91FF90EF90DF90CF90BF90AF909F90D5
:1002F0008F907F906F905F904F903F902F900895D8
:100300001F93CF93DF9381110BC0CAE5D1E011E0B9
:100310004991612F80E00E9484001F5F1930C1F76E
:10032000DF91CF911F910895AF92BF92CF92DF924C
:10033000EF92FF920F931F93CF93DF93A62F693015
:100340000CF08FC0662309F48CC0FC0101900020E2
:10035000E9F73197E81BF90BB62FBE1BE62FFF27F5
:10036000E7FDF095C12CD12C7601C3942B2F30E002
:100370002E173F07A4F5A0900001B0900101D09185
:100380000201C091030120910401209105012091F7
:10039000060120910701970186010B2E04C0000F72
:1003A000111F221F331F0A94D2F700951095209534
:1003B0003095A022B122D223C323A0920001B09293
:1003C0000101D0930201C093030110920401109225
:1003D00005011092060110920701BF5FC7CF2FEFF2
:1003E0002A0FEC012830E0F449914423C9F030E0B1
:1003F000A22FB0E0A65ABE4F832F90E0FC01E8592F
:10040000FF4F5491552351F0E4914E1305C0FC0168
:10041000E759FF4F84918C933E5FEECF2150E2CF9E
:1004200040910001809101018091020180910301BE
:10043000809104018091050180910601809107015E
:1004400069E080E00E94840080E0DF91CF911F91FD
:100450000F91FF90EF90DF90CF90BF90AF900C94F2
:100460008001DF91CF911F910F91FF90EF90DF906E
:10047000CF90BF90AF900895811121C08FEF8093EE
:100480000001809301018093020180930301809316
:1004900004018093050180930601809307014FEFCB
:1004A00069E080E00E948400EAE5F1E08FE081935A
:1004B00091E0E236F907D9F780E00C9480010895C5
:1004C000CF93C82F803108F0C5E00E947A0040E049
:1004D0006FE080E00E94840047E06BE080E00E94D3
:1004E00084004C2F6AE080E00E94840080E00E943B
:1004F0003C0241E06CE080E0CF910C9484008F924C
:100500009F92AF92BF92CF92DF92EF92FF920F93A2
:100510001F93CF93DF936A017B01811167C029305C
:1005200008F064C0022F27E040E0C701B6010E9436
:10053000B100E0E0F0E090E0C12CD12C7601C39452
:10054000E817F90784F5D0910001C0910101B0913D
:100550000201A09103018090040190900501A090F8
:100560000601B0900701970186010E2E04C0000F0E
:10057000111F221F331F0A94D2F7D02BC12BB22B8D
:10058000A32BD0930001C0930101B0930201A0936B
:1005900003018092040190920501A0920601B0929D
:1005A00007013196CDCF40910001809101018091EA
:1005B00002018091030180910401809105018091E5
:1005C00006018091070169E080E00E94840080E0DC
:1005D000DF91CF911F910F91FF90EF90DF90CF901F
:1005E000BF90AF909F908F900C948001DF91CF913E
:1005F0001F910F91FF90EF90DF90CF90BF90AF9041
:100600009F908F9008952F923F924F925F926F929A
:100610007F928F929F92AF92BF92CF92DF92EF9292
:10062000FF920F931F93CF93DF93CDB7DEB76397FE
:100630000FB6F894DEBF0FBECDBF442309F4A2C0AD
:10064000293008F09FC0093008F09CC0212C312CC3
:10065000E42EF12CD7011197B88BAF87F7013297B1
:10066000FA87E987422E512C5A8A498AEF84F88802
:10067000E20CF31C3FEF231A330AE985FA85E20DF9
:10068000F31DA989BA89EA17FB070CF048C05090FE
:1006900000015E8610910101509102013091030129
:1006A000A0910401B0910501609006016B8A7090E1
:1006B00007017D86812C912C5401839404C0880C01
:1006C000991CAA1CBB1CEA94D2F775016401240191
:1006D0003501812C912C5401C9825A826B827C8213
:1006E0008D829E82AF82B8865E8454286A801629E5
:1006F0007B8057298C80382950920001109301018A
:100700005093020130930301A0930401B0930501BB
:100710009B8890920601AD84A0920701A7CF21503B
:1007200041500E94B10040910001809101018091EF
:100730000201809103018091040180910501809163
:1007400006018091070169E080E00E94840080E05A
:1007500063960FB6F894DEBF0FBECDBFDF91CF9189
:100760001F910F91FF90EF90DF90CF90BF90AF90CF
:100770009F908F907F906F905F904F903F902F90C1
:100780000C94800163960FB6F894DEBF0FBECDBF08
:10079000DF91CF911F910F91FF90EF90DF90CF905D
:1007A000BF90AF909F908F907F906F905F904F9091
:1007B0003F902F900895893070F4E82FF0E0E75AC9
:1007C000FE4F808160FD05C08F77808380E00C94B0
:1007D00080018068FACF089581111CC0EAE5F1E03C
:1007E00080E090E070E09B01082E02C035952795CF
:1007F0000A94E2F720FD03C020812F7702C02081F8
:1008000020682083019631968830910561F780E059
:100810000C9480010895462F811105C0603118F4B1
:100820006AE00C948400089520912A01223078F423
:1008300090912C01E92FF0E0E35DFE4F80832F5F64
:1008400020932A0181E0890F817080932C01089503
:1008500020912A01222379F090912B01E92FF0E0D9
:10086000E35DFE4F8081215020932A019F5F9170AC
:1008700090932B01089580E0089510923901109211
:10088000380110922F011092330110923B01109207
:100890003A01109230011092340110923D011092F1
:1008A0003C01109231011092350110922D011092ED
:1008B0002E0110922C0110922B0110922A015598B2
:1008C0005D9A0895CF93DF9329B1C0913001809153
:1008D00034018093320180913A0190913B019093D1
:1008E00037018093360125FD15C0893E23E092072C
:1008F00090F5019690933701809336018A319105E6
:1009000050F1C160893E934031F5C1FD24C0CB7FD9
:10091000C26021C0C0FF0AC0C1FD08C0C2FF03C041
:10092000CB7FD5E004C010923201C460D0E0C2FF9A
:1009300008C080913201893C20F010923201CB7FB7
:10094000D3E0C0FF02C0C1FDD4E010923701109285
:100950003601CC7F01C0D0E0C2FF07C080913201D8
:10096000893C18F48F5F809332018091320180932B
:100970003401DD2331F082E00E9414048D2F0E94A7
:100980001404809136019091370190933B0180933C
:100990003A01C0933001DF91CF91089521982098BA
:1009A000299A289A089523B12695217018992260D2
:1009B00080913E01982F9370291781F034E0839F36
:1009C000C0011124822B80933E01813E11F48FEFF0
:1009D00003C0823D19F481E080933F010895809126
:1009E0003F0110923F010895F89446EB50E062E019
:1009F00070E083E691E00E94910D789408950E9442
:100A0000280480936201882321F00E9428048093A7
:100A10001B0208950F931F939BE5899FF0011124FA
:100A200089E0689FE00DF11D1124ED59FE4F828190
:100A300093818C0120E030E064817581611571053E
:100A400061F046810E94120D469FC001479F900DA4
:100A50001124080F191F211D311DC901B8011F9153
:100A60000F9108959BE5899FF0011124ED59FE4FE8
:100A7000B081AF0120E030E0A0E060E070E0CB01A9
:100A8000AB1771F0FA01E20FF31F0780F085E02D3C
:100A90006E0F7F1F811D911DAF5F275F3F4FF0CF0E
:100AA0000895AF92BF92CF92DF92EF92FF920F9391
:100AB0001F93CF93DF93E3E6F1E0119282E0E931F7
:100AC000F807D9F785E08093630182E0C82EC092D1
:100AD00064010CE211E01093660100936501CEE120
:100AE000D0E0D0936801C0936701C092690160E0D3
:100AF00080E00E940A0570936B0160936A019BE499
:100B0000F92EF0926C01DD24D394D0926D011093F4
:100B10006F0100936E01109271011092700110929A
:100B2000720161E080E00E940A0570937401609395
:100B3000730110927501C092760128E5A22E22E081
:100B4000B22EB0927801A0927701D0937A01C0932F
:100B50007901C0927B0162E080E00E940A057093F7
:100B60007D0160937C01F0927E01D0927F01B09272
:100B70008101A09280011092830110928201109253
:100B8000840163E080E00E940A057093860160930F
:100B9000850110928701C092880110938A01009309
:100BA0008901D0938C01C0938B01C0928D0164E0C8
:100BB00080E00E940A0570938F0160938E01F0928D
:100BC000900184E08093BE01C092BF0134E1E32E26
:100BD000F12CF092C101E092C00105E010E0109309
:100BE000C3010093C201C092C40160E081E00E9491
:100BF0000A057093C6016093C50184E18093C70123
:100C0000D092C801CAE0D0E0D093CA01C093C90114
:100C10001092CC011092CB011092CD0161E081E0E5
:100C20000E940A057093CF016093CE011092D0010B
:100C3000C092D101F092D301E092D2011093D5017C
:100C40000093D401C092D60162E081E00E940A05BF
:100C50007093D8016093D70180E58093D901D09239
:100C6000DA01D093DC01C093DB011092DE01109217
:100C7000DD011092DF0163E081E00E940A057093BC
:100C8000E1016093E0011092E201DF91CF911F91A9
:100C90000F91FF90EF90DF90CF90BF90AF900895AD
:100CA0004F925F926F927F92AF92BF92CF92DF92FC
:100CB000EF92FF920F931F93CF93DF93CDB7DEB7E1
:100CC00029013A01621B730B840B950B29893A8920
:100CD0004B895C892A193B094C095D09298B3A8BA0
:100CE0004B8B5C8B9B01AC0169897A898B899C89D0
:100CF0000E94020DE418F50806091709A8019701DA
:100D00000E94480D2A0D3B1D4C1D5D1DCA01B901F5
:100D1000DF91CF911F910F91FF90EF90DF90CF90D7
:100D2000BF90AF907F906F905F904F90089581300B
:100D300051F4409A611102C0429A07C0613031F407
:100D40004298439A08954098429843980895909302
:100D5000500180934F0170E070931A026093190262
:100D6000089510928100089584E080938100089591
:100D70008091120190911301892B21F480910C0133
:100D8000813011F51092850010928400109280003D
:100D900084E0809381001092820081E19AE7909331
:100DA00089008093880080911C02877F80931C02B9
:100DB00088EC90E09093500180934F0181E090E0A7
:100DC00090931A02809319020895CF931092850090
:100DD0001092840010928000109281001092820084
:100DE00060E080E00E94970610925201C0911C02C0
:100DF000CE7FC0931C02809151010E943205609306
:100E00005301709354018093550190935601C77F0D
:100E1000C0931C02CF91089514BC84E085BD16BC1C
:100E200081E387BD0895853670F4282F30E0AFEF59
:100E3000B0E00E94670D24E630E040E050E00E9400
:100E4000480D2093B400089581E28093B00083E0C0
:100E50008093B1001092B40008951F920F920FB6C4
:100E60000F9211242F933F934F935F936F937F9330
:100E70008F939F93AF93BF93EF93FF9316BC0E9402
:100E800062040E94D30480914D0190914E01181686
:100E900019066CF4019790934E0180934D018032B6
:100EA000934029F480911C02806280931C028091FF
:100EB000190290911A02892BD1F180914B019091E6
:100EC0004C01019690934C0180934B0120914F016E
:100ED000309150018217930740F48091490190911D
:100EE0004A01892B11F45A9A22C05A9880914901DB
:100EF00090914A01019690934A0180934901209173
:100F00004F01309150018217930788F010924A01E7
:100F10001092490110924C0110924B0180911902DC
:100F200090911A02019790931A0280931902FF91EF
:100F3000EF91BF91AF919F918F917F916F915F9151
:100F40004F913F912F910F900FBE0F901F901895CA
:100F50001F920F920FB60F9211240F931F932F938E
:100F60003F934F935F936F937F938F939F93AF9331
:100F7000BF93CF93DF93EF93FF931092850010926E
:100F8000840080911C0282FF17C08B7F80931C021B
:100F900010924801109247011092460110924501AB
:100FA000109244011092430182E090E09093090175
:100FB000809308011092420180910C0181117DC043
:100FC0008091120190911301009709F45CC0019780
:100FD000909313018093120180910801909109016F
:100FE000029701F580910D010E9413076091430162
:100FF00081E00E94970680914501909146010196FB
:101000009093460180934501209110013091110188
:1010100082179307C1F5109246011092450181E0B5
:1010200090E02DC01092B400C0914301D0914401D2
:101030006C2F80E00E949706809110019091110121
:10104000892BB9F081E090E0CD2B11F080E090E0A9
:1010500090934401809343018EE190E0909350017E
:1010600080934F0181E090E090931A0280931902DF
:1010700004C0109244011092430182E090E09093EA
:101080000901809308018091120190911301892B2D
:10109000A1F410924801109247011092460110925B
:1010A0004501109244011092430182E090E0909338
:1010B0000901809308010E94E50620910C0121306E
:1010C00009F027C190911C02892F869586958695F7
:1010D000822780FB93F990931C022091420130916A
:1010E00051010BE53003C0011124DC01AD59BE4FA5
:1010F0003C91231708F0E5C030E019E0129FE001B1
:10110000139FD00D1124DE01A80FB91FAD59BE4F9A
:1011100011964C91423009F07CC0409108015091E9
:1011200009014230510591F52F5F3F4F129FD001C9
:10113000139FB00D1124A80FB91FAD59BE4F8C914C
:101140000E9413076091430181E00E9497068091FD
:101150004501909146010196909346018093450187
:10116000209151012003F0011124EC0FFD1FED59D6
:10117000FE4F248135818217930709F05CC01092DD
:1011800046011092450181E090E03EC01092B4000B
:1011900060E080E00E9497068091470190914801AD
:1011A000019690934801809347013091510120911D
:1011B00042013003F0011124129FE00DF11D1124B2
:1011C000ED59FE4F268130E082179307A1F510926A
:1011D00048011092470184819581892B79F081E043
:1011E00090E02091430130914401232B11F080E0E5
:1011F00090E0909344018093430104C01092440115
:101200001092430182E090E09093090180930801DD
:1012100012C02F5F3F4F129FF001139FF00D11245A
:10122000E80FF91FED59FE4F80810E94130760E01F
:1012300080E00E94970680914001909141010196C3
:10124000909341018093400140914201E09151010E
:101250002BE5E202F001112429E0429FE00DF11D8F
:101260001124ED59FE4F2781308582179307B1F481
:10127000109241011092400181E0840F809342015D
:10128000809352018EE190E09093500180934F0142
:1012900081E090E090931A028093190280915301AB
:1012A00090915401A0915501B09156010197A10967
:1012B000B1098093530190935401A0935501B093C9
:1012C0005601E09151018BE5E802F0011124ED593E
:1012D000FE4F90914201808198131BC010924801EB
:1012E000109247011092460110924501109244015C
:1012F0001092430182E090E09093090180930801ED
:10130000109242010E94E50680911C028061809348
:101310001C02FF91EF91DF91CF91BF91AF919F910F
:101320008F917F916F915F914F913F912F911F917D
:101330000F910F900FBE0F901F90189587E00E949D
:1013400060020E943D040E94CE0442E050E060E052
:1013500070E08AE091E00E94810D569A3A9A3B9A99
:10136000389A539A529A0E940C070E94240782E0EE
:1013700080936E0080936F0081E080930C018091D8
:101380001C028E7F8F7E80931C0278941092B40092
:1013900060E080E00E9497068CE291E0909350011B
:1013A00080934F0181E090E090931A02809319029C
:1013B000809151010E943205609353017093540152
:1013C000809355019093560120911C0260317E401C
:1013D00081059105C8F4277F20931C0248EC442E18
:1013E000512C53E0252E312CC9E01BE564E0662E1C
:1013F00070E1872E7EE0972EA12CB12CECE3CE2E4F
:10140000D12CE12CF12CB7C0822F886080931C0274
:10141000E5CF8F7E80931C0268E084E191E00E941A
:1014200094015092500140924F0130921A02209242
:1014300019028FEF99E628E1815090402040E1F7B2
:1014400000C0000080911C0286FF05C08F7B809346
:101450001C020E94F40480E00E943C028091510131
:101460000E9432056093530170935401809355019B
:101470009093560120911C0260317E4081059105B8
:1014800008F083C0277F20931C0280916201823084
:1014900009F480C080910C0168E0813009F01AC223
:1014A0008DE191E00E94940180911C0280FF8BC02D
:1014B00007E080915101992787FD90950196BC0125
:1014C000882777FD8095982F27E047E00E94030347
:1014D00080911C0280FD79C066E08FE191E00E945E
:1014E000940180914D0190914E01892B09F0A6C085
:1014F0006091530170915401809155019091560172
:1015000060312EE072078105910508F06DC0A701DA
:1015100096010E94260DCA01B90103E024E043E0D0
:101520000E94030360915301709154018091550111
:1015300090915601A70196010E94260D22E041E0FC
:101540000E94030380911C028F7D80931C02809176
:101550006201823009F48FC080916201823009F407
:10156000A8C040911C0240FD1FC1D13009F4F3C056
:10157000DF3F09F4F8C00E94FF040E94EF04D82F57
:1015800080911C0284FF81CF44CF822F886080939A
:101590001C027BCF80911B02843009F07BCF8091AD
:1015A0001C0280FD77CF80910C01811106C00E9442
:1015B0003C0281E080930C016DCF80E00E943C02F0
:1015C00010920C0167CF00E074CF8091520190E03F
:1015D0000196BC01882777FD8095982F00E026E0D2
:1015E00046E00E9403037DCFA50194010E94260DD1
:1015F000CA01B90103E024E043E00E9403036091C3
:101600005301709154018091550190915601A701A9
:1016100096010E94260DCA01B9016C537109810916
:10162000910922E041E00E94030360911C0263FBE8
:10163000662760F981E00E94DB0384CF209152018C
:1016400030E02F5F3F4F40915101C29FF001C39F97
:10165000F00D11244103C0011124E80FF91FED59C9
:10166000FE4F608170E080E090E000E024E041E027
:101670000E9403036CCF80911B02853009F06CCF70
:1016800080911C0280FD07C08D7F816080931C02C9
:101690000E94B80661CF81FD06C0826080931C0263
:1016A0001092810059CF8D7F80931C02609281003F
:1016B00053CF80911B02843009F053CF80911C02DC
:1016C00080FF4FCF8D7F8E7F80931C020E94E506A6
:1016D00080911C02846080931C0268E084E191E0A8
:1016E0000E9494015092500140924F0130921A0290
:1016F000209219023FEF89E698E1315080409040F6
:10170000E1F700C0000080911C0286FF05C08F7BBE
:1017100080931C020E94F40480E00E943C028091AD
:1017200051010E94320560935301709354018093DC
:1017300055019093560120911C0260317E40810535
:10174000910520F4277F20931C020BCF822F886005
:1017500080931C0206CF809151018F5F823041F44B
:101760001092510107C080915101815087FD81E0A5
:1017700080935101809151010E9432056093530181
:1017800070935401809355019093560120911C024F
:1017900060317E408105910520F4277F20931C0253
:1017A000EACE822F886093C0D13009F045C06091A5
:1017B000510150915201252F30E06103C0011124E5
:1017C000FC01C59FE00DF11D1124ED59FE4F518123
:1017D000523009F0D0CE2F5F3F4FC29FF001C39F20
:1017E000F00D1124E80FF91FED59FE4F008188EE2E
:1017F00093E090934E0180934D01043638F445FFF9
:1018000005C081E0800F80830E9413078091520100
:1018100090E0019620915101C89FF001C99FF00D01
:1018200011242103C0011124E80FF91FED59FE4FC7
:101830008081081349C09FCEDF3F09F09CCE6091A4
:10184000510150915201252F30E06103C001112454
:10185000FC01C59FE00DF11D1124ED59FE4F518192
:10186000523009F088CE2F5F3F4FC29FF001C39FD7
:10187000F00D1124E80FF91FED59FE4F708028EE8E
:1018800033E030934E0120934D01772039F045FF2E
:1018900005C08FEF870D80830E941307809152014E
:1018A00090E0019620915101C89FF001C99FF00D71
:1018B00011242103C0011124E80FF91FED59FE4F37
:1018C0008081781609F457CE80911C028064809341
:1018D0001C0251CE81E291E00E94940160910D01C1
:1018E000772767FD7095872F972F00E023E041E071
:1018F0000E940303D13031F480910D01843684F4C9
:101900008F5F07C0DF3F61F480910D01181644F42A
:10191000815080930D0190911C0290FD0E9413074D
:10192000809162018230D1F480911B028330B1F446
:1019300080E29CE1909313018093120110921101B7
:101940001092100166E083E291E00E9494010E94EF
:10195000B80680911C02816080931C028091620114
:101960008230E1F480911B028530C1F420E23CE139
:1019700030931301209312018EE190E090931101B6
:101980008093100166E086E291E00E9494010E943B
:10199000B80680911C02816080931C0280916201D4
:1019A000823009F0E8CD80911B02843009F0E3CD4C
:1019B00080911C0280FFDFCD8E7F80931C021092ED
:1019C000B4000E94E50680911C02846080931C0292
:1019D00068E084E191E00E949401509250014092AD
:1019E0004F0130921A02209219029FEF29E638E146
:1019F000915020403040E1F700C0000080E00E949C
:101A00003C02B9CDDB018F939F930E94760DBF916D
:101A1000AF91A29F800D911DA39F900DB29F900D3D
:101A200011240895AA1BBB1B51E107C0AA1FBB1FAD
:101A3000A617B70710F0A61BB70B881F991F5A955A
:101A4000A9F780959095BC01CD010895A1E21A2EC9
:101A5000AA1BBB1BFD010DC0AA1FBB1FEE1FFF1F52
:101A6000A217B307E407F50720F0A21BB30BE40BA2
:101A7000F50B661F771F881F991F1A9469F76095E9
:101A80007095809590959B01AC01BD01CF010895A3
:101A9000052E97FB1EF400940E945F0D57FD07D0A2
:101AA0000E94260D07FC03D04EF40C945F0D509558
:101AB0004095309521953F4F4F4F5F4F089590953A
:101AC0008095709561957F4F8F4F9F4F0895A29F8E
:101AD000B001B39FC001A39F700D811D1124911D02
:101AE000B29F700D811D1124911D08950E94670DF4
:101AF000A59F900DB49F900DA49F800D911D112462
:101B00000895DC01CB01FC01F999FECF06C0F2BDBE
:101B1000E1BDF89A319600B40D9241505040B8F7AB
:101B20000895DC01A40FB51F4150504048F0CB018F
:101B3000840F951F2E910E94A20D41505040D0F766
:101B40000895262FF999FECF92BD81BDF89A01978D
:101B500000B4021639F01FBA20BD0FB6F894FA9AF5
:0A1B6000F99A0FBE0895F894FFCF24
:101B6A00FFFFFFFFFFFFFFFF02000A000132010033
:101B7A001E00201C2D2D53746F502D2D0050002057
:0A1B8A000048007546007572000067
:00000001FF
