:100000000C945B000C9478000C9478000C947800AD
:100010000C9478000C9478000C9478000C94780080
:100020000C9478000C9478000C9478000C94690778
:100030000C9478000C9478000C9402070C947800CF
:100040000C9478000C9478000C9478000C94780050
:100050000C9478000C9478000C9478000C94780040
:100060000C9478000C9478002D013D092A635F08F8
:100070002000307E3130326D33793433355B365F7A
:100080003770387F397B41774647621F553E751C74
:10009000535B49306910740F4837454F4C0E720559
:1000A0004F7E6F1D5067434E475F630D6E15643D75
:1000B0006817593B000011241FBECFEFD8E0DEBF08
:1000C000CDBF11E0A0E0B1E0E6E3F8E102C00590A9
:1000D0000D92A832B107D9F722E0A8E2B1E001C041
:1000E0001D92A931B207E1F70E945F090C94190C27
:1000F0000C9400002A9A2C9A8CE284B91CBC83E5EB
:100100008CBD1DBC1DBC0895CF93DF93CDB7DEB76A
:1001100028970FB6F894DEBF0FBECDBF1816C4F0F7
:10012000880F990B19821A82FE01E80FF91F62836A
:10013000FE01E80FF91F41832A988A818EBD0DB414
:1001400007FEFDCF89818EBD0DB407FEFDCF2A9A33
:1001500028960FB6F894DEBF0FBECDBFDF91CF91CA
:1001600008952F923F924F925F926F927F928F925B
:100170009F92AF92BF92CF92DF92EF92FF920F9336
:100180001F93CF93DF93CDB7DEB727970FB6F894C1
:10019000DEBF0FBECDBF6B017C0197FF10C0CB014E
:1001A00077FF04C0882799278C199D09AA2797FDF6
:1001B000A095BA2F89839A83AB83BC8304C06983DB
:1001C0007A838B839C83842E912C540181E08D83D0
:1001D000822F90E09F838E838AE0482E512C612CE1
:1001E000712C202E312C8E819F818A159B050CF459
:1001F0005CC069817A818B819C81A30192010E94FC
:10020000E00B672B682B692BB9F489819A81AB814C
:10021000BC810A97A105B1057CF4A114B10461F079
:10022000A214B304ACF0C114D104E104F10471F4DC
:10023000A814B90459F40CC069817A818B819C811E
:10024000A30192010E94E00B162F03C01FE001C022
:1002500010E0F501EA5AFE4F108369817A818B81A3
:100260009C81A30192010E94E00B29833A834B8376
:100270005C839FEFA91AB90AC5018A5A9E4FFC01F7
:100280003197A214B30411F4106801C01F771083D2
:1002900089819A81AB81BC81892B8A2B8B2B09F4B4
:1002A000A2CF8D818F5F8D839ECFF7FE0FC001118E
:1002B00007C084019D81090F111D97FD1A9501C08A
:1002C00010E0F801EA5AFE4F8AE080838D8127967C
:1002D0000FB6F894DEBF0FBECDBFDF91CF911F9157
:1002E0000F91FF90EF90DF90CF90BF90AF909F90D5
:1002F0008F907F906F905F904F903F902F900895D8
:100300001F93CF93DF9381110BC0C6E5D1E011E0BD
:100310004991612F80E00E9484001F5F1930C1F76E
:10032000DF91CF911F910895AF92BF92CF92DF924C
:10033000EF92FF920F931F93CF93DF93A62F693015
:100340000CF08FC0662309F48CC0FC0101900020E2
:10035000E9F73197E81BF90BB62FBE1BE62FFF27F5
:10036000E7FDF095C12CD12C7601C3942B2F30E002
:100370002E173F07A4F5A0900001B0900101D09185
:100380000201C091030120910401209105012091F7
:10039000060120910701970186010B2E04C0000F72
:1003A000111F221F331F0A94D2F700951095209534
:1003B0003095A022B122D223C323A0920001B09293
:1003C0000101D0930201C093030110920401109225
:1003D00005011092060110920701BF5FC7CF2FEFF2
:1003E0002A0FEC012830E0F449914423C9F030E0B1
:1003F000A22FB0E0AA5ABE4F832F90E0FC01E8592B
:10040000FF4F5491552351F0E4914E1305C0FC0168
:10041000E759FF4F84918C933E5FEECF2150E2CF9E
:1004200040910001809101018091020180910301BE
:10043000809104018091050180910601809107015E
:1004400069E080E00E94840080E0DF91CF911F91FD
:100450000F91FF90EF90DF90CF90BF90AF900C94F2
:100460008001DF91CF911F910F91FF90EF90DF906E
:10047000CF90BF90AF900895811121C08FEF8093EE
:100480000001809301018093020180930301809316
:1004900004018093050180930601809307014FEFCB
:1004A00069E080E00E948400E6E5F1E08FE081935E
:1004B00091E0EE35F907D9F780E00C9480010895BA
:1004C000CF93C82F803108F0C5E00E947A0040E049
:1004D0006FE080E00E94840047E06BE080E00E94D3
:1004E00084004C2F6AE080E00E94840080E00E943B
:1004F0003C0241E06CE080E0CF910C9484008F924C
:100500009F92AF92BF92CF92DF92EF92FF920F93A2
:100510001F93CF93DF936A017B01811167C029305C
:1005200008F064C0022F27E040E0C701B6010E9436
:10053000B100E0E0F0E090E0C12CD12C7601C39452
:10054000E817F90784F5D0910001C0910101B0913D
:100550000201A09103018090040190900501A090F8
:100560000601B0900701970186010E2E04C0000F0E
:10057000111F221F331F0A94D2F7D02BC12BB22B8D
:10058000A32BD0930001C0930101B0930201A0936B
:1005900003018092040190920501A0920601B0929D
:1005A00007013196CDCF40910001809101018091EA
:1005B00002018091030180910401809105018091E5
:1005C00006018091070169E080E00E94840080E0DC
:1005D000DF91CF911F910F91FF90EF90DF90CF901F
:1005E000BF90AF909F908F900C948001DF91CF913E
:1005F0001F910F91FF90EF90DF90CF90BF90AF9041
:100600009F908F9008952F923F924F925F926F929A
:100610007F928F929F92AF92BF92CF92DF92EF9292
:10062000FF920F931F93CF93DF93CDB7DEB76397FE
:100630000FB6F894DEBF0FBECDBF442309F4A2C0AD
:10064000293008F09FC0093008F09CC0212C312CC3
:10065000E42EF12CD7011197B88BAF87F7013297B1
:10066000FA87E987422E512C5A8A498AEF84F88802
:10067000E20CF31C3FEF231A330AE985FA85E20DF9
:10068000F31DA989BA89EA17FB070CF048C05090FE
:1006900000015E8610910101509102013091030129
:1006A000A0910401B0910501609006016B8A7090E1
:1006B00007017D86812C912C5401839404C0880C01
:1006C000991CAA1CBB1CEA94D2F775016401240191
:1006D0003501812C912C5401C9825A826B827C8213
:1006E0008D829E82AF82B8865E8454286A801629E5
:1006F0007B8057298C80382950920001109301018A
:100700005093020130930301A0930401B0930501BB
:100710009B8890920601AD84A0920701A7CF21503B
:1007200041500E94B10040910001809101018091EF
:100730000201809103018091040180910501809163
:1007400006018091070169E080E00E94840080E05A
:1007500063960FB6F894DEBF0FBECDBFDF91CF9189
:100760001F910F91FF90EF90DF90CF90BF90AF90CF
:100770009F908F907F906F905F904F903F902F90C1
:100780000C94800163960FB6F894DEBF0FBECDBF08
:10079000DF91CF911F910F91FF90EF90DF90CF905D
:1007A000BF90AF909F908F907F906F905F904F9091
:1007B0003F902F900895893070F4E82FF0E0EB5AC5
:1007C000FE4F808160FD05C08F77808380E00C94B0
:1007D00080018068FACF089581111CC0E6E5F1E040
:1007E00080E090E070E09B01082E02C035952795CF
:1007F0000A94E2F720FD03C020812F7702C02081F8
:1008000020682083019631968830910561F780E059
:100810000C9480010895462F811105C0603118F4B1
:100820006AE00C948400089520912801223078F425
:1008300090912A01E92FF0E0E55DFE4F80832F5F64
:100840002093280181E0890F817080932A01089507
:1008500020912801222379F090912901E92FF0E0DD
:10086000E55DFE4F80812150209328019F5F9170AC
:1008700090932901089580E0089510923701109215
:10088000360110922D01109231011092390110920F
:10089000380110922E011092320110923B011092F9
:1008A0003A0110922F011092330110922B011092F5
:1008B0002C0110922A0110922901109228015598BA
:1008C0005D9A0895CF93DF9329B1C0912E01809155
:1008D00032018093300180913801909139019093D9
:1008E00035018093340125FD15C0893E23E0920730
:1008F00090F5019690933501809334018A319105EA
:1009000050F1C160893E934031F5C1FD24C0CB7FD9
:10091000C26021C0C0FF0AC0C1FD08C0C2FF03C041
:10092000CB7FD5E004C010923001C460D0E0C2FF9C
:1009300008C080913001893C20F010923001CB7FBB
:10094000D3E0C0FF02C0C1FDD4E010923501109287
:100950003401CC7F01C0D0E0C2FF07C080913001DC
:10096000893C18F48F5F809330018091300180932F
:100970003201DD2331F082E00E9414048D2F0E94A9
:100980001404809134019091350190933901809342
:100990003801C0932E01DF91CF91089521982098BE
:1009A000299A289A089523B12695217018992260D2
:1009B00080913C01982F9370291781F034E0839F38
:1009C000C0011124822B80933C01813E11F48FEFF2
:1009D00003C0823D19F481E080933D010895809128
:1009E0003D0110923D0108950E94280480935E010C
:1009F000882321F00E9428048093170208950F9302
:100A00001F939BE5899FF001112489E0689FE00D09
:100A1000F11D1124E15AFE4F828193818C0120E067
:100A200030E0648175816115710561F046810E9435
:100A3000AA0B469FC001479F900D1124080F191F54
:100A4000211D311DC901B8011F910F9108959BE52A
:100A5000899FF0011124E15AFE4FB081AF0120E0DF
:100A600030E0A0E060E070E0CB01AB1771F0FA017C
:100A7000E20FF31F0780F085E02D6E0F7F1F811DB1
:100A8000911DAF5F275F3F4FF0CF0895AF92BF92A8
:100A9000CF92DF92EF92FF920F931F93CF93DF934A
:100AA00084E0B82EB0925F0192E0E92EE0926001FE
:100AB00028E0C22E27E0D22ED0926201C0926101BE
:100AC0000CE310E01093640100936301E092650170
:100AD00060E080E00E94FF0470936701609366010C
:100AE00034E6A32EA0926801FF24F394F0926901EA
:100AF000C8E5D2E0D0936B01C0936A0110926D01FA
:100B000010926C0110926E0161E080E00E94FF047F
:100B10007093700160936F0110927101E092720105
:100B2000D0927401C0927301109376010093750105
:100B3000E092770162E080E00E94FF047093790107
:100B400060937801A0927A01F0927B01D0937D01AD
:100B5000C0937C0110927F0110927E01109280015F
:100B600063E080E00E94FF04709382016093810142
:100B700010928301B092BA01E092BB010AE010E04A
:100B80001093BD010093BC01C5E0D0E0D093BF013C
:100B9000C093BE01E092C00160E081E00E94FF04CA
:100BA0007093C2016093C10184E18093C301F0920C
:100BB000C401D093C601C093C5011092C801109220
:100BC000C7011092C90161E081E00E94FF047093A7
:100BD000CB016093CA011092CC01E092CD01109339
:100BE000CF010093CE01D093D101C093D001E09208
:100BF000D20162E081E00E94FF047093D40160930F
:100C0000D30180E58093D501F092D601D093D8012D
:100C1000C093D7011092DA011092D9011092DB0132
:100C200063E081E00E94FF047093DD016093DC01CA
:100C30001092DE01DF91CF911F910F91FF90EF9005
:100C4000DF90CF90BF90AF9008954F925F926F92D8
:100C50007F92AF92BF92CF92DF92EF92FF920F936B
:100C60001F93CF93DF93CDB7DEB729013A01621B03
:100C7000730B840B950B29893A894B895C892A1956
:100C80003B094C095D09298B3A8B4B8B5C8B9B0193
:100C9000AC0169897A898B899C890E949A0BE41836
:100CA000F50806091709A80197010E94E00B2A0D13
:100CB0003B1D4C1D5D1DCA01B901DF91CF911F91F4
:100CC0000F91FF90EF90DF90CF90BF90AF907F900B
:100CD0006F905F904F900895813051F4409A611168
:100CE00002C0429A07C0613031F44298439A089595
:100CF000409842984398089590934C0180934B01FB
:100D000070E07093160260931502089510928100AE
:100D1000089585E08093810008958091100190915D
:100D20001101892B21F480910A01813011F5109273
:100D30008500109284001092800084E080938100EE
:100D40001092820081E19AE7909389008093880055
:100D500080911802877F8093180288EC90E090932E
:100D60004C0180934B0181E090E0909316028093B8
:100D700015020895CF93109285001092840010926E
:100D80008000109281001092820060E080E00E945A
:100D90006C0610924E01C0911802CE7FC0931802CB
:100DA00080914D010E94270560934F01709350017F
:100DB0008093510190935201C77FC0931802CF9145
:100DC000089514BC84E085BD16BC81E387BD0895F9
:100DD000853670F4282F30E0AFEFB0E00E94FF0BB3
:100DE00024E630E040E050E00E94E00B2093B400A5
:100DF000089581E28093B00083E08093B100109267
:100E0000B40008951F920F920FB60F9211242F93E2
:100E10003F934F935F936F937F938F939F93AF9382
:100E2000BF93EF93FF9316BC0E9462040E94D30409
:100E30008091150290911602892BD1F18091490180
:100E400090914A01019690934A0180934901209123
:100E50004B0130914C018217930740F48091470178
:100E600090914801892B11F45A9A22C05A98809186
:100E70004701909148010196909348018093470162
:100E800020914B0130914C018217930788F010920A
:100E900048011092470110924A0110924901809135
:100EA00015029091160201979093160280931502F5
:100EB000FF91EF91BF91AF919F918F917F916F9132
:100EC0005F914F913F912F910F900FBE0F901F9008
:100ED00018951F920F920FB60F9211240F931F9324
:100EE0002F933F934F935F936F937F938F939F9332
:100EF000AF93BF93CF93DF93EF93FF93109285004F
:100F0000109284008091180282FF17C08B7F80931B
:100F1000180210924601109245011092440110925D
:100F20004301109242011092410182E090E09093BF
:100F30000901809308011092400180910A018111FA
:100F40007DC08091100190911101009709F45CC05F
:100F50000197909311018093100180910801909165
:100F60000901029701F580910B010E94E80660914A
:100F7000410181E00E946C068091430190914401FF
:100F80000196909344018093430120910E0130918A
:100F90000F0182179307C1F510924401109243018B
:100FA00081E090E02DC01092B400C0914101D09139
:100FB00042016C2F80E00E946C0680910E0190919E
:100FC0000F01892BB9F081E090E0CD2B11F080E08A
:100FD00090E090934201809341018EE190E09093E4
:100FE0004C0180934B0181E090E090931602809336
:100FF000150204C0109242011092410182E090E07B
:101000009093090180930801809110019091110142
:10101000892BA1F4109246011092450110924401CF
:1010200010924301109242011092410182E090E03F
:1010300090930901809308010E94BA0620910A0149
:10104000213009F027C190911802892F8695869545
:101050008695822780FB93F9909318022091400196
:1010600030914D010BE53003C0011124DC01A15A80
:10107000BE4F3C91231708F0E5C030E019E0129F05
:10108000E001139FD00D1124DE01A80FB91FA15A52
:10109000BE4F11964C91423009F07CC0409108013E
:1010A000509109014230510591F52F5F3F4F129F3A
:1010B000D001139FB00D1124A80FB91FA15ABE4F24
:1010C0008C910E94E8066091410181E00E946C06CB
:1010D0008091430190914401019690934401809343
:1010E000430120914D012003F0011124EC0FFD1F5D
:1010F000E15AFE4F248135818217930709F05CC0C5
:10110000109244011092430181E090E03EC01092A1
:10111000B40060E080E00E946C06809145019091EF
:1011200046010196909346018093450130914D010F
:10113000209140013003F0011124129FE00DF11DB8
:101140001124E15AFE4F268130E082179307A1F562
:10115000109246011092450184819581892B79F086
:1011600081E090E02091410130914201232B11F068
:1011700080E090E0909342018093410104C010927E
:1011800042011092410182E090E090930901809326
:10119000080112C02F5F3F4F129FF001139FF00D07
:1011A0001124E80FF91FE15AFE4F80810E94E806E2
:1011B00060E080E00E946C0680913E0190913F01CA
:1011C000019690933F0180933E0140914001E09150
:1011D0004D012BE5E202F001112429E0429FE00DD0
:1011E000F11D1124E15AFE4F2781308582179307A4
:1011F000B1F410923F0110923E0181E0840F809380
:10120000400180934E018EE190E090934C018093D9
:101210004B0181E090E0909316028093150280913B
:101220004F0190915001A0915101B091520101974D
:10123000A109B10980934F0190935001A0935101EE
:10124000B0935201E0914D018BE5E802F0011124C9
:10125000E15AFE4F90914001808198131BC010927B
:1012600046011092450110924401109243011092E0
:1012700042011092410182E090E090930901809335
:101280000801109240010E94BA0680911802806104
:1012900080931802FF91EF91DF91CF91BF91AF91B1
:1012A0009F918F917F916F915F914F913F912F917E
:1012B0001F910F910F900FBE0F901F90189587E010
:1012C0000E9460020E943D040E94CE04569A3A9AFF
:1012D0003B9A389A539A529A0E94E1060E94F90664
:1012E00082E080936E0080936F000E94460581E04B
:1012F00080930A0180914D010E94270560934F0160
:1013000070935001809351019093520120911802E3
:101310002E7F2F7E60317E408105910510F4277F5E
:1013200001C028602093180278948CE291E0909399
:101330004C0180934B0181E090E0909316028093E2
:10134000150248ECA42EB12CC3E0D0E050E2852E6B
:101350005CE1952E6EE1262E312C70E1472E7EE069
:10136000572E612C712CECE3CE2ED12CE12CF12CDC
:101370000E94F4040E94EF04182F8091180284FF49
:101380001CC08F7E8093180268E082E191E00E9489
:101390009401B0924C01A0924B01D0931602C093DD
:1013A00015028FEF99E628E1815090402040E1F747
:1013B00000C0000080E00E943C0280915E0182300B
:1013C000B9F480911702843099F48091180280FD5D
:1013D0000FC080910A01811106C00E943C0231E0D9
:1013E00030930A0105C080E00E943C0210920A017D
:1013F00080910A0168E0813009F00AC18BE191E037
:101400000E9494018091180280FF02C007E001C091
:1014100000E080914D01992787FD90950196BC01D0
:10142000882777FD8095982F27E047E00E940303E7
:101430008091180280FD06C066E08DE191E00E9477
:1014400094010FC020914E0130E02F5F3F4FB90152
:10145000882777FD8095982F00E026E046E00E94DF
:10146000030360914F01709150018091510190915F
:10147000520160312EE0720781059105E0F4A70169
:1014800096010E94BE0BCA01B90103E024E043E0CB
:101490000E94030360914F017091500180915101AE
:1014A00090915201A70196010E94BE0B22E041E0FB
:1014B0000E94030329C0A30192010E94BE0BCA012E
:1014C000B90103E024E043E00E94030360914F016F
:1014D000709150018091510190915201A7019601A4
:1014E0000E94BE0BCA01B9016C53710981099109AF
:1014F00022E041E00E9403036091180263FB66272B
:1015000060F981E00E94DB0380915E018230E1F4AA
:10151000909117029530C1F48091180280FD07C0A8
:101520008D7F8160809318020E948D060DC081FD21
:1015300006C08260809318021092810005C08D7FE2
:10154000809318029093810080915E01823061F552
:1015500080911702843041F58091180280FF24C0E9
:101560008D7F8E7F809318020E94BA0680911802A8
:1015700084608093180268E082E191E00E94940107
:10158000B0924C01A0924B01D0931602C093150269
:101590003FEF89E698E1315080409040E1F700C08C
:1015A000000080E00E943C028091180280FDE0CEA5
:1015B000113041F480914D018F5F823059F41092C7
:1015C0004D010AC01F3F09F0D3CE80914D018150DB
:1015D00087FD81E080934D0180914D010E94270598
:1015E00060934F0170935001809351019093520189
:1015F0002091180260317E408105910520F4277FFB
:1016000020931802B5CE822F886080931802B0CE46
:101610008FE191E00E94940160910B01772767FDB3
:101620007095872F972F00E023E041E00E9403038D
:10163000113031F480910B01843684F48F5F07C040
:101640001F3F61F480910B01181644F48150809380
:101650000B019091180290FD0E94E80680915E01B6
:101660008230C1F4809117028330A1F4909211016D
:101670008092100110920F0110920E0166E081E23B
:1016800091E00E9494010E948D0680911802816071
:101690008093180280915E018230C1F4809117021C
:1016A0008530A1F4909211018092100130920F01C7
:1016B00020920E0166E084E291E00E9494010E9473
:1016C0008D068091180281608093180280915E01DE
:1016D000823009F04DCE80911702843009F048CE57
:1016E0008091180280FF44CE8E7F80931802109262
:1016F000B4000E94BA068091180284608093180298
:1017000068E082E191E00E949401B0924C01A092C5
:101710004B01D0931602C09315028FEF99E628E192
:10172000815090402040E1F700C0000080E00E941E
:101730003C021ECEDB018F939F930E940E0CBF9143
:10174000AF91A29F800D911DA39F900DB29F900D10
:1017500011240895AA1BBB1B51E107C0AA1FBB1F80
:10176000A617B70710F0A61BB70B881F991F5A952D
:10177000A9F780959095BC01CD010895A1E21A2E9C
:10178000AA1BBB1BFD010DC0AA1FBB1FEE1FFF1F25
:10179000A217B307E407F50720F0A21BB30BE40B75
:1017A000F50B661F771F881F991F1A9469F76095BC
:1017B0007095809590959B01AC01BD01CF01089576
:1017C000052E97FB1EF400940E94F70B57FD07D0DF
:1017D0000E94BE0B07FC03D04EF40C94F70B5095FF
:1017E0004095309521953F4F4F4F5F4F089590950D
:1017F0008095709561957F4F8F4F9F4F0895A29F61
:10180000B001B39FC001A39F700D811D1124911DD4
:10181000B29F700D811D1124911D08950E94FF0B30
:10182000A59F900DB49F900DA49F800D911D112434
:061830000895F894FFCFBB
:10183600FFFFFFFFFFFFFFFF0200013201001E0056
:10184600201C2D2D53746F502D2D00500020004864
:081856000075460075720000E8
:00000001FF
