:100000000C945B000C9478000C9478000C947800AD
:100010000C9478000C9478000C9478000C94780080
:100020000C9478000C9478000C9478000C940B0BD2
:100030000C9478000C9478000C944A0A0C94780084
:100040000C9478000C9478000C9478000C94780050
:100050000C9478000C9472090C9478000C9478003D
:100060000C9478000C9478002D013D092A635F08F8
:100070002000307E3130326D33793433355B365F7A
:100080003770387F397B41774647621F553E751C74
:10009000535B49306910740F4837454F4C0E720559
:1000A0004F7E6F1D5067434E475E630D6E15643D76
:1000B0006817593B000011241FBECFEFD8E0DEBF08
:1000C000CDBF11E0A0E0B1E0E2E0FFE202C00590A8
:1000D0000D92A238B107D9F725E0A2E8B1E001C03E
:1000E0001D92A733B207E1F70E94130D0C947F17FE
:1000F0000C9400002A9A2C9A8CE284B91CBC83E5EB
:100100008CBD1DBC1DBC0895CF93DF93CDB7DEB76A
:1001100028970FB6F894DEBF0FBECDBF1816C4F0F7
:10012000880F990B19821A82FE01E80FF91F62836A
:10013000FE01E80FF91F41832A988A818EBD0DB414
:1001400007FEFDCF89818EBD0DB407FEFDCF2A9A33
:1001500028960FB6F894DEBF0FBECDBFDF91CF91CA
:1001600008952F923F924F925F926F927F928F925B
:100170009F92AF92BF92CF92DF92EF92FF920F9336
:100180001F93CF93DF9300D000D000D0CDB7DEB760
:100190006B017C0197FF10C0CB0177FF04C088275B
:1001A00099278C199D09AA2797FDA095BA2F8983B5
:1001B0009A83AB83BC8304C069837A838B839C83DB
:1001C000842E912C540122242394822F90E09E832C
:1001D0008D839AE0492E512C612C712C10E08D8179
:1001E0009E818A159B050CF45CC069817A818B81A4
:1001F0009C81A30192010E947914672B682B692BC3
:10020000B9F489819A81AB81BC810A97A105B105B6
:100210007CF4A114B10461F0A016B106B4F0C114CD
:10022000D104E104F10471F4A814B90459F40DC027
:1002300069817A818B819C81A30192010E9479144A
:10024000362E04C08FE0382E01C0312CF501E05A63
:10025000FB4F308269817A818B819C81A30192015D
:100260000E94791429833A834B835C839FEFA91AF8
:10027000B90AC501805A9B4FFC013197232DA01666
:10028000B10611F4206801C02F77208389819A81FB
:10029000AB81BC81892B8A2B8B2B09F4A0CF2394B3
:1002A0009ECFF7FE09C0F401E05AFB4FE20DF11DAD
:1002B00027FCFA958AE08083822D26960FB6F89463
:1002C000DEBF0FBECDBFDF91CF911F910F91FF9089
:1002D000EF90DF90CF90BF90AF909F908F907F90E6
:1002E0006F905F904F903F902F9008951F93CF9302
:1002F000DF9381110BC0C0E6D4E011E04991612F7A
:1003000080E00E9484001F5F1930C1F7DF91CF9118
:100310001F910895AF92BF92CF92DF92EF92FF921A
:100320000F931F93CF93DF93A62F69300CF08FC0EC
:10033000662309F48CC0FC0101900020E9F7319795
:10034000E81BF90BB62FBE1BE62FFF27E7FDF09544
:10035000C12CD12C7601C3942B2F30E02E173F07F0
:10036000A4F5A0900001B0900101D0910201C091CC
:1003700003012091040120910501209106012091A3
:100380000701970186010B2E04C0000F111F221FC9
:10039000331F0A94D2F70095109520953095A0222E
:1003A000B122D223C323A0920001B0920101D093C5
:1003B0000201C093030110920401109205011092F2
:1003C000060110920701BF5FC7CF2FEF2A0FEC0184
:1003D0002830E0F449914423C9F030E0A22FB0E086
:1003E000A05ABB4F832F90E0FC01E859FF4F549176
:1003F000552351F0E4914E1305C0FC01E759FF4F1E
:1004000084918C933E5FEECF2150E2CF409100016A
:10041000809101018091020180910301809104018A
:1004200080910501809106018091070169E080E0DB
:100430000E94840080E0DF91CF911F910F91FF9087
:10044000EF90DF90CF90BF90AF900C947601DF914A
:10045000CF911F910F91FF90EF90DF90CF90BF90C1
:10046000AF900895811121C08FEF80930001809398
:100470000101809302018093030180930401809322
:10048000050180930601809307014FEF69E080E04A
:100490000E948400E0E6F4E08FE0819394E0E83687
:1004A000F907D9F780E00C9476010895CF93C82F0F
:1004B000803108F0C5E00E947A0040E06FE080E003
:1004C0000E94840047E06BE080E00E9484004C2F93
:1004D0006AE080E00E94840080E00E94320241E0F5
:1004E0006CE080E0CF910C9484008F929F92AF9249
:1004F000BF92CF92DF92EF92FF920F931F93CF9311
:10050000DF936A017B01811167C0293008F064C064
:10051000022F27E040E0C701B6010E94B100E0E0F1
:10052000F0E090E0C12CD12C7601C394E817F907D4
:1005300084F5D0910001C0910101B0910201A09118
:1005400003018090040190900501A0900601B090F5
:100550000701970186010E2E04C0000F111F221FF4
:10056000331F0A94D2F7D02BC12BB22BA32BD093DD
:100570000001C0930101B0930201A0930301809296
:10058000040190920501A0920601B09207013196F4
:10059000CDCF4091000180910101809102018091B5
:1005A00003018091040180910501809106018091F1
:1005B000070169E080E00E94840080E0DF91CF9134
:1005C0001F910F91FF90EF90DF90CF90BF90AF9071
:1005D0009F908F900C947601DF91CF911F910F9196
:1005E000FF90EF90DF90CF90BF90AF909F908F9053
:1005F00008952F923F924F925F926F927F928F92C7
:100600009F92AF92BF92CF92DF92EF92FF920F93A1
:100610001F93CF93DF93CDB7DEB763970FB6F894F0
:10062000DEBF0FBECDBF442309F4A2C0293008F0BD
:100630009FC0093008F09CC0212C312CE42EF12CF5
:10064000D7011197B88BAF87F7013297FA87E987FF
:10065000422E512C5A8A498AEF84F888E20CF31C06
:100660003FEF231A330AE985FA85E20DF31DA989C4
:10067000BA89EA17FB070CF048C0509000015E866B
:10068000109101015091020130910301A0910401E8
:10069000B0910501609006016B8A709007017D861C
:1006A000812C912C5401839404C0880C991CAA1CA1
:1006B000BB1CEA94D2F77501640124013501812C39
:1006C000912C5401C9825A826B827C828D829E82D7
:1006D000AF82B8865E8454286A8016297B805729A9
:1006E0008C8038295092000110930101509302012F
:1006F00030930301A0930401B09305019B8890926D
:100700000601AD84A0920701A7CF215041500E945D
:10071000B10040910001809101018091020180911E
:10072000030180910401809105018091060180916F
:10073000070169E080E00E94840080E063960FB6C4
:10074000F894DEBF0FBECDBFDF91CF911F910F9107
:10075000FF90EF90DF90CF90BF90AF909F908F90E1
:100760007F906F905F904F903F902F900C94760108
:1007700063960FB6F894DEBF0FBECDBFDF91CF9169
:100780001F910F91FF90EF90DF90CF90BF90AF90AF
:100790009F908F907F906F905F904F903F902F90A1
:1007A0000895893070F4E82FF0E0E15AFB4F808122
:1007B00060FD05C08F77808380E00C9476018068AF
:1007C000FACF089581111CC0E0E6F4E080E090E0EB
:1007D00070E09B01082E02C0359527950A94E2F738
:1007E00020FD03C020812F7702C020812068208354
:1007F000019631968830910561F780E00C9476017E
:100800000895462F811105C0603118F46AE00C94F8
:100810008400089520918201223078F4909184011F
:10082000E92FF0E0EB57FE4F80832F5F209382018A
:1008300081E0890F8170809384010895EF92FF9287
:100840000F931F93CF93DF9300D0CDB7DEB72FEF79
:10085000260F30E0A90149575E4F7A01FA01408125
:10086000F901E557FE4F908190938A018901000FAD
:10087000111FD801A057BE4F2D913C9130938F018D
:1008800020938E018823B1F0253F51E0350798F57C
:100890002F5F3F4F30938F0120938E012A31310516
:1008A00050F14160253F314031F541FD24C04B7F7F
:1008B000426021C040FF0AC041FD08C042FF03C0A2
:1008C0004B7F95E004C010928A01446090E042FFA3
:1008D00008C080918A01893C20F010928A014B7FE8
:1008E00093E040FF02C041FD94E010928F0110920E
:1008F0008E014C7F01C090E042FF07C080918A01C9
:10090000893C18F48F5F80938A0180918A018083EB
:10091000992351F0862F4A8399830E940A04998172
:10092000892F0E940A044A81F801E057FE4F809106
:100930008E0190918F0191838083F70140830F9006
:100940000F90DF91CF911F910F91FF90EF9008953D
:1009500020918201222379F090918301E92FF0E028
:10096000EB57FE4F80812150209382019F5F917051
:1009700090938301089580E0089510929101109260
:1009800090011092870110928B01109293011092A6
:1009900092011092880110928C0110929501109290
:1009A00094011092890110928D011092850110928C
:1009B000860110928401109283011092820157984F
:1009C0005F9A52985A9A24982C9A0895CF9389B195
:1009D000809561E0881F8827881F0E941E0489B1C6
:1009E000C1E082FB882780F962E08C270E941E0408
:1009F00083B18295817063E08C27CF910C941E04A3
:100A0000CF93DF93EC010E942613882371F0209787
:100A100021F0CE010E94181403C08CEC0E947113C7
:100A200084E40E94711381E001C080E0DF91CF91E6
:100A30000895FC01680F791F80E048E1E617F70789
:100A400081F0219198E0322F3827532F517030FDDB
:100A500084278695513009F480682695915099F73E
:100A6000EDCF0895FF920F931F93CF93DF93EC0187
:100A7000162F042FF22E0E942613882369F1209747
:100A800019F0CE010E94181480E2F89E9001112402
:100A9000922F9F61F92E8EE40E947113802F0E9485
:100AA0007113812F0E9471138F2D0E947113209753
:100AB00019F0CE010E94181488E40E9471138FE28D
:100AC00095E70197F1F700C00000DF91CF911F91EA
:100AD0000F91FF900C94261380E0DF91CF911F912E
:100AE0000F91FF900895CF93DF93EC010E9426139E
:100AF0008823E9F0209721F0CE010E94181403C04A
:100B00008CEC0E9471138EEB0E947113C8E6D4E046
:100B10000E948E13899384E0C137D807C9F769E032
:100B200070E088E694E00E94190591E0811190E060
:100B3000892FDF91CF910895E0916C04E295E695BD
:100B4000E370F0E0EE0FFF1FE85FFE4F6081718100
:100B5000809168049091690468237923882777FD40
:100B60008095982F0E94481620E030E040E85DE331
:100B70000E94D416089520982198289A299A0895B9
:100B800023B121701999226080919601982F93705A
:100B9000291781F034E0839FC0011124822B8093B8
:100BA0009601813E11F48FEF03C0823D19F481E07C
:100BB000809397010895809197011092970108956D
:100BC0004F925F926F927F92AF92BF92CF92DF92DD
:100BD000EF92FF920F931F93CF93DF93CDB7DEB7C2
:100BE00029013A01621B730B840B950B29893A8901
:100BF0004B895C892A193B094C095D09298B3A8B81
:100C00004B8B5C8B9B01AC0169897A898B899C89B0
:100C10000E943314E418F50806091709A801970182
:100C20000E9479142A0D3B1D4C1D5D1DCA01B9019E
:100C3000DF91CF911F910F91FF90EF90DF90CF90B8
:100C4000BF90AF907F906F905F904F9008954F92BC
:100C50005F926F927F92AF92BF92CF92DF92EF92AC
:100C6000FF920F931F93CF93DF93CDB7DEB72897F3
:100C70000FB6F894DEBF0FBECDBF29013A01ED8259
:100C8000FE820F8318870E94481569837A838B83BD
:100C90009C83A6019501698D7A8D8B8D9C8D0E9418
:100CA00048159B01AC0169817A818B819C810E94EE
:100CB000D41669837A838B839C83A3019201C80134
:100CC000B7010E9448159B01AC0169817A818B8133
:100CD0009C810E94AD15A60195010E944915289698
:100CE0000FB6F894DEBF0FBECDBFDF91CF911F913D
:100CF0000F91FF90EF90DF90CF90BF90AF907F90DB
:100D00006F905F904F90089520E732E143E85BE3F6
:100D10000E94D41620E030E040EA51E40E94AD1574
:100D200027E836E149E55DE30E94491508952F92D1
:100D30003F924F925F926F927F928F929F92AF926B
:100D4000BF92CF92DF92EF92FF920F931F93CF93B8
:100D5000DF93DC01C091BB01D091BC01FE01EE0F1D
:100D6000FF1FEB53FE4F208031809D0140E050E09B
:100D700060E070E080E090E05101C12CD12CE12CCA
:100D8000F12C00E010E00E943F15A090BD01B09052
:100D9000BE01C090BF01D090C001E090C101F090B1
:100DA000C2010091C3011091C4010E943615209325
:100DB000BD013093BE014093BF015093C0016093C9
:100DC000C1017093C2018093C3019093C401219625
:100DD000D093BC01C093BB01B183A083C115D140A6
:100DE00021F41092BC011092BB0108E00E941A1578
:100DF000C901DF91CF911F910F91FF90EF90DF908C
:100E0000CF90BF90AF909F908F907F906F905F90AA
:100E10004F903F902F9008950F931F93CF93DF93A0
:100E2000CDB7DEB72A970FB6F894DEBF0FBECDBFA1
:100E3000F8948FEF898720E08E01075F1F4F898527
:100E40008823D1F0211117C0BE016F5F7F4FC80109
:100E50002A870E94F31389858E5F2A85823060F08D
:100E6000FE013196A8E2B5E081918D93E017F1077C
:100E7000D9F721E0E4CF21E07894822F2A960FB6AB
:100E8000F894DEBF0FBECDBFDF91CF911F910F91C0
:100E90000895F8946091C90380E090E00E94711772
:100EA00046EB50E062E070E082E794E00E944F176A
:100EB000789408950E94A80480937104882321F0F7
:100EC0000E94A8048093340508950F931F939BE517
:100ED000899FF001112489E0689FE00DF11D112424
:100EE000EE58FB4F828193818C0120E030E06481D9
:100EF00075816115710561F046810E944314469F1A
:100F0000C001479F900D1124080F191F211D311D8D
:100F1000C901B8011F910F9108959BE5899FF001C8
:100F20001124EE58FB4FB081AF0120E030E0A0E08B
:100F300060E070E0CB01AB1771F0FA01E20FF31F34
:100F40000780F085E02D6E0F7F1F811D911DAF5F23
:100F5000275F3F4FF0CF0895AF92BF92CF92DF92BD
:100F6000EF92FF920F931F93CF93DF93E2E7F4E0AA
:100F7000119285E0E832F807D9F785E08093720492
:100F800092E0C92EC09273040CE211E01093750434
:100F900000937404CEE1D0E0D0937704C09376043C
:100FA000C092780460E080E00E94650770937A0444
:100FB000609379042BE4F22EF0927B04DD24D39429
:100FC000D0927C0410937E0400937D0410928004E0
:100FD00010927F041092810461E080E00E94650716
:100FE000709383046093820410928404C0928504F9
:100FF00038E5A32E32E0B32EB0928704A092860487
:10100000D0938904C0938804C0928A0462E080E08F
:101010000E94650770938C0460938B04F0928D049A
:10102000D0928E04B0929004A0928F0410929204F9
:10103000109291041092930463E080E00E9465078F
:10104000709395046093940410929604C092970450
:101050001093990400939804D0939B04C0939A042E
:10106000C0929C0464E080E00E94650770939E0437
:1010700060939D04F0929F0484E08093CD04C0921D
:10108000CE0444E1E42EF12CF092D004E092CF049F
:1010900005E010E01093D2040093D104C092D30471
:1010A00060E081E00E9465077093D5046093D404EA
:1010B00084E18093D604D092D704CAE0D0E0D093E4
:1010C000D904C093D8041092DB041092DA04109271
:1010D000DC0461E081E00E9465077093DE046093A8
:1010E000DD041092DF04C092E004F092E204E0928A
:1010F000E1041093E4040093E304C092E50462E089
:1011000081E00E9465077093E7046093E60480E540
:101110008093E804D092E904D093EB04C093EA04EE
:101120001092ED041092EC041092EE0463E081E062
:101130000E9465077093F0046093EF041092F1042D
:10114000DF91CF911F910F91FF90EF90DF90CF90A3
:10115000BF90AF9008958FEF8093C903E2E7F4E06A
:10116000819395E0E832F907D9F70895813051F479
:101170005C9A611102C05D9A07C0613031F45D98DC
:101180005E9A08955C985D985E9808952091350563
:1011900027FD09C09093CD038093CC0370E070933A
:1011A000330560933205089510928100089584E01C
:1011B0008093810008958091180190911901892BE5
:1011C00021F4809112018130D9F41092850010929F
:1011D00084001092800084E080938100109282004D
:1011E00081E19AE79093890080938800809135058A
:1011F000877F8093350561E088EC90E00C94C60809
:1012000008951F93CF93DF9310928500109284006E
:1012100010928000109281001092820060E080E0C5
:101220000E94B6081092CF03C5E3D5E018811E7F57
:1012300018838091CE030E948D076093D003709332
:10124000D1038093D2039093D303177F1883DF9148
:10125000CF911F91089580E480937C008FEC809360
:101260007A00089514BC84E085BD16BC81E387BD77
:101270000895CF93C82F853650F581110DC0109277
:10128000B0001092B400809136058B7F8D7F8093E3
:1012900036051092D40319C081E28093B00080918A
:1012A000360582FD04C08260809336050EC02C2F67
:1012B00030E0AFEFB0E00E94981424E630E040E068
:1012C00050E00E9479142093B4008C2F01C080E07C
:1012D000CF91089581E08093B1001092B3001092F5
:1012E000B40008951F920F920FB60F9211248F929F
:1012F0009F92AF92BF92CF92DF92EF92FF920F93A5
:101300001F932F933F934F935F936F937F938F938D
:101310009F93AF93BF93EF93FF93A091BA018090F7
:1013200078009090790028E0A29FF0011124E65502
:10133000FE4F940140E050E060E070E080E090E01B
:10134000A080B180C280D380E480F58006811781BF
:101350000E943615208331834283538364837583CF
:1013600086839783AF5FA093BA01A23009F06DC066
:101370001092BA018091A8019091A90101969093D1
:10138000A9018093A801883E934009F05EC01092A5
:10139000A9011092A8012091AA013091AB014091BE
:1013A000AC015091AD016091AE017091AF01E0EDE3
:1013B000AE2EF7E0BF2EC12CD12CE12CF12C00E099
:1013C00010E08091B0019091B1010E94BB14209374
:1013D000C5033093C6031092AA011092AB0110927C
:1013E000AC011092AD011092AE011092AF011092BB
:1013F000B0011092B1012091B2013091B30140913E
:10140000B4015091B5016091B6017091B701A8EE99
:10141000AA2EB3E0BB2E8091B8019091B9010E9431
:10142000BB142093C7033093C8031092B2011092EB
:10143000B3011092B4011092B5011092B60110924E
:10144000B7011092B8011092B9018091BA0180647D
:1014500080937C0080917A00806480937A00FF9171
:10146000EF91BF91AF919F918F917F916F915F911C
:101470004F913F912F911F910F91FF90EF90DF902F
:10148000CF90BF90AF909F908F900F900FBE0F9016
:101490001F9018951F920F920FB60F9211242F9341
:1014A0003F934F935F936F937F938F939F93AF93EC
:1014B000BF93CF93EF93FF9316BC0E94E6040E9464
:1014C000C0058091A6019091A7010196813722E085
:1014D000920729F09093A7018093A60109C010926A
:1014E000A7011092A6018091360581608093360590
:1014F000C0913605C1FF29C0A091D403BB27A7FD29
:10150000B0952FEF30E00E94A71424E630E040E0D1
:1015100050E00E9479142093B4008091A5018F5F60
:101520008093A501843189F41092A5018091D403A0
:101530008F5F8093D40390911301891306C010929A
:10154000D403CD7FC460C09336058091CA039091C7
:10155000CB03181619066CF401979093CB03809374
:10156000CA038032934029F48091350580628093CC
:1015700035058091320590913305892BD1F1809109
:10158000A3019091A40101969093A4018093A301DB
:101590002091CC033091CD038217930740F48091C2
:1015A000A1019091A201892B11F4429A22C0429884
:1015B0008091A1019091A20101969093A201809344
:1015C000A1012091CC033091CD038217930788F0BD
:1015D0001092A2011092A1011092A4011092A301F5
:1015E0008091320590913305019790933305809354
:1015F0003205FF91EF91CF91BF91AF919F918F9164
:101600007F916F915F914F913F912F910F900FBEFE
:101610000F901F9018951F920F920FB60F921124E2
:10162000EF92FF920F931F932F933F934F935F93EC
:101630006F937F938F939F93AF93BF93CF93DF93DA
:10164000EF93FF93109285001092840080913505EE
:1016500082FF17C08B7F809335051092A0011092F6
:101660009F0110929E0110929D0110929C01109278
:101670009B0182E090E09093110180931001109201
:101680009A0180911201823009F090C08091180176
:1016900090911901009709F46FC001979093190177
:1016A000809318018091100190911101029729F502
:1016B000809113010E94390960919B0181E00E9491
:1016C000B60880919D0190919E01019690939E0194
:1016D00080939D0120911601309117018217930785
:1016E00009F04AC010929E0110929D0181E090E0A5
:1016F00090931101809310013FC080E00E9439094E
:10170000C0919B01D0919C016C2F80E00E94B60893
:101710008091160190911701892B81F081E090E072
:10172000CD2B11F080E090E090939C0180939B0181
:1017300061E08EE190E00E94C60804C010929C0116
:1017400010929B0180919F019091A001019690932E
:10175000A00180939F0120911401309115018217FF
:10176000930751F482E090E090931101809310016F
:101770001092A00110929F0180911801909119017F
:10178000892BA1F41092A00110929F0110929E014A
:1017900010929D0110929C0110929B0182E090E0BA
:1017A00090931101809310010E9401092091120170
:1017B000213009F021C190913505892F86958695B4
:1017C0008695822780FB93F99093350510919A01B5
:1017D0002091CE030BE52003C0011124DC01AE589B
:1017E000BB4F2C91121708F0DFC0C12FD0E049E0A9
:1017F0004C9F70014D9FF00C1124D701A80FB91F09
:10180000AE58BB4F11962C91223009F07CC020912C
:1018100010013091110122303105A9F59E012F5F91
:101820003F4F429FD001439FB00D1124A80FB91F15
:10183000AE58BB4F8C910E9439098093130160917F
:101840009B0181E00E94B60880919D0190919E01CC
:10185000019690939E0180939D012091CE032003D9
:10186000F0011124EE0DFF1DEE58FB4F2481358150
:101870008217930709F05AC010929E0110929D01A1
:1018800081E090E03BC080E00E94390960E080E0A8
:101890000E94B60880919F019091A00101969093BB
:1018A000A00180939F012091CE032003F001112419
:1018B000EE0DFF1DEE58FB4F268130E08217930797
:1018C000A9F51092A00110929F0184819581892B26
:1018D00079F081E090E020919B0130919C01232BD5
:1018E00011F080E090E090939C0180939B0104C0F4
:1018F00010929C0110929B0182E090E09093110164
:101900008093100113C09E012F5F3F4F429FF00153
:10191000439FF00D1124E80FF91FEE58FB4F808113
:101920000E94390960E080E00E94B6088091980129
:10193000909199010196909399018093980120913B
:10194000CE0339E03C9FF0013D9FF00D11243BE5B3
:101950002302E00DF11D1124EE58FB4F2781308545
:101960008217930771F410929901109298011F5FEA
:1019700010939A011093CF0361E08EE190E00E94F2
:10198000C6088091D0039091D103A091D203B09169
:10199000D3030197A109B1098093D0039093D10398
:1019A000A093D203B093D303E091CE038BE5E8027A
:1019B000F0011124EE58FB4F90919A018081981309
:1019C0001BC01092A00110929F0110929E011092D4
:1019D0009D0110929C0110929B0182E090E09093F7
:1019E00011018093100110929A010E9401098091C7
:1019F0003505806180933505FF91EF91DF91CF919F
:101A0000BF91AF919F918F917F916F915F914F9116
:101A10003F912F911F910F91FF90EF900F900FBE6C
:101A20000F901F901895CF93DF93CDB7DEB72A970D
:101A30000FB6F894DEBF0FBECDBF87E00E945602FE
:101A40000E94BD040E94BB055F9917C068E080E258
:101A500091E00E948A015F9BFECF2FEF39E678E18B
:101A6000215030407040E1F700C0000080E00E944B
:101A700032020E94AB080E94490780E090E00E9479
:101A800047178093C90346EB50E062E070E082E7BD
:101A900094E00E9437178091C9038F3FC1F468E03A
:101AA00089E291E00E948A018FEF99E6E8E1815096
:101AB0009040E040E1F700C0000080E00E94320268
:101AC0008BE08093C9030E94AC070E94490768E03D
:101AD00082E391E00E948A016091C90370E080E096
:101AE00090E005E025E044E00E94F9020E94261300
:101AF0000E940C078983FFEF24E33CE0F150204073
:101B00003040E1F700C0000080E00E94320279819D
:101B100068E0772309F44CC08BE391E00E948A01CE
:101B2000E9818E2F90E0A0E0B0E000E021E041E00C
:101B3000BC01CD010E94F902FFEF24E33CE0F1502B
:101B400020403040E1F700C0000068E084E491E00C
:101B50000E948A017FEF84E39CE0715080409040B6
:101B6000E1F700C0000068E08DE491E00E948A0186
:101B700023E049E169E188E295E00E94320588E2CC
:101B800095E00E940005EFEFF9E628E1E150F04012
:101B90002040E1F700C0000088E295E00E94730554
:101BA0000E949C052B013C0180E00E94320224C06F
:101BB00084E491E00E948A013FEF74E38CE03150AD
:101BC00070408040E1F700C0000068E086E591E0E9
:101BD0000E948A019FEFE4E3FCE09150E040F04076
:101BE000E1F700C0000080E00E943202412C512C3D
:101BF00020EA622E21E4722E559A569A549A539AEC
:101C00003A9A0E9432090E946A090E942B0982E0D6
:101C100080936E0080936F0083E080931201809127
:101C200035058E7F8F7E80933505789480E00E9405
:101C3000390960E080E00E94B6088091350580682F
:101C40008093350561E08CE291E00E94C6088091A6
:101C5000CE030E948D076093D0037093D1038093CD
:101C6000D2039093D3032091350560317E408105E6
:101C7000910550F4277F209335051A8619E098EED8
:101C8000292E93E0392E4BC0822F88608093350532
:101C9000F4CF8F7E8093350568E08FE591E00E9458
:101CA0008A0163E088EC90E00E94C6087FEF89E635
:101CB00098E1715080409040E1F700C000008091B1
:101CC000350586FF05C08F7B809335050E94490747
:101CD00080E00E9432028091CE030E948D076093C3
:101CE000D0037093D1038093D2039093D3032091B8
:101CF000350560317E4081059105D8F4277F20931A
:101D00003505909171049130C9F0809112018230B3
:101D100009F436C2833009F4DFC2813029F10E9410
:101D20005A070E94DB05F82E8091350584FDB1CF5E
:101D3000E8CF822F886080933505E3CF809134050A
:101D4000843019F78091350580FDDFCF8091120135
:101D50008F5F843019F08093120102C090931201BA
:101D600080E00E943202D1CF68E088E691E00E94D4
:101D70008A018091350580FF02C007E001C000E0C4
:101D80006091CE03772767FD70956F5F7F4F88273F
:101D900077FD8095982F27E047E00E94F902809117
:101DA000350580FD06C066E082E491E00E948A016C
:101DB0000EC06091CF0370E06F5F7F4F882777FD83
:101DC0008095982F00E026E046E00E94F90280917D
:101DD000CA039091CB03892B09F061C06091D003B5
:101DE0007091D1038091D2039091D3036031FEE0D2
:101DF0007F078105910500F52CE330E040E050E0DD
:101E00000E945714CA01B90103E024E043E00E9494
:101E1000F9026091D0037091D1038091D203909127
:101E2000D3032CE330E040E050E00E94571422E05E
:101E300041E00E94F9022DC020E13EE040E050E088
:101E40000E945714CA01B90103E024E043E00E9454
:101E5000F9026091D0037091D1038091D2039091E7
:101E6000D3032CE330E040E050E00E945714CA0155
:101E7000B9016C5371098109910922E041E00E9486
:101E8000F9026091350563FB662760F981E00E94E5
:101E9000D103809135058F7D809335051CC08091DD
:101EA000CF0390E001962091CE03189FF001199F77
:101EB000F00D11243BE52303C0011124E80FF91FA5
:101EC000EE58FB4F608170E080E090E000E024E09D
:101ED00041E00E94F902809171048130E9F480911F
:101EE00034058530C9F48091350580FD07C08D7FAC
:101EF0008160809335050E94DB080EC081FD06C01D
:101F00008260809335051092810006C08D7F80939A
:101F1000350584E08093810080917104813009F05F
:101F200051C080913405843009F04CC08091350552
:101F300080FF48C08D7F8E7F809335050E94010908
:101F400080E00E94390980913505846080933505D1
:101F500068E08FE591E00E948A0163E088EC90E000
:101F60000E94C6087FEF89E698E17150804090405A
:101F7000E1F700C000008091350586FF05C08F7B2A
:101F8000809335050E94490780E00E9432028091CB
:101F9000CE030E948D076093D0037093D10380938A
:101FA000D2039093D3032091350560317E408105A3
:101FB000910520F4277F2093350504C0822F886087
:101FC0008093350540913505F1E040FD44C0FF1296
:101FD0001EC08091CE038F5F823019F08093CE03B4
:101FE00002C01092CE038091CE030E948D076093B1
:101FF000D0037093D1038093D2039093D3032091A5
:10200000350560317E408105910510F51DC07FEFDB
:10201000F71285CE8091CE03815087FD81E08093B9
:10202000CE038091CE030E948D076093D0037093FE
:10203000D1038093D2039093D3032091350560316F
:102040007E408105910520F4277F2093350567CEDA
:10205000822F88604AC0FF124BC06091CE0350911E
:10206000CF03252F30E07BE56703C0011124FC017D
:10207000159FE00DF11D1124EE58FB4F5181523098
:1020800009F04DCE2F5F3F4F129FF001139FF00DCF
:102090001124E80FF91FEE58FB4F00813092CB035B
:1020A0002092CA03043638F445FF05C081E0800F52
:1020B00080830E9439098091CF0390E0019620919E
:1020C000CE03189FF001199FF00D11243BE5230367
:1020D000C0011124E80FF91FEE58FB4F808108174B
:1020E00009F41DCE8091350580648093350517CEA7
:1020F0007FEFF71214CE6091CE035091CF03252FBE
:1021000030E07BE56703C0011124FC01159FE00D61
:10211000F11D1124EE58FB4F5181523009F0FFCDD3
:102120002F5F3F4F129FF001139FF00D1124E80F16
:10213000F91FEE58FB4FF0803092CB032092CA0378
:10214000FF2039F045FF05C08FEF8F0D80830E947F
:1021500039098091CF0390E001962091CE03189F1A
:10216000F001199FF00D11243BE52303C001112458
:10217000E80FF91FEE58FB4F8081F812B3CFCFCD97
:1021800068E086E791E00E948A0160911301772759
:1021900067FD7095872F972F00E023E041E00E94B4
:1021A000F9029091350571E0F71206C08091130194
:1021B00084367CF48F5F08C08FEFF8120AC08091DC
:1021C0001301181634F481508093130190FD0E947E
:1021D00039098091350580FD29C067E04A990CC016
:1021E0001C9B0AC08AE691E00E948A01809113013B
:1021F0000E94390960E00DC01C990DC04A9B0BC0BC
:102200008EE691E00E948A01809113010E943909B3
:1022100061E081E009C080E491E00E948A0180E0F1
:102220000E94390961E080E00E94B6088091710443
:10223000813001F5809134058530E1F480913505D8
:1022400080FD18C0E0E2FCE1F0931901E093180171
:102250002EE130E0309317012093160166E082E70B
:1022600091E00E948A010E94DB088091350581601F
:102270008093350580917104813009F050CD8091B3
:102280003405843009F04BCD8091350580FF47CD72
:102290008E7F8093350580E00E9439090E940109F4
:1022A0008091350584608093350568E08FE591E085
:1022B0000E948A0163E088EC90E00E94C6083FEF2C
:1022C00079E688E1315070408040E1F700C00000BD
:1022D00080E00E94320223CD8091C5039091C60315
:1022E000BC0180E090E00E9446162DE33AE04FE901
:1022F0005BE30E94D4164B015C016091C7037091AF
:10230000C80380E090E00E9446162DE33AE04FE9D2
:102310005BE30E94D4166A837B838C839D838091C8
:10232000360580FF27C09981992321F18E7F809304
:102330003605F89488E295E00E947305882329F019
:102340000E949C052B013C0107C01982412C512C95
:1023500080EA682E81E4782E88E295E00E940005EC
:10236000811107C01982412C512C00EA602E01E432
:10237000702E7894E1E0FE1206C0FA85FF5FFA87BE
:10238000F430CCF408C02FEFF21205C03A8531507A
:102390003A8737FDB3C07A85713009F477C01CF4F1
:1023A000772351F0BCCC8A85823009F492C0833007
:1023B00009F4A4C0B4CC1A8668E085E791E00E94D5
:1023C0008A0120E732E143E85BE3C301B2010E94E6
:1023D000D41620E030E040EA51E40E94AD1527E831
:1023E00036E149E55DE30E9449156B017C019B01E3
:1023F000AC0160E070E080E89FE30E94AD152CEB3B
:1024000034E743E95CE30E94D41626E636E646ED5F
:1024100050E40E9449156E837F83888799872A81BB
:102420003B814C815D81C501B4010E944815A70123
:1024300096010E9448154B015C01B7FAB094B7F8B9
:10244000B094A701960160E070E0CB010E944815AE
:102450009B01AC01C501B4010E94AD1520E030E044
:1024600040E85FE30E9449159B01AC016E817F81CA
:10247000888599850E94491520E030E048EC52E4B7
:102480000E94D4160E94151603E033C068E08DE563
:1024900091E00E948A01998167E0992319F082E412
:1024A00091E002C088E791E00E948A0161E08AE73A
:1024B00091E00E948A0120E030E040E251E4C30153
:1024C000B2010E94D4160E94151603E025E042E0F6
:1024D00012C068E08CE791E00E948A0120E030E0C1
:1024E0004AE754E4C501B4010E94D4160E941516AF
:1024F00004E025E041E00E94F90211CC68E08FE79A
:1025000091E00E948A0120E030E04AE754E46A81C9
:102510007B818C819D810E94D4160E94151604E057
:1025200025E041E00E94F902E3E0EA87F8CB0F934F
:102530001F93CF93DF93009711F481E090E02091F7
:102540001E0130911F012C5F3F4FA901495D53408F
:102550004438510514F029ED33E030931F012093E6
:102560001E01E0911E01F0911F019383828360811F
:10257000718120911A0130911B012E173F0721F420
:1025800070931B0160931A01A0911A01B0911B0175
:1025900041E250E02AE131E0E9010D911C911197EF
:1025A0000E171F0719F411967C936E9312960D91D6
:1025B0001C9113970817190740F48881998191831A
:1025C0008083F983E88380E090E0E9012881398104
:1025D000D3E0A53DBD0741F4F90182819381DF91EC
:1025E000CF911F910F910895CD91DC9111970881A2
:1025F00019810E171F0711F4798368830A811B81E3
:102600000817190748F48D919C9111979183808345
:10261000ED93FC9380E090E0A3E0C53DDA07E1F2A2
:10262000A881B981415051094115510509F0B5CF33
:10263000D3CF43983B9A0895089581110C941913B0
:1026400043983B98089586B1887008950E941913A5
:102650008FEB93E00197F1F700C0000080E00E944B
:102660001D1390EA9A95F1F786B1E7E4F3E031970C
:10267000F1F700C0000083FB882780F991E08927EB
:102680000895CF93DF931F92CDB7DEB789830E9461
:10269000191392E09A95F1F700C08981882319F007
:1026A00080E00E941D13E0EAEA95F1F780E00F90C8
:1026B000DF91CF910C941D130E94191382E08A952B
:1026C000F1F700C080E00E941D1395E29A95F1F7A2
:1026D000000086B198E79A95F1F783FB882780F987
:1026E0000895FF920F931F93CF93DF93F82EC0E0CE
:1026F000D0E001E010E0C8010C2E01C0880F0A9460
:10270000EAF78F210E9441132196C830D10599F72D
:10271000DF91CF911F910F91FF900895FF920F933A
:102720001F93CF93DF93C0E0D0E0F12C01E010E0E5
:102730000E945C13882339F098010C2E01C0220FEF
:102740000A94EAF7F22A2196C830D10589F78F2D2D
:10275000DF91CF911F910F91FF900895DF92EF923B
:10276000FF920F931F93CF93DF93E82EEB010E940C
:102770002613882369F180EF0E947113F12C10E475
:1027800088EFD82ED10E0E945C13082F0E945C1394
:10279000882319F0002361F01DC0011109C01E1526
:1027A00028F0888180FF04C0E11611F0F12E01E0CD
:1027B000802F0E944113988196950111906898830B
:1027C00011501D11E0CF21961111DACF8F2D03C0CA
:1027D0008FEF01C08EEFDF91CF911F910F91FF908E
:1027E000EF90DF900895CF93DF93EC0188810E94F2
:1027F000AE138883DF91CF9108950F931F93CF93EA
:10280000DF93182F092F0E942613882361F083E39A
:102810000E947113C12FD02F18E00E948E1389934C
:102820001150D9F781E0DF91CF911F910F91089559
:102830000F931F93CF93DF93182F092F0E94261316
:10284000882361F085E50E947113C12FD02F18E015
:1028500089910E9471131150D9F781E0DF91CF91D6
:102860001F910F910895DB018F939F930E94AE14E7
:10287000BF91AF91A29F800D911DA39F900DB29F1C
:10288000900D11240895AA1BBB1B51E107C0AA1F7C
:10289000BB1FA617B70710F0A61BB70B881F991F01
:1028A0005A95A9F780959095BC01CD010895A1E2B4
:1028B0001A2EAA1BBB1BFD010DC0AA1FBB1FEE1FBA
:1028C000FF1FA217B307E407F50720F0A21BB30B05
:1028D000E40BF50B661F771F881F991F1A9469F781
:1028E00060957095809590959B01AC01BD01CF01DD
:1028F0000895052E97FB1EF400940E94901457FD36
:1029000007D00E94571407FC03D04EF40C94901487
:1029100050954095309521953F4F4F4F5F4F08950B
:1029200090958095709561957F4F8F4F9F4F08953B
:10293000A29FB001B39FC001A39F700D811D112400
:10294000911DB29F700D811D1124911D08950E944B
:102950009814B7FF0895821B930B08950E94981452
:10296000A59F900DB49F900DA49F800D911D1124E3
:102970000895689401C0E8948F929F92CF93DF935B
:102980000E94C714DF91CF919F908F900895882463
:102990009924F401E401B0E49F93AA279A158B04CB
:1029A0009C04ED05FE05CF05D007A10798F4AD2FD7
:1029B000DC2FCF2FFE2FE92D982C892E982F872FD3
:1029C000762F652F542F432F322F2227B85031F7FF
:1029D000BF9127C01B2EBF91BB27220F331F441F5F
:1029E000551F661F771F881F991F881C991CEE1F93
:1029F000FF1FCC1FDD1FAA1FBB1F8A149B04EC0501
:102A0000FD05CE05DF05A007B10748F08A189B0831
:102A1000EC09FD09CE09DF09A00BB10B21601A9466
:102A2000E1F62EF49401AF01BE01CD01000C089532
:102A300097FB10F8169400080F93083098F0085090
:102A4000232F342F452F562F672F782F892F902D26
:102A5000F4CF059497958795779567955795479502
:102A6000379527950A95AAF70F9108952A0D3B1DD2
:102A70004C1D5D1D6E1D7F1D801F911F08952A191D
:102A80003B094C095D096E097F09800B910B089584
:102A90005058BB27AA270ED04DC13ED130F043D1AC
:102AA00020F031F49F3F11F41EF433C10EF4E09591
:102AB000E7FB29C1E92F4FD180F3BA1762077307EB
:102AC0008407950718F071F49EF567C10EF4E09540
:102AD0000B2EBA2FA02D0B01B90190010C01CA01D8
:102AE000A0011124FF27591B99F0593F50F4503E83
:102AF00068F11A16F040A22F232F342F4427585F75
:102B0000F3CF469537952795A795F0405395C9F78C
:102B10007EF41F16BA0B620B730B840BBAF0915044
:102B2000A1F0FF0FBB1F661F771F881FC2F70EC0E3
:102B3000BA0F621F731F841F48F4879577956795B6
:102B4000B795F7959E3F08F0B3CF9395880F08F09F
:102B50009927EE0F9795879508950CD0EBC0E3D099
:102B600040F0DAD030F021F45F3F19F0CCC05111C1
:102B700015C1CFC0F0D098F39923C9F35523B1F311
:102B8000951B550BBB27AA2762177307840738F0DC
:102B90009F5F5F4F220F331F441FAA1FA9F333D03B
:102BA0000E2E3AF0E0E830D091505040E695001CEF
:102BB000CAF729D0FE2F27D0660F771F881FBB1FAB
:102BC000261737074807AB07B0E809F0BB0B802D85
:102BD000BF01FF2793585F4F2AF09E3F510568F0D1
:102BE00092C0DCC05F3FECF3983EDCF386957795AE
:102BF0006795B795F7959F5FC9F7880F911D9695D3
:102C0000879597F90895E1E0660F771F881FBB1F2E
:102C1000621773078407BA0720F0621B730B840BDB
:102C2000BA0BEE1F88F7E095089504D06894B111AF
:102C3000B5C0089598D088F09F5790F0B92F992784
:102C4000B751A0F0D1F0660F771F881F991F1AF0B7
:102C5000BA95C9F712C0B13081F09FD0B1E00895A4
:102C60009CC0672F782F8827B85F39F0B93FCCF325
:102C7000869577956795B395D9F73EF490958095AD
:102C8000709561957F4F8F4F9F4F0895E89409C0CD
:102C900097FB3EF490958095709561957F4F8F4F8F
:102CA0009F4F9923A9F0F92F96E9BB279395F695A5
:102CB000879577956795B795F111F8CFFAF4BB0F23
:102CC00011F460FF1BC06F5F7F4F8F4F9F4F16C087
:102CD000882311F096E911C0772321F09EE8872F11
:102CE000762F05C0662371F096E8862F70E060E0CD
:102CF0002AF09A95660F771F881FDAF7880F969546
:102D0000879597F9089597F99F6780E870E060E0EC
:102D100008959FEF80EC089500240A941616170674
:102D200018060906089500240A94121613061406BC
:102D300005060895092E0394000C11F4882352F01F
:102D4000BB0F40F4BF2B11F460FF04C06F5F7F4FD7
:102D50008F4F9F4F089557FD9058440F551F59F0BE
:102D60005F3F71F04795880F97FB991F61F09F3F78
:102D700079F087950895121613061406551FF2CFA1
:102D80004695F1DF08C0161617061806991FF1CFF1
:102D900086957105610508940895E894BB27662718
:102DA0007727CB0197F908950BD0C4CFB5DF28F072
:102DB000BADF18F0952309F0A6CFABCF1124EECFE0
:102DC000CADFA0F3959FD1F3950F50E0551F629F86
:102DD000F001729FBB27F00DB11D639FAA27F00D74
:102DE000B11DAA1F649F6627B00DA11D661F829F9B
:102DF0002227B00DA11D621F739FB00DA11D621F80
:102E0000839FA00D611D221F749F3327A00D611D9C
:102E1000231F849F600D211D822F762F6A2F11247E
:102E20009F5750408AF0E1F088234AF0EE0FFF1FD1
:102E3000BB1F661F771F881F91505040A9F79E3F08
:102E4000510570F060CFAACF5F3FECF3983EDCF302
:102E5000869577956795B795F795E7959F5FC1F745
:102E6000FE2B880F911D9695879597F90895DC01A3
:102E7000CB01FC01F999FECF06C0F2BDE1BDF89A85
:102E8000319600B40D9241505040B8F70895F99929
:102E9000FECF92BD81BDF89A992780B50895DC01D7
:102EA000A40FB51F4150504048F0CB01840F951F2F
:102EB0002E910E94601741505040D0F70895262F60
:102EC000F999FECF92BD81BDF89A019700B4021620
:102ED00039F01FBA20BD0FB6F894FA9AF99A0FBECE
:102EE0000895262FF999FECF1FBA92BD81BD20BD4E
:102EF0000FB6F894FA9AF99A0FBE01960895F894CD
:022F0000FFCF01
:102F0200FFFFFFFFFFFFFFFFF8FFFCFFFEFFFFFFDA
:102F12000200013205000F00201CD5030000D90376
:102F22002D2D496E69742D2D0050726F47496E69BF
:102F320074002D2D202020202D2D0046696E642046
:102F42002020200064532031386232300020205388
:102F5200456E532020004953204641754C74002D84
:102F62002D53746F502D2D0050002D462D002D72C3
:102F72002D00456E0050480063002A00554500555B
:022F82006F00DE
:00000001FF
