:100000000C945B000C9478000C9478000C947800AD
:100010000C9478000C9478000C9478000C94780080
:100020000C9478000C9478000C9478000C94FB0AE3
:100030000C9478000C9478000C943A0A0C94780094
:100040000C9478000C9478000C9478000C94780050
:100050000C9478000C946F090C9478000C94780040
:100060000C9478000C9478002D013D092A635F08F8
:100070002000307E3130326D33793433355B365F7A
:100080003770387F397B41774647621F553E751C74
:10009000535B49306910740F4837454F4C0E720559
:1000A0004F7E6F1D5067434E475E630D6E15643D76
:1000B0006817593B000011241FBECFEFD8E0DEBF08
:1000C000CDBF11E0A0E0B1E0E0E5FFE202C00590A5
:1000D0000D92A238B107D9F724E0A2E8B1E001C03F
:1000E0001D92AC32B207E1F70E94FF0C0C94A617E8
:1000F0000C9400002A9A2C9A8CE284B91CBC83E5EB
:100100008CBD1DBC1DBC0895CF93DF93CDB7DEB76A
:1001100028970FB6F894DEBF0FBECDBF1816C4F0F7
:10012000880F990B19821A82FE01E80FF91F62836A
:10013000FE01E80FF91F41832A988A818EBD0DB414
:1001400007FEFDCF89818EBD0DB407FEFDCF2A9A33
:1001500028960FB6F894DEBF0FBECDBFDF91CF91CA
:1001600008952F923F924F925F926F927F928F925B
:100170009F92AF92BF92CF92DF92EF92FF920F9336
:100180001F93CF93DF9300D000D000D0CDB7DEB760
:100190006B017C0197FF10C0CB0177FF04C088275B
:1001A00099278C199D09AA2797FDA095BA2F8983B5
:1001B0009A83AB83BC8304C069837A838B839C83DB
:1001C000842E912C540122242394822F90E09E832C
:1001D0008D839AE0492E512C612C712C10E08D8179
:1001E0009E818A159B050CF45CC069817A818B81A4
:1001F0009C81A30192010E947814672B682B692BC4
:10020000B9F489819A81AB81BC810A97A105B105B6
:100210007CF4A114B10461F0A016B106B4F0C114CD
:10022000D104E104F10471F4A814B90459F40DC027
:1002300069817A818B819C81A30192010E9478144B
:10024000362E04C08FE0382E01C0312CF501EB5A58
:10025000FC4F308269817A818B819C81A30192015C
:100260000E94781429833A834B835C839FEFA91AF9
:10027000B90AC5018B5A9C4FFC013197232DA0165A
:10028000B10611F4206801C02F77208389819A81FB
:10029000AB81BC81892B8A2B8B2B09F4A0CF2394B3
:1002A0009ECFF7FE09C0F401EB5AFC4FE20DF11DA1
:1002B00027FCFA958AE08083822D26960FB6F89463
:1002C000DEBF0FBECDBFDF91CF911F910F91FF9089
:1002D000EF90DF90CF90BF90AF909F908F907F90E6
:1002E0006F905F904F903F902F9008951F93CF9302
:1002F000DF9381110BC0C5E5D3E011E04991612F77
:1003000080E00E9484001F5F1930C1F7DF91CF9118
:100310001F910895AF92BF92CF92DF92EF92FF921A
:100320000F931F93CF93DF93A62F69300CF08FC0EC
:10033000662309F48CC0FC0101900020E9F7319795
:10034000E81BF90BB62FBE1BE62FFF27E7FDF09544
:10035000C12CD12C7601C3942B2F30E02E173F07F0
:10036000A4F5A0900001B0900101D0910201C091CC
:1003700003012091040120910501209106012091A3
:100380000701970186010B2E04C0000F111F221FC9
:10039000331F0A94D2F70095109520953095A0222E
:1003A000B122D223C323A0920001B0920101D093C5
:1003B0000201C093030110920401109205011092F2
:1003C000060110920701BF5FC7CF2FEF2A0FEC0184
:1003D0002830E0F449914423C9F030E0A22FB0E086
:1003E000AB5ABC4F832F90E0FC01E859FF4F54916A
:1003F000552351F0E4914E1305C0FC01E759FF4F1E
:1004000084918C933E5FEECF2150E2CF409100016A
:10041000809101018091020180910301809104018A
:1004200080910501809106018091070169E080E0DB
:100430000E94840080E0DF91CF911F910F91FF9087
:10044000EF90DF90CF90BF90AF900C947601DF914A
:10045000CF911F910F91FF90EF90DF90CF90BF90C1
:10046000AF900895811121C08FEF80930001809398
:100470000101809302018093030180930401809322
:10048000050180930601809307014FEF69E080E04A
:100490000E948400E5E5F3E08FE0819393E0ED3581
:1004A000F907D9F780E00C9476010895CF93C82F0F
:1004B000803108F0C5E00E947A0040E06FE080E003
:1004C0000E94840047E06BE080E00E9484004C2F93
:1004D0006AE080E00E94840080E00E94320241E0F5
:1004E0006CE080E0CF910C9484008F929F92AF9249
:1004F000BF92CF92DF92EF92FF920F931F93CF9311
:10050000DF936A017B01811167C0293008F064C064
:10051000022F27E040E0C701B6010E94B100E0E0F1
:10052000F0E090E0C12CD12C7601C394E817F907D4
:1005300084F5D0910001C0910101B0910201A09118
:1005400003018090040190900501A0900601B090F5
:100550000701970186010E2E04C0000F111F221FF4
:10056000331F0A94D2F7D02BC12BB22BA32BD093DD
:100570000001C0930101B0930201A0930301809296
:10058000040190920501A0920601B09207013196F4
:10059000CDCF4091000180910101809102018091B5
:1005A00003018091040180910501809106018091F1
:1005B000070169E080E00E94840080E0DF91CF9134
:1005C0001F910F91FF90EF90DF90CF90BF90AF9071
:1005D0009F908F900C947601DF91CF911F910F9196
:1005E000FF90EF90DF90CF90BF90AF909F908F9053
:1005F00008952F923F924F925F926F927F928F92C7
:100600009F92AF92BF92CF92DF92EF92FF920F93A1
:100610001F93CF93DF93CDB7DEB763970FB6F894F0
:10062000DEBF0FBECDBF442309F4A2C0293008F0BD
:100630009FC0093008F09CC0212C312CE42EF12CF5
:10064000D7011197B88BAF87F7013297FA87E987FF
:10065000422E512C5A8A498AEF84F888E20CF31C06
:100660003FEF231A330AE985FA85E20DF31DA989C4
:10067000BA89EA17FB070CF048C0509000015E866B
:10068000109101015091020130910301A0910401E8
:10069000B0910501609006016B8A709007017D861C
:1006A000812C912C5401839404C0880C991CAA1CA1
:1006B000BB1CEA94D2F77501640124013501812C39
:1006C000912C5401C9825A826B827C828D829E82D7
:1006D000AF82B8865E8454286A8016297B805729A9
:1006E0008C8038295092000110930101509302012F
:1006F00030930301A0930401B09305019B8890926D
:100700000601AD84A0920701A7CF215041500E945D
:10071000B10040910001809101018091020180911E
:10072000030180910401809105018091060180916F
:10073000070169E080E00E94840080E063960FB6C4
:10074000F894DEBF0FBECDBFDF91CF911F910F9107
:10075000FF90EF90DF90CF90BF90AF909F908F90E1
:100760007F906F905F904F903F902F900C94760108
:1007700063960FB6F894DEBF0FBECDBFDF91CF9169
:100780001F910F91FF90EF90DF90CF90BF90AF90AF
:100790009F908F907F906F905F904F903F902F90A1
:1007A0000895893070F4E82FF0E0EC5AFC4F808116
:1007B00060FD05C08F77808380E00C9476018068AF
:1007C000FACF089581111CC0E5E5F3E080E090E0E8
:1007D00070E09B01082E02C0359527950A94E2F738
:1007E00020FD03C020812F7702C020812068208354
:1007F000019631968830910561F780E00C9476017E
:100800000895462F811105C0603118F46AE00C94F8
:100810008400089520918201223078F4909184011F
:10082000E92FF0E0EB57FE4F80832F5F209382018A
:1008300081E0890F8170809384010895EF92FF9287
:100840000F931F93CF93DF9300D0CDB7DEB72FEF79
:10085000260F30E0A90149575E4F7A01FA01408125
:10086000F901E557FE4F908190938A018901000FAD
:10087000111FD801A057BE4F2D913C9130938F018D
:1008800020938E018823B1F0253F51E0350798F57C
:100890002F5F3F4F30938F0120938E012A31310516
:1008A00050F14160253F314031F541FD24C04B7F7F
:1008B000426021C040FF0AC041FD08C042FF03C0A2
:1008C0004B7F95E004C010928A01446090E042FFA3
:1008D00008C080918A01893C20F010928A014B7FE8
:1008E00093E040FF02C041FD94E010928F0110920E
:1008F0008E014C7F01C090E042FF07C080918A01C9
:10090000893C18F48F5F80938A0180918A018083EB
:10091000992351F0862F4A8399830E940A04998172
:10092000892F0E940A044A81F801E057FE4F809106
:100930008E0190918F0191838083F70140830F9006
:100940000F90DF91CF911F910F91FF90EF9008953D
:1009500020918201222379F090918301E92FF0E028
:10096000EB57FE4F80812150209382019F5F917051
:1009700090938301089580E0089510929101109260
:1009800090011092870110928B01109293011092A6
:1009900092011092880110928C0110929501109290
:1009A00094011092890110928D011092850110928C
:1009B000860110928401109283011092820157984F
:1009C0005F9A52985A9A24982C9A0895CF9389B195
:1009D000809561E0881F8827881F0E941E0489B1C6
:1009E000C1E082FB882780F962E08C270E941E0408
:1009F00083B18295817063E08C27CF910C941E04A3
:100A0000CF93DF93EC010E942513882371F0209788
:100A100021F0CE010E94171403C08CEC0E947013C9
:100A200084E40E94701381E001C080E0DF91CF91E7
:100A30000895FC01680F791F80E048E1E617F70789
:100A400081F0219198E0322F3827532F517030FDDB
:100A500084278695513009F480682695915099F73E
:100A6000EDCF0895FF920F931F93CF93DF93EC0187
:100A7000162F042FF22E0E942513882369F1209748
:100A800019F0CE010E94171480E2F89E9001112403
:100A9000922F9F61F92E8EE40E947013802F0E9486
:100AA0007013812F0E9470138F2D0E947013209756
:100AB00019F0CE010E94171488E40E9470138FE28F
:100AC00095E70197F1F700C00000DF91CF911F91EA
:100AD0000F91FF900C94251380E0DF91CF911F912F
:100AE0000F91FF900895CF93DF93EC010E9425139F
:100AF0008823E9F0209721F0CE010E94171403C04B
:100B00008CEC0E9470138EEB0E947013CDE5D3E045
:100B10000E948D13899383E0C636D807C9F769E030
:100B200070E08DE593E00E94190591E0811190E05D
:100B3000892FDF91CF910895E0916103E295E695C9
:100B4000E370F0E0EE0FFF1FE85FFE4F6081718100
:100B500080915D0390915E0368237923882777FD58
:100B60008095982F0E944B1620E030E040E85DE32E
:100B70000E94FB16089520982198289A299A089592
:100B800023B121701999226080919601982F93705A
:100B9000291781F034E0839FC0011124822B8093B8
:100BA0009601813E11F48FEF03C0823D19F481E07C
:100BB000809397010895809197011092970108956D
:100BC0001092B0001092B400EBE2F4E080818B7FD1
:100BD0008D7F80831092C90208954F925F926F9229
:100BE0007F92AF92BF92CF92DF92EF92FF920F93DC
:100BF0001F93CF93DF93CDB7DEB729013A01621B74
:100C0000730B840B950B29893A894B895C892A19C6
:100C10003B094C095D09298B3A8B4B8B5C8B9B0103
:100C2000AC0169897A898B899C890E943214E41805
:100C3000F50806091709A80197010E9478142A0DE2
:100C40003B1D4C1D5D1DCA01B901DF91CF911F9164
:100C50000F91FF90EF90DF90CF90BF90AF907F907B
:100C60006F905F904F9008954F925F926F927F9236
:100C7000AF92BF92CF92DF92EF92FF920F931F93AA
:100C8000CF93DF93CDB7DEB728970FB6F894DEBFCA
:100C90000FBECDBF29013A01ED82FE820F83188776
:100CA0000E94471569837A838B839C83A6019501F3
:100CB000698D7A8D8B8D9C8D0E9447159B01AC01AF
:100CC00069817A818B819C810E94FB1669837A837A
:100CD0008B839C83A3019201C801B7010E94471531
:100CE0009B01AC0169817A818B819C810E94B01546
:100CF000A60195010E94481528960FB6F894DEBF0C
:100D00000FBECDBFDF91CF911F910F91FF90EF905C
:100D1000DF90CF90BF90AF907F906F905F904F909B
:100D2000089520E732E143E85BE30E94FB1620E0F0
:100D300030E040EA51E40E94B01527E836E149E589
:100D40005DE30E94481508952F923F924F925F9263
:100D50006F927F928F929F92AF92BF92CF92DF92CB
:100D6000EF92FF920F931F93CF93DF93DC01C0911B
:100D7000B201D091B301FE01EE0FFF1FE454FE4F0C
:100D8000208031809D0140E050E060E070E080E034
:100D900090E05101C12CD12CE12CF12C00E010E0AD
:100DA0000E943E15A090B401B090B501C090B6016C
:100DB000D090B701E090B801F090B9010091BA016C
:100DC0001091BB010E9435152093B4013093B501F9
:100DD0004093B6015093B7016093B8017093B90185
:100DE0008093BA019093BB012196D093B301C09335
:100DF000B201B183A083C038D10521F41092B301B0
:100E00001092B20107E00E941915C901DF91CF913C
:100E10001F910F91FF90EF90DF90CF90BF90AF9018
:100E20009F908F907F906F905F904F903F902F900A
:100E300008950F931F93CF93DF93CDB7DEB72A9713
:100E40000FB6F894DEBF0FBECDBFF8948FEF898741
:100E500020E08E01075F1F4F89858823D1F0211183
:100E600017C0BE016F5F7F4FC8012A870E94F2132F
:100E700089858E5F2A85823060F0FE013196ADE172
:100E8000B4E081918D93E017F107D9F721E0E4CF29
:100E900021E07894822F2A960FB6F894DEBF0FBE19
:100EA000CDBFDF91CF911F910F910895F89460917C
:100EB000BE0280E090E00E94981746EB50E062E0AE
:100EC00070E087E693E00E947617789408950E9478
:100ED000A80480936603882321F00E94A8048093CD
:100EE000290408950F931F939BE5899FF001112416
:100EF00089E0689FE00DF11D1124E959FC4F8281C2
:100F000093818C0120E030E0648175816115710569
:100F100061F046810E944214469FC001479F900D98
:100F20001124080F191F211D311DC901B8011F917E
:100F30000F9108959BE5899FF0011124E959FC4F19
:100F4000B081AF0120E030E0A0E060E070E0CB01D4
:100F5000AB1771F0FA01E20FF31F0780F085E02D67
:100F60006E0F7F1F811D911DAF5F275F3F4FF0CF39
:100F70000895AF92BF92CF92DF92EF92FF920F93BC
:100F80001F93CF93DF93E7E6F3E0119284E0ED3116
:100F9000F807D9F785E08093670392E0C92EC092E5
:100FA00068030CE211E010936A0300936903CEE139
:100FB000D0E0D0936C03C0936B03C0926D0360E0EC
:100FC00080E00E94720770936F0360936E032BE4BE
:100FD000F22EF0927003DD24D394D092710310931B
:100FE00073030093720310927503109274031092AE
:100FF000760361E080E00E9472077093780360934B
:10100000770310927903C0927A0338E5A32E32E079
:10101000B32EB0927C03A0927B03D0937E03C09347
:101020007D03C0927F0362E080E00E9472077093AC
:10103000810360938003F0928203D0928303B09285
:101040008503A09284031092870310928603109266
:10105000880363E080E00E94720770938A036093C4
:10106000890310928B03C0928C0310938E0300931C
:101070008D03D0939003C0938F03C092910364E0DB
:1010800080E00E9472077093930360939203F09242
:10109000940384E08093C203C092C30344E1E42E2E
:1010A000F12CF092C503E092C40305E010E0109328
:1010B000C7030093C603C092C80360E081E00E94AA
:1010C00072077093CA036093C90384E18093CB03D2
:1010D000D092CC03CAE0D0E0D093CE03C093CD032E
:1010E0001092D0031092CF031092D10361E081E0FF
:1010F0000E9472077093D3036093D2031092D403BB
:10110000C092D503F092D703E092D6031093D9038F
:101110000093D803C092DA0362E081E00E94720774
:101120007093DC036093DB0380E58093DD03D09252
:10113000DE03D093E003C093DF031092E20310922A
:10114000E1031092E30363E081E00E947207709371
:10115000E5036093E4031092E603DF91CF911F91C2
:101160000F91FF90EF90DF90CF90BF90AF900895D8
:101170008FEF8093BE02E7E6F3E0819394E0ED31D8
:10118000F907D9F70895813051F45C9A611102C0D2
:101190005D9A07C0613031F45D985E9A08955C985D
:1011A0005D985E98089520912A0427FD09C09093C8
:1011B000C2028093C10270E07093280460932704F8
:1011C000089510928100089584E08093810008952D
:1011D0008091180190911901892B21F480911201BD
:1011E0008130D9F410928500109284001092800012
:1011F00084E0809381001092820081E19AE79093CD
:1012000089008093880080912A04877F80932A0434
:1012100061E088EC90E00C94D30808951F93CF937D
:10122000DF9310928500109284001092800010923B
:1012300081001092820060E080E00E94C30810925A
:10124000C402CAE2D4E018811E7F18838091C302D1
:101250000E949A076093C5027093C6028093C702EA
:101260009093C802177F1883DF91CF911F91089543
:1012700080E480937C008FEC80937A00089514BC06
:1012800084E085BD16BC81E387BD08958536F0F402
:10129000811102C00C94E00591E29093B00090910E
:1012A0002B0492FD05C0892F826080932B04089542
:1012B000282F30E0AFEFB0E00E94971424E630E032
:1012C00040E050E00E9478142093B400089581E03B
:1012D0008093B1001092B3001092B40008951F9251
:1012E0000F920FB60F9211248F929F92AF92BF92DE
:1012F000CF92DF92EF92FF920F931F932F933F9322
:101300004F935F936F937F938F939F93AF93BF930D
:10131000CF93DF93EF93FF939090B10191100CC0A6
:1013200080917800909179000E94A4069093BD026C
:101330008093BC0284E070C081E098126AC0809003
:10134000B00189E0881568F180917800909179006A
:101350009C0140E050E060E070E080E090E0A09010
:10136000A801B090A901C090AA01D090AB01E09073
:10137000AC01F090AD010091AE011091AF010E945F
:1013800035152093A8013093A9014093AA015093E9
:10139000AB016093AC017093AD018093AE0190936B
:1013A000AF0181E0880D8093B0018A30A1F52091D2
:1013B000A8013091A9014091AA015091AB0160911F
:1013C000AC017091AD01EAE0AE2EB12CC12CD12C54
:1013D000E12CF12C00E010E08091AE019091AF0182
:1013E0000E94BA1420932504309326041092B00171
:1013F0001092A8011092A9011092AA011092AB01BB
:101400001092AC011092AD011092AE011092AF019A
:1014100002C080E001C081E091E0990D923019F0A6
:101420009093B10102C01092B101806480937C005E
:1014300080917A00806480937A00FF91EF91DF9130
:10144000CF91BF91AF919F918F917F916F915F915C
:101450004F913F912F911F910F91FF90EF90DF904F
:10146000CF90BF90AF909F908F900F900FBE0F9036
:101470001F9018951F920F920FB60F9211242F9361
:101480003F934F935F936F937F938F939F93AF930C
:10149000BF93CF93EF93FF9316BC0E94E6040E9484
:1014A000C0058091A6019091A7010196813722E0A5
:1014B000920729F09093A7018093A60109C010928A
:1014C000A7011092A60180912B04816080932B04C8
:1014D000C0912B04C1FF29C0A091C902BB27A7FD61
:1014E000B0952FEF30E00E94A61424E630E040E0F3
:1014F00050E00E9478142093B4008091A5018F5F82
:101500008093A501843189F41092A5018091C902CC
:101510008F5F8093C90290911301891306C01092C6
:10152000C902CD7FC460C0932B048091BF0290910B
:10153000C002181619066CF401979093C0028093AC
:10154000BF028032934029F480912A048062809304
:101550002A048091270490912804892BD1F180914D
:10156000A3019091A40101969093A4018093A301FB
:101570002091C1023091C2028217930740F48091FA
:10158000A1019091A201892B11F4429A22C04298A4
:101590008091A1019091A20101969093A201809364
:1015A000A1012091C1023091C2028217930788F0F5
:1015B0001092A2011092A1011092A4011092A30115
:1015C0008091270490912804019790932804809398
:1015D0002704FF91EF91CF91BF91AF919F918F9190
:1015E0007F916F915F914F913F912F910F900FBE1F
:1015F0000F901F9018951F920F920FB60F92112403
:10160000EF92FF920F931F932F933F934F935F930C
:101610006F937F938F939F93AF93BF93CF93DF93FA
:10162000EF93FF93109285001092840080912A041A
:1016300082FF17C08B7F80932A041092A001109222
:101640009F0110929E0110929D0110929C01109298
:101650009B0182E090E09093110180931001109221
:101660009A0180911201823009F08FC08091180197
:1016700090911901009709F46EC001979093190198
:10168000809318018091100190911101029729F522
:10169000809113010E94460960919B0181E00E94A4
:1016A000C30880919D0190919E01019690939E01A7
:1016B00080939D01209116013091170182179307A5
:1016C00009F049C010929E0110929D0181E090E0C6
:1016D00090931101809310013EC00E94E005C091DB
:1016E0009B01D0919C016C2F80E00E94C3088091E7
:1016F000160190911701892B81F081E090E0CD2BAC
:1017000011F080E090E090939C0180939B0161E058
:101710008EE190E00E94D30804C010929C011092C8
:101720009B0180919F019091A00101969093A0014F
:1017300080939F0120911401309115018217930726
:1017400051F482E090E09093110180931001109287
:10175000A00110929F018091180190911901892B8D
:10176000A1F41092A00110929F0110929E0110927C
:101770009D0110929C0110929B0182E090E0909359
:101780001101809310010E940E0920911201213055
:1017900009F01EC190912A04892F86958695869519
:1017A000822780FB93F990932A0410919A0120914B
:1017B000C3020BE52003C0011124DC01A959BC4F71
:1017C0002C91121708F0DCC0C12FD0E049E04C9FEB
:1017D00070014D9FF00C1124D701A80FB91FA95912
:1017E000BC4F11962C91223009F079C02091100144
:1017F000309111012230310599F59E012F5F3F4F45
:10180000429FD001439FB00D1124A80FB91FA959C1
:10181000BC4F8C910E94460960919B0181E00E941F
:10182000C30880919D0190919E01019690939E0125
:1018300080939D012091C3022003F0011124EE0D3D
:10184000FF1DE959FC4F248135818217930709F068
:1018500059C010929E0110929D0181E090E03AC023
:101860000E94E00560E080E00E94C30880919F0133
:101870009091A00101969093A00180939F012091E7
:10188000C3022003F0011124EE0DFF1DE959FC4FA6
:10189000268130E082179307A9F51092A0011092DB
:1018A0009F0184819581892B79F081E090E02091DE
:1018B0009B0130919C01232B11F080E090E09093EC
:1018C0009C0180939B0104C010929C0110929B018B
:1018D00082E090E0909311018093100113C09E016B
:1018E0002F5F3F4F429FF001439FF00D1124E80FFF
:1018F000F91FE959FC4F80810E94460960E080E0B1
:101900000E94C3088091980190919901019690934B
:101910009901809398012091C30239E03C9FF00126
:101920003D9FF00D11243BE52302E00DF11D112434
:10193000E959FC4F278130858217930771F4109283
:101940009901109298011F5F10939A011093C4029D
:1019500061E08EE190E00E94D3088091C5029091F1
:10196000C602A091C702B091C8020197A109B109AE
:101970008093C5029093C602A093C702B093C80299
:10198000E091C3028BE5E802F0011124E959FC4F14
:1019900090919A01808198131BC01092A00110921F
:1019A0009F0110929E0110929D0110929C01109235
:1019B0009B0182E090E090931101809310011092BE
:1019C0009A010E940E0980912A04806180932A0462
:1019D000FF91EF91DF91CF91BF91AF919F918F9147
:1019E0007F916F915F914F913F912F911F910F9137
:1019F000FF90EF900F900FBE0F901F901895CF9310
:101A0000DF93CDB7DEB72A970FB6F894DEBF0FBECF
:101A1000CDBF87E00E9456020E94BD040E94BB0514
:101A20005F9917C068E080E291E00E948A015F9BA5
:101A3000FECF2FEF39E678E1215030407040E1F7DA
:101A400000C0000080E00E9432020E94B8080E949C
:101A5000560780E090E00E946E178093BE0246EB2E
:101A600050E062E070E087E693E00E945E178091AC
:101A7000BE028F3FC1F468E089E291E00E948A01D2
:101A80008FEF99E6E8E181509040E040E1F700C037
:101A9000000080E00E9432028BE08093BE020E9430
:101AA000B9070E94560768E082E391E00E948A012C
:101AB0006091BE0270E080E090E005E025E044E047
:101AC0000E94F9020E9425130E9419078983FFEFE3
:101AD00024E33CE0F15020403040E1F700C000003A
:101AE00080E00E943202798168E0772309F44CC0DB
:101AF0008BE391E00E948A01E9818E2F90E0A0E0C3
:101B0000B0E000E021E041E0BC01CD010E94F9021B
:101B1000FFEF29E638E1F15020403040E1F700C006
:101B2000000068E084E491E00E948A017FEF89E68A
:101B300098E1715080409040E1F700C0000068E0FB
:101B40008DE491E00E948A0123E049E169E18DE1A1
:101B500094E00E9432058DE194E00E940005EFEFD1
:101B6000F9E628E1E150F0402040E1F700C0000034
:101B70008DE194E00E9473050E949C054B015C017D
:101B800080E00E94320224C084E491E00E948A0135
:101B90003FEF79E688E1315070408040E1F700C0C6
:101BA000000068E086E591E00E948A019FEFE9E687
:101BB000F8E19150E040F040E1F700C0000080E023
:101BC0000E943202812C912C10EAA12E11E4B12E38
:101BD000559A569A549A539A3A9A0E943F090E94EB
:101BE00067090E94380982E080936E0080936F003D
:101BF00081E08093120180912A048E7F8F7E8093F2
:101C00002A0478940E94E00560E080E00E94C30806
:101C100080912A04806880932A0461E08CE291E03C
:101C20000E94D3088091C3020E949A076093C50264
:101C30007093C6028093C7029093C80220912A0431
:101C400060317E408105910550F4277F20932A045E
:101C50001A8619E0B8EE2B2EB3E03B2E4BC0822F34
:101C6000886080932A04F4CF8F7E80932A0468E0F2
:101C70008FE591E00E948A0163E088EC90E00E9489
:101C8000D3087FEF89E698E1715080409040E1F7FA
:101C900000C0000080912A0486FF05C08F7B8093DE
:101CA0002A040E94560780E00E9432028091C302FB
:101CB0000E949A076093C5027093C6028093C70280
:101CC0009093C80220912A0460317E4081059105DD
:101CD000D8F4277F20932A04909166039130C9F0AD
:101CE00080911201823009F436C2833009F4DDC2DA
:101CF000813029F10E9467070E94DB058A83809169
:101D00002A0484FDB1CFE8CF822F886080932A0413
:101D1000E3CF80912904843019F780912A0480FD53
:101D2000DFCF809112018F5F843019F08093120110
:101D300002C09093120180E00E943202D1CF68E08D
:101D400088E691E00E948A0180912A0480FF02C007
:101D500007E001C000E06091C302772767FD70953E
:101D60006F5F7F4F882777FD8095982F27E047E0AA
:101D70000E94F90280912A0480FD06C066E082E498
:101D800091E00E948A010EC06091C40270E06F5F12
:101D90007F4F882777FD8095982F00E026E046E06A
:101DA0000E94F9028091BF029091C002892B09F034
:101DB00061C06091C5027091C6028091C702909186
:101DC000C8026031FEE07F078105910500F52CE334
:101DD00030E040E050E00E945614CA01B90103E02F
:101DE00024E043E00E94F9026091C5027091C602AE
:101DF0008091C7029091C8022CE330E040E050E0AF
:101E00000E94561422E041E00E94F9022DC020E118
:101E10003EE040E050E00E945614CA01B90103E0E0
:101E200024E043E00E94F9026091C5027091C6026D
:101E30008091C7029091C8022CE330E040E050E06E
:101E40000E945614CA01B9016C53710981099109A4
:101E500022E041E00E94F90260912A0463FB6627B8
:101E600060F981E00E94D10380912A048F7D8093E4
:101E70002A041CC08091C40290E001962091C30204
:101E8000189FF001199FF00D11243BE52303C001B9
:101E90001124E80FF91FE959FC4F608170E080E0E0
:101EA00090E000E024E041E00E94F90280916603A6
:101EB0008130E9F4809129048530C9F480912A04A5
:101EC00080FD07C08D7F816080932A040E94E8080E
:101ED0000EC081FD06C0826080932A0410928100AA
:101EE00006C08D7F80932A0484E0809381008091D6
:101EF0006603813009F04EC080912904843009F0D6
:101F000049C080912A0480FF45C08D7F8E7F8093D9
:101F10002A040E940E0980912A04846080932A0476
:101F200068E08FE591E00E948A0163E088EC90E030
:101F30000E94D3087FEF89E698E17150804090407D
:101F4000E1F700C0000080912A0486FF05C08F7B66
:101F500080932A040E94560780E00E9432028091FA
:101F6000C3020E949A076093C5027093C6028093D1
:101F7000C7029093C80220912A0460317E408105F7
:101F8000910520F4277F20932A0404C0822F8860C3
:101F900080932A0440912A04FA8140FD45C0F13023
:101FA000F1F48091C3028F5F823019F08093C302F5
:101FB00002C01092C3028091C3020E949A076093EC
:101FC000C5027093C6028093C7029093C802209105
:101FD0002A0460317E408105910518F51EC07A8182
:101FE0007F3F09F087CE8091C302815087FD81E059
:101FF0008093C3028091C3020E949A076093C50236
:102000007093C6028093C7029093C80220912A045D
:1020100060317E408105910520F4277F20932A04BA
:1020200069CE822F88604BC0F13009F04BC06091BF
:10203000C3025091C402252F30E07BE56703C00145
:102040001124FC01159FE00DF11D1124E959FC4FED
:102050005181523009F04ECE2F5F3F4F129FF00159
:10206000139FF00D1124E80FF91FE959FC4F00816F
:102070003092C0022092BF02043638F445FF05C0FA
:1020800081E0800F80830E9446098091C40290E025
:1020900001962091C302189FF001199FF00D1124A1
:1020A0003BE52303C0011124E80FF91FE959FC4F58
:1020B0008081081709F41ECE80912A0480648093E1
:1020C0002A0418CE7A817F3F09F014CE6091C302B2
:1020D0005091C402252F30E07BE56703C001112435
:1020E000FC01159FE00DF11D1124E959FC4F5181B0
:1020F000523009F0FFCD2F5F3F4F129FF001139F29
:10210000F00D1124E80FF91FE959FC4FF0803092CF
:10211000C0022092BF02FF2039F045FF05C08FEFBB
:102120008F0D80830E9446098091C40290E0019641
:102130002091C302189FF001199FF00D11243BE577
:102140002303C0011124E80FF91FE959FC4F8081D6
:10215000F812B2CFCFCD68E086E791E00E948A0105
:1021600060911301772767FD7095872F972F00E007
:1021700023E041E00E94F90290912A047A817130B3
:1021800031F48091130184367CF48F5F08C08A811A
:102190008F3F51F480911301181634F481508093CD
:1021A000130190FD0E94460980912A0480FD28C0F9
:1021B00067E04A990CC01C9B0AC08AE691E00E9425
:1021C0008A01809113010E94460960E00DC01C99AC
:1021D0000DC04A9B0BC08EE691E00E948A0180915F
:1021E00013010E94460961E081E008C080E491E0AB
:1021F0000E948A010E94E00561E080E00E94C3081D
:1022000080916603813001F5809129048530E1F4E5
:1022100080912A0480FD18C0E0E2FCE1F0931901EE
:10222000E09318012EE130E030931701209316015E
:1022300066E082E791E00E948A010E94E8088091AE
:102240002A04816080932A0480916603813009F01A
:1022500051CD80912904843009F04CCD80912A041D
:1022600080FF48CD8E7F80932A040E94E0050E9463
:102270000E0980912A04846080932A0468E08FE527
:1022800091E00E948A0163E088EC90E00E94D3080C
:102290003FEF79E688E1315070408040E1F700C0BF
:1022A000000080E00E94320225CD8091BC02909116
:1022B000BD02BC0180E090E00E94491620E030E0C1
:1022C00040EA5BE30E94FB166B017C0160912504F0
:1022D0007091260480E090E00E94491620E030E0F2
:1022E00040EA5BE30E94FB162B013C0180912B042A
:1022F00080FF27C09981992321F18E7F80932B0441
:10230000F8948DE194E00E947305882329F00E94DF
:102310009C054B015C0107C01982812C912CA0EA1D
:10232000AA2EA1E4BA2E8DE194E00E94000581114D
:1023300007C01982812C912CF0EAAF2EF1E4BF2E58
:102340007894EA81E13031F4FA85FF5FFA87F4305E
:10235000CCF408C02A812F3F29F43A8531503A87BE
:1023600037FDCDC07A85713009F47CC01CF4772329
:1023700051F0C0CC8A85823009F497C0833009F4CB
:10238000BEC0B8CC1A8668E085E791E00E948A0159
:1023900020E732E143E85BE3C501B4010E94FB168C
:1023A00020E030E040EA51E40E94B01527E836E131
:1023B00049E55DE30E9448156A837B838C839D8396
:1023C0009B01AC0160E070E080E89FE30E94B015E3
:1023D0002CEB34E743E95CE30E94FB1626E636E685
:1023E00046ED50E40E9448156E837F838887998765
:1023F000A3019201C701B6010E9447152A813B81C2
:102400004C815D810E9447156B017C01F7FAF094C5
:10241000F7F8F0942A813B814C815D8160E070E0A7
:10242000CB010E9447159B01AC01C701B6010E9478
:10243000B01520E030E040E85FE30E9448159B01C2
:10244000AC016E817F81888599850E94471520E0C7
:1024500030E048EC52E40E94FB160E94181603E09C
:1024600025E049C068E08DE591E00E948A019981EC
:1024700067E0992319F082E491E002C088E791E0D7
:102480000E948A0161E08AE791E00E948A0120E0CF
:1024900030E040E251E4C501B4010E94FB160E9405
:1024A000181603E025E042E027C068E08CE791E0E1
:1024B0000E948A01A3019201C701B6010E94AC15D6
:1024C00065E087FF03C089E391E002C082E491E008
:1024D0000E948A01A3019201C701B6010E9447151B
:1024E0009F7720E030E04AE754E40E94FB160E9408
:1024F000181604E024E041E00E94F902FBCB68E0FA
:102500008FE791E00E948A0120E030E04AE754E43E
:10251000C301B2010E94FB160E94181604E025E0D8
:1025200041E00E94F902E3E0EA87E4CB0F931F93B6
:10253000CF93DF93009711F481E090E020911E018A
:1025400030911F012C5F3F4FA9014E5C524044382F
:10255000510514F02EEC32E030931F0120931E0140
:10256000E0911E01F0911F0193838283608171814C
:1025700020911A0130911B012E173F0721F470930F
:102580001B0160931A01A0911A01B0911B0141E255
:1025900050E02AE131E0E9010D911C9111970E17ED
:1025A0001F0719F411967C936E9312960D911C914E
:1025B00013970817190740F48881998191838083C4
:1025C000F983E88380E090E0E90128813981D2E055
:1025D000AA3CBD0741F4F90182819381DF91CF913B
:1025E0001F910F910895CD91DC9111970881198168
:1025F0000E171F0711F4798368830A811B8108175E
:10260000190748F48D919C91119791838083ED93E4
:10261000FC9380E090E0A2E0CA3CDA07E1F2A881F6
:10262000B981415051094115510509F0B5CFD3CFBA
:1026300043983B9A0895089581110C941813439878
:102640003B98089586B1887008950E9418138FEB07
:1026500093E00197F1F700C0000080E00E941C1396
:1026600090EA9A95F1F786B1E7E4F3E03197F1F754
:1026700000C0000083FB882780F991E08927089536
:10268000CF93DF931F92CDB7DEB789830E941813D3
:1026900092E09A95F1F700C08981882319F080E0D3
:1026A0000E941C13E0EAEA95F1F780E00F90DF91B9
:1026B000CF910C941C130E94181382E08A95F1F7B5
:1026C00000C080E00E941C1395E29A95F1F700008B
:1026D00086B198E79A95F1F783FB882780F90895EA
:1026E000FF920F931F93CF93DF93F82EC0E0D0E0BB
:1026F00001E010E0C8010C2E01C0880F0A94EAF72F
:102700008F210E9440132196C830D10599F7DF919F
:10271000CF911F910F91FF900895FF920F931F93F8
:10272000CF93DF93C0E0D0E0F12C01E010E00E94F5
:102730005B13882339F098010C2E01C0220F0A94F4
:10274000EAF7F22A2196C830D10589F78F2DDF915B
:10275000CF911F910F91FF900895DF92EF92FF921A
:102760000F931F93CF93DF93E82EEB010E94251365
:10277000882369F180EF0E947013F12C10E488EF38
:10278000D82ED10E0E945B13082F0E945B13882362
:1027900019F0002361F01DC0011109C01E1528F0B9
:1027A000888180FF04C0E11611F0F12E01E0802F36
:1027B0000E9440139881969501119068988311505A
:1027C0001D11E0CF21961111DACF8F2D03C08FEFAD
:1027D00001C08EEFDF91CF911F910F91FF90EF908D
:1027E000DF900895CF93DF93EC0188810E94AD13B1
:1027F0008883DF91CF9108950F931F93CF93DF9339
:10280000182F092F0E942513882361F083E30E946B
:102810007013C12FD02F18E00E948D13899311508F
:10282000D9F781E0DF91CF911F910F9108950F9318
:102830001F93CF93DF93182F092F0E94251388230E
:1028400061F085E50E947013C12FD02F18E08991A7
:102850000E9470131150D9F781E0DF91CF911F9141
:102860000F910895DB018F939F930E94AD14BF9148
:10287000AF91A29F800D911DA39F900DB29F900DCF
:1028800011240895AA1BBB1B51E107C0AA1FBB1F3F
:10289000A617B70710F0A61BB70B881F991F5A95EC
:1028A000A9F780959095BC01CD010895A1E21A2E5B
:1028B000AA1BBB1BFD010DC0AA1FBB1FEE1FFF1FE4
:1028C000A217B307E407F50720F0A21BB30BE40B34
:1028D000F50B661F771F881F991F1A9469F760957B
:1028E0007095809590959B01AC01BD01CF01089535
:1028F000052E97FB1EF400940E948F1457FD07D0FD
:102900000E94561407FC03D04EF40C948F1450957B
:102910004095309521953F4F4F4F5F4F08959095CB
:102920008095709561957F4F8F4F9F4F0895A29F1F
:10293000B001B39FC001A39F700D811D1124911D93
:10294000B29F700D811D1124911D08950E9497144E
:10295000B7FF0895821B930B08950E949714A59FBB
:10296000900DB49F900DA49F800D911D112408958A
:10297000689401C0E8948F929F92CF93DF930E9456
:10298000C614DF91CF919F908F9008958824992449
:10299000F401E401B0E49F93AA279A158B049C04E8
:1029A000ED05FE05CF05D007A10798F4AD2FDC2F6C
:1029B000CF2FFE2FE92D982C892E982F872F762F39
:1029C000652F542F432F322F2227B85031F7BF9154
:1029D00027C01B2EBF91BB27220F331F441F551F3B
:1029E000661F771F881F991F881C991CEE1FFF1FE9
:1029F000CC1FDD1FAA1FBB1F8A149B04EC05FD051D
:102A0000CE05DF05A007B10748F08A189B08EC093E
:102A1000FD09CE09DF09A00BB10B21601A94E1F684
:102A20002EF49401AF01BE01CD01000C089597FB77
:102A300010F8169400080F93083098F00850232FD0
:102A4000342F452F562F672F782F892F902DF4CFB5
:102A500005949795879577956795579547953795F9
:102A600027950A95AAF70F9108952A0D3B1D4C1D35
:102A70005D1D6E1D7F1D801F911F08952A193B0942
:102A80004C095D096E097F09800B910B0895505820
:102A9000BB27AA270ED075C166D130F06BD120F0CC
:102AA00031F49F3F11F41EF45BC10EF4E095E7FB97
:102AB00051C1E92F77D180F3BA17620773078407F2
:102AC000950718F071F49EF58FC10EF4E0950B2E6A
:102AD000BA2FA02D0B01B90190010C01CA01A00170
:102AE0001124FF27591B99F0593F50F4503E68F1CB
:102AF0001A16F040A22F232F342F4427585FF3CF0C
:102B0000469537952795A795F0405395C9F77EF4DC
:102B10001F16BA0B620B730B840BBAF09150A1F025
:102B2000FF0FBB1F661F771F881FC2F70EC0BA0FAB
:102B3000621F731F841F48F4879577956795B79533
:102B4000F7959E3F08F0B3CF9395880F08F099272B
:102B5000EE0F979587950895D9D008F481E00895F0
:102B60000CD00FC107D140F0FED030F021F45F3F10
:102B700019F0F0C0511139C1F3C014D198F3992361
:102B8000C9F35523B1F3951B550BBB27AA27621731
:102B90007307840738F09F5F5F4F220F331F441F76
:102BA000AA1FA9F333D00E2E3AF0E0E830D09150AE
:102BB0005040E695001CCAF729D0FE2F27D0660F9B
:102BC000771F881FBB1F261737074807AB07B0E8DA
:102BD00009F0BB0B802DBF01FF2793585F4F2AF0F0
:102BE0009E3F510568F0B6C000C15F3FECF3983ED0
:102BF000DCF3869577956795B795F7959F5FC9F74D
:102C0000880F911D9695879597F90895E1E0660FD5
:102C1000771F881FBB1F621773078407BA0720F04E
:102C2000621B730B840BBA0BEE1F88F7E0950895B7
:102C300004D06894B111D9C00895BCD088F09F57D2
:102C400090F0B92F9927B751A0F0D1F0660F771FF8
:102C5000881F991F1AF0BA95C9F712C0B13081F0D8
:102C6000C3D0B1E00895C0C0672F782F8827B85F20
:102C700039F0B93FCCF3869577956795B395D9F739
:102C80003EF490958095709561957F4F8F4F9F4F43
:102C90000895E89409C097FB3EF49095809570954F
:102CA00061957F4F8F4F9F4F9923A9F0F92F96E998
:102CB000BB279395F695879577956795B795F1110D
:102CC000F8CFFAF4BB0F11F460FF1BC06F5F7F4FAA
:102CD0008F4F9F4F16C0882311F096E911C07723BC
:102CE00021F09EE8872F762F05C0662371F096E8C5
:102CF000862F70E060E02AF09A95660F771F881F94
:102D0000DAF7880F9695879597F90895990F000837
:102D1000550FAA0BE0E8FEEF16161706E807F907AD
:102D2000C0F012161306E407F50798F0621B730B48
:102D3000840B950B39F40A2661F0232B242B252BC9
:102D400021F408950A2609F4A140A6958FEF811D6C
:102D5000811D089597F99F6780E870E060E008950D
:102D60009FEF80EC089500240A94161617061806A3
:102D70000906089500240A9412161306140605067F
:102D80000895092E0394000C11F4882352F0BB0F10
:102D900040F4BF2B11F460FF04C06F5F7F4F8F4F73
:102DA0009F4F089557FD9058440F551F59F05F3FAE
:102DB00071F04795880F97FB991F61F09F3F79F05D
:102DC00087950895121613061406551FF2CF4695DF
:102DD000F1DF08C0161617061806991FF1CF869561
:102DE0007105610508940895E894BB276627772745
:102DF000CB0197F908950BD0C4CFB5DF28F0BADF27
:102E000018F0952309F0A6CFABCF1124EECFCADF7F
:102E1000A0F3959FD1F3950F50E0551F629FF001ED
:102E2000729FBB27F00DB11D639FAA27F00DB11D46
:102E3000AA1F649F6627B00DA11D661F829F2227CF
:102E4000B00DA11D621F739FB00DA11D621F839F56
:102E5000A00D611D221F749F3327A00D611D231F2C
:102E6000849F600D211D822F762F6A2F11249F577A
:102E700050408AF0E1F088234AF0EE0FFF1FBB1F9D
:102E8000661F771F881F91505040A9F79E3F51053C
:102E900070F060CFAACF5F3FECF3983EDCF38695ED
:102EA00077956795B795F795E7959F5FC1F7FE2BE7
:102EB000880F911D9695879597F90895DC01CB01B0
:102EC000FC01F999FECF06C0F2BDE1BDF89A31963A
:102ED00000B40D9241505040B8F70895F999FECFD3
:102EE00092BD81BDF89A992780B50895DC01A40FA1
:102EF000B51F4150504048F0CB01840F951F2E91D3
:102F00000E94871741505040D0F70895262FF99915
:102F1000FECF92BD81BDF89A019700B4021639F038
:102F20001FBA20BD0FB6F894FA9AF99A0FBE089509
:102F3000262FF999FECF1FBA92BD81BD20BD0FB6D5
:102F4000F894FA9AF99A0FBE01960895F894FFCF73
:102F5000FFFFFFFFFFFFFFFFF8FFFCFFFEFFFFFF8C
:102F60000200013205000F00201CCA020000CE0240
:102F70002D2D496E69742D2D0050726F47496E6971
:102F800074002D2D202020202D2D0046696E6420F8
:102F9000202020006453203138623230002020533A
:102FA000456E532020004953204641754C74002D36
:102FB0002D53746F502D2D0050002D462D002D7275
:102FC0002D00456E0050480063002A00554500550D
:022FD0006F0090
:00000001FF
