:100000000C945B000C9478000C9478000C947800AD
:100010000C9478000C9478000C9478000C94780080
:100020000C9478000C9478000C9478000C941109CE
:100030000C9478000C9478000C9450080C94780080
:100040000C9478000C9478000C9478000C94780050
:100050000C9478000C9478000C9478000C94780040
:100060000C9478000C9478002D013D092A635F08F8
:100070002000307E3130326D33793433355B365F7A
:100080003770387F397B41774647621F553E751C74
:10009000535B49306910740F4837454F4C0E720559
:1000A0004F7E6F1D5067434E475E630D6E15643D76
:1000B0006817593B000011241FBECFEFD8E0DEBF08
:1000C000CDBF11E0A0E0B1E0E4E6F4E202C00590AB
:1000D0000D92A835B107D9F722E0A8E5B1E001C03B
:1000E0001D92A23EB207E1F70E94190B0C94301248
:1000F0000C9400002A9A2C9A8CE284B91CBC83E5EB
:100100008CBD1DBC1DBC0895CF93DF93CDB7DEB76A
:1001100028970FB6F894DEBF0FBECDBF1816C4F0F7
:10012000880F990B19821A82FE01E80FF91F62836A
:10013000FE01E80FF91F41832A988A818EBD0DB414
:1001400007FEFDCF89818EBD0DB407FEFDCF2A9A33
:1001500028960FB6F894DEBF0FBECDBFDF91CF91CA
:1001600008952F923F924F925F926F927F928F925B
:100170009F92AF92BF92CF92DF92EF92FF920F9336
:100180001F93CF93DF9300D000D000D0CDB7DEB760
:100190006B017C0197FF10C0CB0177FF04C088275B
:1001A00099278C199D09AA2797FDA095BA2F8983B5
:1001B0009A83AB83BC8304C069837A838B839C83DB
:1001C000842E912C540122242394822F90E09E832C
:1001D0008D839AE0492E512C612C712C10E08D8179
:1001E0009E818A159B050CF45CC069817A818B81A4
:1001F0009C81A30192010E94B710672B682B692B89
:10020000B9F489819A81AB81BC810A97A105B105B6
:100210007CF4A114B10461F0A016B106B4F0C114CD
:10022000D104E104F10471F4A814B90459F40DC027
:1002300069817A818B819C81A30192010E94B71010
:10024000362E04C08FE0382E01C0312CF501EB5E54
:10025000FD4F308269817A818B819C81A30192015B
:100260000E94B71029833A834B835C839FEFA91ABE
:10027000B90AC5018B5E9D4FFC013197232DA01655
:10028000B10611F4206801C02F77208389819A81FB
:10029000AB81BC81892B8A2B8B2B09F4A0CF2394B3
:1002A0009ECFF7FE09C0F401EB5EFD4FE20DF11D9C
:1002B00027FCFA958AE08083822D26960FB6F89463
:1002C000DEBF0FBECDBFDF91CF911F910F91FF9089
:1002D000EF90DF90CF90BF90AF909F908F907F90E6
:1002E0006F905F904F903F902F9008951F93CF9302
:1002F000DF9381110BC0C5E1D2E011E04991612F7C
:1003000080E00E9484001F5F1930C1F7DF91CF9118
:100310001F910895AF92BF92CF92DF92EF92FF921A
:100320000F931F93CF93DF93A62F69300CF08FC0EC
:10033000662309F48CC0FC0101900020E9F7319795
:10034000E81BF90BB62FBE1BE62FFF27E7FDF09544
:10035000C12CD12C7601C3942B2F30E02E173F07F0
:10036000A4F5A0900001B0900101D0910201C091CC
:1003700003012091040120910501209106012091A3
:100380000701970186010B2E04C0000F111F221FC9
:10039000331F0A94D2F70095109520953095A0222E
:1003A000B122D223C323A0920001B0920101D093C5
:1003B0000201C093030110920401109205011092F2
:1003C000060110920701BF5FC7CF2FEF2A0FEC0184
:1003D0002830E0F449914423C9F030E0A22FB0E086
:1003E000AB5EBD4F832F90E0FC01E859FF4F549165
:1003F000552351F0E4914E1305C0FC01E759FF4F1E
:1004000084918C933E5FEECF2150E2CF409100016A
:10041000809101018091020180910301809104018A
:1004200080910501809106018091070169E080E0DB
:100430000E94840080E0DF91CF911F910F91FF9087
:10044000EF90DF90CF90BF90AF900C947601DF914A
:10045000CF911F910F91FF90EF90DF90CF90BF90C1
:10046000AF900895811121C08FEF80930001809398
:100470000101809302018093030180930401809322
:10048000050180930601809307014FEF69E080E04A
:100490000E948400E5E1F2E08FE0819392E0ED318B
:1004A000F907D9F780E00C9476010895CF93C82F0F
:1004B000803108F0C5E00E947A0040E06FE080E003
:1004C0000E94840047E06BE080E00E9484004C2F93
:1004D0006AE080E00E94840080E00E94320241E0F5
:1004E0006CE080E0CF910C9484008F929F92AF9249
:1004F000BF92CF92DF92EF92FF920F931F93CF9311
:10050000DF936A017B01811167C0293008F064C064
:10051000022F27E040E0C701B6010E94B100E0E0F1
:10052000F0E090E0C12CD12C7601C394E817F907D4
:1005300084F5D0910001C0910101B0910201A09118
:1005400003018090040190900501A0900601B090F5
:100550000701970186010E2E04C0000F111F221FF4
:10056000331F0A94D2F7D02BC12BB22BA32BD093DD
:100570000001C0930101B0930201A0930301809296
:10058000040190920501A0920601B09207013196F4
:10059000CDCF4091000180910101809102018091B5
:1005A00003018091040180910501809106018091F1
:1005B000070169E080E00E94840080E0DF91CF9134
:1005C0001F910F91FF90EF90DF90CF90BF90AF9071
:1005D0009F908F900C947601DF91CF911F910F9196
:1005E000FF90EF90DF90CF90BF90AF909F908F9053
:1005F00008952F923F924F925F926F927F928F92C7
:100600009F92AF92BF92CF92DF92EF92FF920F93A1
:100610001F93CF93DF93CDB7DEB763970FB6F894F0
:10062000DEBF0FBECDBF442309F4A2C0293008F0BD
:100630009FC0093008F09CC0212C312CE42EF12CF5
:10064000D7011197B88BAF87F7013297FA87E987FF
:10065000422E512C5A8A498AEF84F888E20CF31C06
:100660003FEF231A330AE985FA85E20DF31DA989C4
:10067000BA89EA17FB070CF048C0509000015E866B
:10068000109101015091020130910301A0910401E8
:10069000B0910501609006016B8A709007017D861C
:1006A000812C912C5401839404C0880C991CAA1CA1
:1006B000BB1CEA94D2F77501640124013501812C39
:1006C000912C5401C9825A826B827C828D829E82D7
:1006D000AF82B8865E8454286A8016297B805729A9
:1006E0008C8038295092000110930101509302012F
:1006F00030930301A0930401B09305019B8890926D
:100700000601AD84A0920701A7CF215041500E945D
:10071000B10040910001809101018091020180911E
:10072000030180910401809105018091060180916F
:10073000070169E080E00E94840080E063960FB6C4
:10074000F894DEBF0FBECDBFDF91CF911F910F9107
:10075000FF90EF90DF90CF90BF90AF909F908F90E1
:100760007F906F905F904F903F902F900C94760108
:1007700063960FB6F894DEBF0FBECDBFDF91CF9169
:100780001F910F91FF90EF90DF90CF90BF90AF90AF
:100790009F908F907F906F905F904F903F902F90A1
:1007A0000895893070F4E82FF0E0EC5EFD4F808111
:1007B00060FD05C08F77808380E00C9476018068AF
:1007C000FACF089581111CC0E5E1F2E080E090E0ED
:1007D00070E09B01082E02C0359527950A94E2F738
:1007E00020FD03C020812F7702C020812068208354
:1007F000019631968830910561F780E00C9476017E
:100800000895462F811105C0603118F46AE00C94F8
:100810008400089520915801223078F490915A0173
:10082000E92FF0E0E55AFE4F80832F5F20935801B7
:1008300081E0890F817080935A010895EF92FF92B1
:100840000F931F93CF93DF9300D0CDB7DEB72FEF79
:10085000260F30E0A901435A5E4F7A01FA01408128
:10086000F901EF59FE4F9081909360018901000FCB
:10087000111FD801AA59BE4F2D913C9130936501AB
:10088000209364018823B1F0253F51E0350798F5A6
:100890002F5F3F4F30936501209364012A3131056A
:1008A00050F14160253F314031F541FD24C04B7F7F
:1008B000426021C040FF0AC041FD08C042FF03C0A2
:1008C0004B7F95E004C010926001446090E042FFCD
:1008D00008C080916001893C20F0109260014B7F3C
:1008E00093E040FF02C041FD94E010926501109238
:1008F00064014C7F01C090E042FF07C0809160011D
:10090000893C18F48F5F809360018091600180833F
:10091000992351F0862F4A8399830E940A04998172
:10092000892F0E940A044A81F801EA59FE4F8091FA
:1009300064019091650191838083F70140830F905A
:100940000F90DF91CF911F910F91FF90EF9008953D
:1009500020915801222379F090915901E92FF0E07C
:10096000E55AFE4F80812150209358019F5F91707E
:1009700090935901089580E00895109267011092B4
:10098000660110925D01109261011092690110924E
:10099000680110925E011092620110926B01109238
:1009A0006A0110925F011092630110925B01109234
:1009B0005C0110925A0110925901109258015798F7
:1009C0005F9A52985A9A24982C9A0895CF9389B195
:1009D000809561E0881F8827881F0E941E0489B1C6
:1009E000C1E082FB882780F962E08C270E941E0408
:1009F00083B18295817063E08C27CF910C941E04A3
:100A0000CF93DF93EC010E94640F882371F020974D
:100A100021F0CE010E94561003C08CEC0E94AF0F53
:100A200084E40E94AF0F81E001C080E0DF91CF91AC
:100A30000895FC01680F791F80E048E1E617F70789
:100A400081F0219198E0322F3827532F517030FDDB
:100A500084278695513009F480682695915099F73E
:100A6000EDCF0895FF920F931F93CF93DF93EC0187
:100A7000162F042FF22E0E94640F882369F120970D
:100A800019F0CE010E94561080E2F89E90011124C8
:100A9000922F9F61F92E8EE40E94AF0F802F0E944B
:100AA000AF0F812F0E94AF0F8F2D0E94AF0F2097A5
:100AB00019F0CE010E94561088E40E94AF0F8FE219
:100AC00095E70197F1F700C00000DF91CF911F91EA
:100AD0000F91FF900C94640F80E0DF91CF911F91F4
:100AE0000F91FF900895CF93DF93EC010E94640F64
:100AF0008823E9F0209721F0CE010E94561003C010
:100B00008CEC0E94AF0F8EEB0E94AF0FCDE1D2E0D4
:100B10000E94CC0F899382E0C632D807C9F769E0FA
:100B200070E08DE192E00E94190591E0811190E062
:100B3000892FDF91CF910895E0912102E295E6950A
:100B4000E370F0E0EE0FFF1FE85FFE4F6081718100
:100B500080911D0290911E0268237923882777FDDA
:100B60008095982F0E94F91020E030E040E85DE386
:100B70000E943411089520982198289A299A08955E
:100B800023B121701999226080916C01982F937084
:100B9000291781F034E0839FC0011124822B8093B8
:100BA0006C01813E11F48FEF03C0823D19F481E0A6
:100BB00080936D01089580916D0110926D010895EB
:100BC0004F925F926F927F92AF92BF92CF92DF92DD
:100BD000EF92FF920F931F93CF93DF93CDB7DEB7C2
:100BE00029013A01621B730B840B950B29893A8901
:100BF0004B895C892A193B094C095D09298B3A8B81
:100C00004B8B5C8B9B01AC0169897A898B899C89B0
:100C10000E947110E418F50806091709A801970148
:100C20000E94B7102A0D3B1D4C1D5D1DCA01B90164
:100C3000DF91CF911F910F91FF90EF90DF90CF90B8
:100C4000BF90AF907F906F905F904F900895F89411
:100C500060917E0180E090E00E94221246EB50E01D
:100C600062E070E087E292E00E94001278940895BA
:100C70000E94A80480932602882321F00E94A804E1
:100C80008093DF0208950F931F939BE5899FF001E6
:100C9000112489E0689FE00DF11D1124E95DFD4FED
:100CA000828193818C0120E030E06481758161153F
:100CB000710561F046810E948110469FC001479FE7
:100CC000900D1124080F191F211D311DC901B801F4
:100CD0001F910F9108959BE5899FF0011124E95D13
:100CE000FD4FB081AF0120E030E0A0E060E070E0B7
:100CF000CB01AB1771F0FA01E20FF31F0780F0850B
:100D0000E02D6E0F7F1F811D911DAF5F275F3F4F4D
:100D1000F0CF0895AF92BF92CF92DF92EF92FF9201
:100D20000F931F93CF93DF93E7E2F2E0119282E0FB
:100D3000ED3DF807D9F785E08093270282E0C82EC1
:100D4000C09228020CE211E010932A0200932902BB
:100D5000CEE1D0E0D0932C02C0932B02C0922D02A2
:100D600060E080E00E94430670932F0260932E02A1
:100D70009BE4F92EF0923002DD24D394D09231021C
:100D80001093330200933202109235021092340213
:100D90001092360261E080E00E94430670933802B0
:100DA0006093370210923902C0923A0228E5A22ECF
:100DB00022E0B22EB0923C02A0923B02D0933E02BF
:100DC000C0933D02C0923F0262E080E00E94430671
:100DD0007093410260934002F0924202D09243022B
:100DE000B0924502A092440210924702109246022D
:100DF0001092480263E080E00E94430670934A022A
:100E00006093490210924B02C0924C0210934E0222
:100E100000934D02D0935002C0934F02C0925102F2
:100E200064E080E00E944306709353026093520294
:100E3000F092540284E080938202C092830234E1F3
:100E4000E32EF12CF0928502E092840205E010E09E
:100E50001093870200938602C092880260E081E0CE
:100E60000E94430670938A026093890284E1809312
:100E70008B02D0928C02CAE0D0E0D0938E02C09355
:100E80008D021092900210928F021092910261E0F6
:100E900081E00E9443067093930260939202109245
:100EA0009402C0929502F0929702E09296021093FB
:100EB000990200939802C0929A0262E081E00E9437
:100EC000430670939C0260939B0280E580939D0291
:100ED000D0929E02D093A002C0939F021092A202D1
:100EE0001092A1021092A30263E081E00E944306E7
:100EF0007093A5026093A4021092A602DF91CF9195
:100F00001F910F91FF90EF90DF90CF90BF90AF9027
:100F100008958FEF80937E01E7E2F2E0819392E003
:100F2000ED3DF907D9F70895813051F45C9A6111CC
:100F300002C05D9A07C0613031F45D985E9A0895F1
:100F40005C985D985E9808952091E00227FD09C0A5
:100F5000909382018093810170E07093DE02609330
:100F6000DD02089510928100089584E0809381004D
:100F700008958091180190911901892B21F4809195
:100F800012018130D9F410928500109284001092E1
:100F9000800084E0809381001092820081E19AE7D2
:100FA00090938900809388008091E002877F8093EE
:100FB000E00261E088EC90E00C94A40708951F9390
:100FC000CF93DF93109285001092840010928000DE
:100FD000109281001092820060E080E00E949407ED
:100FE00010928401C0EED2E018811E7F1883809198
:100FF00083010E946B066093850170938601809344
:10100000870190938801177F1883DF91CF911F91FB
:10101000089580E480937C008FEC80937A0008959B
:1010200014BC84E085BD16BC81E387BD0895CF93D1
:10103000C82F853650F581110DC01092B000109266
:10104000B4008091E1028B7F8D7F8093E10210924A
:10105000890119C081E28093B0008091E10282FD94
:1010600004C082608093E1020EC02C2F30E0AFEF0D
:10107000B0E00E94D61024E630E040E050E00E944C
:10108000B7102093B4008C2F01C080E0CF91089559
:1010900081E08093B1001092B3001092B4000895E3
:1010A0001F920F920FB60F9211242F933F934F93DD
:1010B0005F936F937F938F939F93AF93BF93CF93E0
:1010C000EF93FF9316BC0E94E6040E94C005809136
:1010D0007C0190917D010196813722E0920729F0F1
:1010E00090937D0180937C0109C010927D01109244
:1010F0007C018091E10281608093E102C091E10274
:10110000C1FF29C0A0918901BB27A7FDB0952FEF92
:1011100030E00E94E51024E630E040E050E00E941C
:10112000B7102093B40080917B018F5F80937B0187
:10113000843189F410927B01809189018F5F8093C3
:10114000890190911301891306C010928901CD7F06
:10115000C460C093E10280917F01909180011816D4
:1011600019066CF401979093800180937F0180327F
:10117000934029F48091E00280628093E0028091A4
:10118000DD029091DE02892BD1F18091790190915D
:101190007A01019690937A018093790120918101DF
:1011A000309182018217930740F4809177019091EA
:1011B0007801892B11F4429A22C0429880917701DC
:1011C0009091780101969093780180937701209116
:1011D0008101309182018217930788F01092780183
:1011E0001092770110927A01109279018091DD02BC
:1011F0009091DE0201979093DE028093DD02FF91D1
:10120000EF91CF91BF91AF919F918F917F916F910E
:101210005F914F913F912F910F900FBE0F901F90B4
:1012200018951F920F920FB60F921124EF92FF9212
:101230000F931F932F933F934F935F936F937F93DE
:101240008F939F93AF93BF93CF93DF93EF93FF93CE
:1012500010928500109284008091E00282FF17C0F6
:101260008B7F8093E00210927601109275011092AC
:10127000740110927301109272011092710182E058
:1012800090E0909311018093100110927001809171
:101290001201823009F090C08091180190911901DB
:1012A000009709F46FC0019790931901809318017A
:1012B0008091100190911101029729F580911301FD
:1012C0000E9417086091710181E00E94940780914B
:1012D000730190917401019690937401809373014E
:1012E00020911601309117018217930709F04AC027
:1012F000109274011092730181E090E090931101BB
:10130000809310013FC080E00E941708C0917101D6
:10131000D09172016C2F80E00E9494078091160199
:1013200090911701892B81F081E090E0CD2B11F095
:1013300080E090E0909372018093710161E08EE112
:1013400090E00E94A40704C01092720110927101F3
:10135000809175019091760101969093760180932A
:10136000750120911401309115018217930751F4F2
:1013700082E090E090931101809310011092760129
:10138000109275018091180190911901892BA1F497
:1013900010927601109275011092740110927301EF
:1013A000109272011092710182E090E0909311010D
:1013B000809310010E94DF0720911201213009F073
:1013C00021C19091E002892F869586958695822786
:1013D00080FB93F99093E0021091700120918301BA
:1013E0000BE52003C0011124DC01A95DBD4F2C9148
:1013F000121708F0DFC0C12FD0E049E04C9F700108
:101400004D9FF00C1124D701A80FB91FA95DBD4F46
:1014100011962C91223009F07CC02091100130915E
:10142000110122303105A9F59E012F5F3F4F429FE8
:10143000D001439FB00D1124A80FB91FA95DBD4F66
:101440008C910E941708809313016091710181E0D3
:101450000E9494078091730190917401019690937A
:10146000740180937301209183012003F001112402
:10147000EE0DFF1DE95DFD4F248135818217930735
:1014800009F05AC0109274011092730181E090E04B
:101490003BC080E00E94170860E080E00E94940753
:1014A00080917501909176010196909376018093D9
:1014B0007501209183012003F0011124EE0DFF1D21
:1014C000E95DFD4F268130E082179307A9F5109260
:1014D00076011092750184819581892B79F081E0E4
:1014E00090E02091710130917201232B11F080E086
:1014F00090E0909372018093710104C01092720188
:101500001092710182E090E090931101809310019C
:1015100013C09E012F5F3F4F429FF001439FF00D8C
:101520001124E80FF91FE95DFD4F80810E94170823
:1015300060E080E00E94940780916E0190916F01BD
:10154000019690936F0180936E012091830139E0A1
:101550003C9FF0013D9FF00D11243BE52302E00D7F
:10156000F11D1124E95DFD4F278130858217930716
:1015700071F410926F0110926E011F5F1093700151
:101580001093840161E08EE190E00E94A4078091B5
:10159000850190918601A0918701B0918801019702
:1015A000A109B1098093850190938601A0938701D9
:1015B000B0938801E09183018BE5E802F0011124EA
:1015C000E95DFD4F90917001808198131BC01092CE
:1015D00076011092750110927401109273011092AD
:1015E00072011092710182E090E09093110180935A
:1015F0001001109270010E94DF078091E00280616B
:101600008093E002FF91EF91DF91CF91BF91AF9175
:101610009F918F917F916F915F914F913F912F910A
:101620001F910F91FF90EF900F900FBE0F901F90A2
:10163000189587E00E9456020E94BB050E94BD04D7
:101640004F9917C068E080E291E00E948A014F9BA9
:10165000FECF2FEF39E688E1215030408040E1F79E
:1016600000C0000080E00E9432020E9489070E94B0
:10167000270680E090E00E94F81180937E0146EBFF
:1016800050E062E070E087E292E00E94E811809111
:101690007E018F3FC1F468E089E291E00E948A01F7
:1016A0009FEF29E638E1915020403040E1F700C03B
:1016B000000080E00E9432028CE080937E010E9454
:1016C0008A060E94270668E082E391E00E948A0170
:1016D00060917E0170E080E090E005E025E044E06C
:1016E0000E94F9028FEF99E628E181509040204056
:1016F000E1F700C0000080E00E943202559A569A3D
:10170000549A539A3A9A0E9410080E94480882E01C
:1017100080936E0080936F0081E08093120180912E
:10172000E0028E7F8F7E8093E002789480E00E94BA
:10173000170860E080E00E9494078091E0028F77B4
:101740008093E00261E088EC90E00E94A407809121
:1017500083010E946B0660938501709386018093DC
:101760008701909388012091E00260317E408105DD
:101770009105D0F4277F2093E002C9E01BE548EEF5
:10178000442E43E0542E7724739450E1852E5EE07E
:10179000952EA12CB12C6CE3C62ED12CE12CF12C72
:1017A0007EE1272E312C48C0822F88608093E00292
:1017B000E4CF8F7E8093E00268E08BE391E00E94AB
:1017C0008A0163E088EC90E00E94A4078FEF99E61D
:1017D00028E1815090402040E1F700C00000809156
:1017E000E00286FF05C08F7B8093E0020E942706FF
:1017F00080E00E943202809183010E946B06609318
:1018000085017093860180938701909388012091D0
:10181000E00260317E4081059105C0F4277F20936E
:10182000E002909126029130B1F080911201813056
:1018300041F1823009F411C20E9438060E94DB0592
:10184000D82F8091E00284FDB4CFEBCF822F886047
:101850008093E002E6CF8091DF02843031F78091FF
:10186000E00280FDE2CF809112018F5F833019F09A
:101870008093120102C09093120180E00E94320214
:10188000D4CF68E084E491E00E948A018091E00274
:1018900080FF02C007E001C000E08091830199272A
:1018A00087FD90950196BC01882777FD8095982F3C
:1018B00027E047E00E94F9028091E00280FD06C027
:1018C00066E082E591E00E948A010EC08091840169
:1018D00090E00196BC01882777FD8095982F00E065
:1018E00026E046E00E94F90280917F0190918001FC
:1018F000892B09F059C06091850170918601809112
:1019000087019091880160312EE072078105910571
:10191000E0F4A70196010E949510CA01B90103E005
:1019200025E043E00E94F9026091850170918601F3
:101930008091870190918801A70196010E949510DE
:1019400022E041E00E94F90229C0A50194010E9411
:101950009510CA01B90103E025E043E00E94F902B5
:101960006091850170918601809187019091880135
:10197000A70196010E949510CA01B9016C53710923
:101980008109910922E041E00E94F9026091E002A0
:1019900063FB662760F981E00E94D1038091E00239
:1019A0008F7D8093E0021BC08091840190E00196BE
:1019B00020918301C89FF001C99FF00D11242103DC
:1019C000C0011124E80FF91FE95DFD4F608170E04F
:1019D00080E090E000E024E041E00E94F902809184
:1019E00026028130E9F48091DF028530C9F48091CC
:1019F000E00280FD07C08D7F81608093E0020E943D
:101A0000B9070EC081FD06C082608093E00210928B
:101A1000810006C08D7F8093E00234E03093810026
:101A200080912602813009F051C08091DF0284301C
:101A300009F04CC08091E00280FF48C08D7F8E7F0E
:101A40008093E0020E94DF0780E00E9417088091E7
:101A5000E00284608093E00268E08BE391E00E9402
:101A60008A0163E088EC90E00E94A4078FEF99E67A
:101A700028E1815090402040E1F700C000008091B3
:101A8000E00286FF05C08F7B8093E0020E9427065C
:101A900080E00E943202809183010E946B06609375
:101AA000850170938601809387019093880120912E
:101AB000E00260317E408105910520F4277F20936C
:101AC000E00204C0822F88608093E0024091E0022F
:101AD00040FD31C0D13041F4809183018F5F82306D
:101AE00059F4109283010DC0DF3F09F0A5CE80911B
:101AF0008301815087FD03C08093830102C07092EF
:101B00008301809183010E946B066093850170932D
:101B1000860180938701909388012091E0026031D3
:101B20007E408105910520F4277F2093E00284CE3A
:101B3000822F88608FC0D13009F043C0609183014B
:101B400050918401252F30E06103C0011124FC0174
:101B5000C59FE00DF11D1124E95DFD4F518152300B
:101B600009F06ACE2F5F3F4FC29FF001C39FF00D77
:101B70001124E80FF91FE95DFD4F008150928001AB
:101B800040927F01043638F445FF05C081E0800FA4
:101B900080830E9417088091840190E00196209133
:101BA0008301C89FF001C99FF00D11242103C001DA
:101BB0001124E80FF91FE95DFD4F8081081347C02C
:101BC0003BCEDF3F09F038CE609183015091840114
:101BD000252F30E06103C0011124FC01C59FE00DF9
:101BE000F11D1124E95DFD4F5181523009F024CEE1
:101BF0002F5F3F4FC29FF001C39FF00D1124E80FEC
:101C0000F91FE95DFD4F60805092800140927F0195
:101C1000662039F045FF05C08FEF860D80830E9456
:101C200017088091840190E0019620918301C89F5C
:101C3000F001C99FF00D11242103C0011124E80F08
:101C4000F91FE95DFD4F8081681609F4F5CD80919B
:101C5000E00280648093E002EFCD68E086E491E0EA
:101C60000E948A0160911301772767FD7095872F85
:101C7000972F00E023E041E00E94F9029091E002FA
:101C8000D13031F480911301843674F48F5F07C032
:101C9000DF3F51F480911301181634F48150809382
:101CA000130190FD0E9417088091E00280FD29C079
:101CB00067E04A990CC01C9B0AC088E491E00E942E
:101CC0008A01809113010E94170860E00DC01C99E1
:101CD0000DC04A9B0BC08CE491E00E948A01809168
:101CE00013010E94170861E081E009C080E591E0DE
:101CF0000E948A0180E00E94170861E080E00E9453
:101D00009407809126028130F1F48091DF028530C2
:101D1000D1F48091E00280FD16C080E29CE19093B6
:101D2000190180931801309217012092160166E084
:101D300084E591E00E948A010E94B9078091E00247
:101D400081608093E00280912602813009F074CD99
:101D50008091DF02843009F06FCD8091E00280FF36
:101D60006BCD8E7F8093E00280E00E9417080E9476
:101D7000DF078091E00284608093E00268E08BE3FB
:101D800091E00E948A0163E088EC90E00E94A40741
:101D90009FEF29E638E1915020403040E1F700C044
:101DA000000080E00E94320247CD0F931F93CF9333
:101DB000DF93009711F481E090E020911E013091B3
:101DC0001F012C5F3F4FA9014E5851404438510527
:101DD00014F02EE831E030931F0120931E01E091B2
:101DE0001E01F0911F019383828360817181209194
:101DF0001A0130911B012E173F0721F470931B012C
:101E000060931A01A0911A01B0911B0141E250E0C8
:101E10002AE131E0E9010D911C9111970E171F077E
:101E200019F411967C936E9312960D911C91139751
:101E30000817190740F48881998191838083F98379
:101E4000E88380E090E0E90128813981D1E0AA3877
:101E5000BD0741F4F90182819381DF91CF911F91F8
:101E60000F910895CD91DC911197088119810E177A
:101E70001F0711F4798368830A811B8108171907EA
:101E800048F48D919C91119791838083ED93FC93FD
:101E900080E090E0A1E0CA38DA07E1F2A881B981D8
:101EA000415051094115510509F0B5CFD3CF4398A1
:101EB0003B9A0895089581110C94570F43983B98CD
:101EC000089586B1887008950E94570F8FEB93E0B4
:101ED0000197F1F700C0000080E00E945B0F90EADC
:101EE0009A95F1F786B1E7E4F3E03197F1F700C096
:101EF000000083FB882780F991E089270895CF931C
:101F0000DF931F92CDB7DEB789830E94570F92E00F
:101F10009A95F1F700C08981882319F080E00E942A
:101F20005B0FE0EAEA95F1F780E00F90DF91CF9147
:101F30000C945B0F0E94570F82E08A95F1F700C066
:101F400080E00E945B0F95E29A95F1F7000086B160
:101F500098E79A95F1F783FB882780F90895FF9217
:101F60000F931F93CF93DF93F82EC0E0D0E001E0F2
:101F700010E0C8010C2E01C0880F0A94EAF78F21E7
:101F80000E947F0F2196C830D10599F7DF91CF913C
:101F90001F910F91FF900895FF920F931F93CF937E
:101FA000DF93C0E0D0E0F12C01E010E00E949A0F36
:101FB000882339F098010C2E01C0220F0A94EAF709
:101FC000F22A2196C830D10589F78F2DDF91CF9164
:101FD0001F910F91FF900895DF92EF92FF920F9360
:101FE0001F93CF93DF93E82EEB010E94640F8823A9
:101FF00069F180EF0E94AF0FF12C10E488EFD82E2A
:10200000D10E0E949A0F082F0E949A0F882319F070
:10201000002361F01DC0011109C01E1528F0888140
:1020200080FF04C0E11611F0F12E01E0802F0E9424
:102030007F0F9881969501119068988311501D111A
:10204000E0CF21961111DACF8F2D03C08FEF01C0A1
:102050008EEFDF91CF911F910F91FF90EF90DF9066
:102060000895CF93DF93EC0188810E94EC0F888361
:10207000DF91CF9108950F931F93CF93DF93182F84
:10208000092F0E94640F882361F083E30E94AF0F41
:10209000C12FD02F18E00E94CC0F89931150D9F78F
:1020A00081E0DF91CF911F910F9108950F931F93BE
:1020B000CF93DF93182F092F0E94640F882361F0BC
:1020C00085E50E94AF0FC12FD02F18E089910E94A3
:1020D000AF0F1150D9F781E0DF91CF911F910F9190
:1020E0000895DB018F939F930E94EC10BF91AF91F5
:1020F000A29F800D911DA39F900DB29F900D112462
:102100000895AA1BBB1B51E107C0AA1FBB1FA6173E
:10211000B70710F0A61BB70B881F991F5A95A9F790
:1021200080959095BC01CD010895A1E21A2EAA1BBD
:10213000BB1BFD010DC0AA1FBB1FEE1FFF1FA21777
:10214000B307E407F50720F0A21BB30BE40BF50B74
:10215000661F771F881F991F1A9469F760957095FD
:10216000809590959B01AC01BD01CF010895052E8E
:1021700097FB1EF400940E94CE1057FD07D00E94DA
:10218000951007FC03D04EF40C94CE10509540955A
:10219000309521953F4F4F4F5F4F08959095809513
:1021A000709561957F4F8F4F9F4F0895A29FB0010B
:1021B000B39FC001A39F700D811D1124911DB29F7B
:1021C000700D811D1124911D08950E94D610B7FF36
:1021D0000895821B930B08950E94D610A59F900D21
:1021E000B49F900DA49F800D911D11240895E89433
:1021F00009C097FB3EF490958095709561957F4F4F
:102200008F4F9F4F9923A9F0F92F96E9BB279395FC
:10221000F695879577956795B795F111F8CFFAF40C
:10222000BB0F11F460FF1BC06F5F7F4F8F4F9F4F3D
:1022300016C0882311F096E911C0772321F09EE89B
:10224000872F762F05C0662371F096E8862F70E001
:1022500060E02AF09A95660F771F881FDAF7880FDB
:102260009695879597F908950BD078C069D028F096
:102270006ED018F0952309F05AC05FC01124A2C097
:102280007ED0A0F3959FD1F3950F50E0551F629F2C
:10229000F001729FBB27F00DB11D639FAA27F00DBF
:1022A000B11DAA1F649F6627B00DA11D661F829FE6
:1022B0002227B00DA11D621F739FB00DA11D621FCB
:1022C000839FA00D611D221F749F3327A00D611DE8
:1022D000231F849F600D211D822F762F6A2F1124CA
:1022E0009F5750408AF0E1F088234AF0EE0FFF1F1D
:1022F000BB1F661F771F881F91505040A9F79E3F54
:10230000510570F014C05EC05F3FECF3983EDCF303
:10231000869577956795B795F795E7959F5FC1F790
:10232000FE2B880F911D9695879597F9089597F93B
:102330009F6780E870E060E008959FEF80EC08956B
:1023400000240A9416161706180609060895002494
:102350000A9412161306140605060895092E03940E
:10236000000C11F4882352F0BB0F40F4BF2B11F482
:1023700060FF04C06F5F7F4F8F4F9F4F089557FDE1
:102380009058440F551F59F05F3F71F04795880FE3
:1023900097FB991F61F09F3F79F08795089512167A
:1023A00013061406551FF2CF4695F1DF08C0161626
:1023B00017061806991FF1CF8695710561050894D7
:1023C0000895E894BB2766277727CB0197F90895EE
:1023D000DC01CB01FC01F999FECF06C0F2BDE1BDE5
:1023E000F89A319600B40D9241505040B8F70895D4
:1023F000F999FECF92BD81BDF89A992780B50895CD
:10240000DC01A40FB51F4150504048F0CB01840FB0
:10241000951F2E910E94111241505040D0F70895FF
:10242000262FF999FECF92BD81BDF89A019700B48D
:10243000021639F01FBA20BD0FB6F894FA9AF99A2D
:102440000FBE0895262FF999FECF1FBA92BD81BD08
:1024500020BD0FB6F894FA9AF99A0FBE0196089526
:04246000F894FFCF1E
:10246400FFFFFFFFFFFFFFFFF8FFFCFFFEFFFFFF83
:102474000200013205000F00201C8A0100008E01B9
:102484002D2D496E69742D2D0050726F47496E6968
:1024940074002D2D202020202D2D002D2D53746F00
:1024A400502D2D00500048002D462D002D722D007A
:0824B40020202000456E00000D
:00000001FF
