:100000000C945B000C9478000C9478000C947800AD
:100010000C9478000C9478000C9478000C94780080
:100020000C9478000C9478000C9478000C94A80739
:100030000C9478000C9478000C942D070C947800A4
:100040000C9478000C9478000C9478000C94780050
:100050000C9478000C9478000C9478000C94780040
:100060000C9478000C9478002D013D092A635F08F8
:100070002000307E3130326D33793433355B365F7A
:100080003770387F397B41774647621F553E751C74
:10009000535B49306910740F4837454F4C0E720559
:1000A0004F7E6F1D5067434E475F630D6E15643D75
:1000B0006817593B000011241FBECFEFD8E0DEBF08
:1000C000CDBF11E0A0E0B1E0E2E0FBE102C00590AD
:1000D0000D92A832B107D9F722E0A8E2B1E001C041
:1000E0001D92AB31B207E1F70E949E090C947F0D7F
:1000F0000C9400002A9A2C9A8CE284B91CBC83E5EB
:100100008CBD1DBC1DBC0895CF93DF93CDB7DEB76A
:1001100028970FB6F894DEBF0FBECDBF1816C4F0F7
:10012000880F990B19821A82FE01E80FF91F62836A
:10013000FE01E80FF91F41832A988A818EBD0DB414
:1001400007FEFDCF89818EBD0DB407FEFDCF2A9A33
:1001500028960FB6F894DEBF0FBECDBFDF91CF91CA
:1001600008952F923F924F925F926F927F928F925B
:100170009F92AF92BF92CF92DF92EF92FF920F9336
:100180001F93CF93DF93CDB7DEB727970FB6F894C1
:10019000DEBF0FBECDBF6B017C0197FF10C0CB014E
:1001A00077FF04C0882799278C199D09AA2797FDF6
:1001B000A095BA2F89839A83AB83BC8304C06983DB
:1001C0007A838B839C83842E912C540181E08D83D0
:1001D000822F90E09F838E838AE0482E512C612CE1
:1001E000712C202E312C8E819F818A159B050CF459
:1001F0005CC069817A818B819C81A30192010E94FC
:10020000140D672B682B692BB9F489819A81AB8116
:10021000BC810A97A105B1057CF4A114B10461F079
:10022000A214B304ACF0C114D104E104F10471F4DC
:10023000A814B90459F40CC069817A818B819C811E
:10024000A30192010E94140D162F03C01FE001C0EC
:1002500010E0F501E85AFE4F108369817A818B81A5
:100260009C81A30192010E94140D29833A834B8340
:100270005C839FEFA91AB90AC501885A9E4FFC01F9
:100280003197A214B30411F4106801C01F771083D2
:1002900089819A81AB81BC81892B8A2B8B2B09F4B4
:1002A000A2CF8D818F5F8D839ECFF7FE0FC001118E
:1002B00007C084019D81090F111D97FD1A9501C08A
:1002C00010E0F801E85AFE4F8AE080838D8127967E
:1002D0000FB6F894DEBF0FBECDBFDF91CF911F9157
:1002E0000F91FF90EF90DF90CF90BF90AF909F90D5
:1002F0008F907F906F905F904F903F902F900895D8
:100300001F93CF93DF9381110BC0C8E5D1E011E0BB
:100310004991612F80E00E9484001F5F1930C1F76E
:10032000DF91CF911F910895AF92BF92CF92DF924C
:10033000EF92FF920F931F93CF93DF93A62F693015
:100340000CF08FC0662309F48CC0FC0101900020E2
:10035000E9F73197E81BF90BB62FBE1BE62FFF27F5
:10036000E7FDF095C12CD12C7601C3942B2F30E002
:100370002E173F07A4F5A0900001B0900101D09185
:100380000201C091030120910401209105012091F7
:10039000060120910701970186010B2E04C0000F72
:1003A000111F221F331F0A94D2F700951095209534
:1003B0003095A022B122D223C323A0920001B09293
:1003C0000101D0930201C093030110920401109225
:1003D00005011092060110920701BF5FC7CF2FEFF2
:1003E0002A0FEC012830E0F449914423C9F030E0B1
:1003F000A22FB0E0A85ABE4F832F90E0FC01E8592D
:10040000FF4F5491552351F0E4914E1305C0FC0168
:10041000E759FF4F84918C933E5FEECF2150E2CF9E
:1004200040910001809101018091020180910301BE
:10043000809104018091050180910601809107015E
:1004400069E080E00E94840080E0DF91CF911F91FD
:100450000F91FF90EF90DF90CF90BF90AF900C94F2
:100460008001DF91CF911F910F91FF90EF90DF906E
:10047000CF90BF90AF900895811121C08FEF8093EE
:100480000001809301018093020180930301809316
:1004900004018093050180930601809307014FEFCB
:1004A00069E080E00E948400E8E5F1E08FE081935C
:1004B00091E0E036F907D9F780E00C9480010895C7
:1004C000CF93C82F803108F0C5E00E947A0040E049
:1004D0006FE080E00E94840047E06BE080E00E94D3
:1004E00084004C2F6AE080E00E94840080E00E943B
:1004F0003C0241E06CE080E0CF910C9484008F924C
:100500009F92AF92BF92CF92DF92EF92FF920F93A2
:100510001F93CF93DF936A017B01811167C029305C
:1005200008F064C0022F27E040E0C701B6010E9436
:10053000B100E0E0F0E090E0C12CD12C7601C39452
:10054000E817F90784F5D0910001C0910101B0913D
:100550000201A09103018090040190900501A090F8
:100560000601B0900701970186010E2E04C0000F0E
:10057000111F221F331F0A94D2F7D02BC12BB22B8D
:10058000A32BD0930001C0930101B0930201A0936B
:1005900003018092040190920501A0920601B0929D
:1005A00007013196CDCF40910001809101018091EA
:1005B00002018091030180910401809105018091E5
:1005C00006018091070169E080E00E94840080E0DC
:1005D000DF91CF911F910F91FF90EF90DF90CF901F
:1005E000BF90AF909F908F900C948001DF91CF913E
:1005F0001F910F91FF90EF90DF90CF90BF90AF9041
:100600009F908F9008952F923F924F925F926F929A
:100610007F928F929F92AF92BF92CF92DF92EF9292
:10062000FF920F931F93CF93DF93CDB7DEB76397FE
:100630000FB6F894DEBF0FBECDBF442309F4A2C0AD
:10064000293008F09FC0093008F09CC0212C312CC3
:10065000E42EF12CD7011197B88BAF87F7013297B1
:10066000FA87E987422E512C5A8A498AEF84F88802
:10067000E20CF31C3FEF231A330AE985FA85E20DF9
:10068000F31DA989BA89EA17FB070CF048C05090FE
:1006900000015E8610910101509102013091030129
:1006A000A0910401B0910501609006016B8A7090E1
:1006B00007017D86812C912C5401839404C0880C01
:1006C000991CAA1CBB1CEA94D2F775016401240191
:1006D0003501812C912C5401C9825A826B827C8213
:1006E0008D829E82AF82B8865E8454286A801629E5
:1006F0007B8057298C80382950920001109301018A
:100700005093020130930301A0930401B0930501BB
:100710009B8890920601AD84A0920701A7CF21503B
:1007200041500E94B10040910001809101018091EF
:100730000201809103018091040180910501809163
:1007400006018091070169E080E00E94840080E05A
:1007500063960FB6F894DEBF0FBECDBFDF91CF9189
:100760001F910F91FF90EF90DF90CF90BF90AF90CF
:100770009F908F907F906F905F904F903F902F90C1
:100780000C94800163960FB6F894DEBF0FBECDBF08
:10079000DF91CF911F910F91FF90EF90DF90CF905D
:1007A000BF90AF909F908F907F906F905F904F9091
:1007B0003F902F900895893070F4E82FF0E0E95AC7
:1007C000FE4F808160FD05C08F77808380E00C94B0
:1007D00080018068FACF089581111CC0E8E5F1E03E
:1007E00080E090E070E09B01082E02C035952795CF
:1007F0000A94E2F720FD03C020812F7702C02081F8
:1008000020682083019631968830910561F780E059
:100810000C9480010895462F811105C0603118F4B1
:100820006AE00C948400089520912801223078F425
:1008300090912A01E92FF0E0E55DFE4F80832F5F64
:100840002093280181E0890F817080932A01089507
:1008500020912801222379F090912901E92FF0E0DD
:10086000E55DFE4F80812150209328019F5F9170AC
:1008700090932901089580E0089510923701109215
:10088000360110922D01109231011092390110920F
:10089000380110922E011092320110923B011092F9
:1008A0003A0110922F011092330110922B011092F5
:1008B0002C0110922A0110922901109228015598BA
:1008C0005D9A0895CF93DF9329B1C0912E01809155
:1008D00032018093300180913801909139019093D9
:1008E00035018093340125FD15C0893E23E0920730
:1008F00090F5019690933501809334018A319105EA
:1009000050F1C160893E934031F5C1FD24C0CB7FD9
:10091000C26021C0C0FF0AC0C1FD08C0C2FF03C041
:10092000CB7FD5E004C010923001C460D0E0C2FF9C
:1009300008C080913001893C20F010923001CB7FBB
:10094000D3E0C0FF02C0C1FDD4E010923501109287
:100950003401CC7F01C0D0E0C2FF07C080913001DC
:10096000893C18F48F5F809330018091300180932F
:100970003201DD2331F082E00E9414048D2F0E94A9
:100980001404809134019091350190933901809342
:100990003801C0932E01DF91CF91089521982098BE
:1009A000299A289A089523B12695217018992260D2
:1009B00080913C01982F9370291781F034E0839F38
:1009C000C0011124822B80933C01813E11F48FEFF2
:1009D00003C0823D19F481E080933D010895809128
:1009E0003D0110923D010895F89446EB50E060E01F
:1009F00070E081E691E00E945D0D789408950E9478
:100A0000280480936001882321F00E9428048093A9
:100A1000190208950F931F939BE5899FF0011124FC
:100A200089E0689FE00DF11D1124EF59FE4F82818E
:100A300093818C0120E030E064817581611571053E
:100A400061F046810E94DE0C469FC001479F900DD9
:100A50001124080F191F211D311DC901B8011F9153
:100A60000F9108959BE5899FF0011124EF59FE4FE6
:100A7000B081AF0120E030E0A0E060E070E0CB01A9
:100A8000AB1771F0FA01E20FF31F0780F085E02D3C
:100A90006E0F7F1F811D911DAF5F275F3F4FF0CF0E
:100AA0000895AF92BF92CF92DF92EF92FF920F9391
:100AB0001F93CF93DF93E1E6F1E0119282E0E731FB
:100AC000F807D9F785E08093610182E0C82EC092D3
:100AD00062010CE211E01093640100936301CEE126
:100AE000D0E0D0936601C0936501C092670160E0D9
:100AF00080E00E940A0570936901609368019BE49D
:100B0000F92EF0926A01DD24D394D0926B011093F8
:100B10006D0100936C0110926F0110926E011092A2
:100B2000700161E080E00E940A0570937201609399
:100B3000710110927301C092740128E5A22E22E087
:100B4000B22EB0927601A0927501D0937801C09335
:100B50007701C092790162E080E00E940A057093FB
:100B60007B0160937A01F0927C01D0927D01B0927A
:100B70007F01A0927E01109281011092800110925B
:100B8000820163E080E00E940A0570938401609313
:100B9000830110928501C0927D0110937F01009323
:100BA0007E01D0938101C0938001C092820164E0F4
:100BB00080E00E940A057093840160938301F092A3
:100BC000850184E08093BC01C092BD0134E1E32E35
:100BD000F12CF092BF01E092BE0105E010E010930D
:100BE000C1010093C001C092C20160E081E00E9497
:100BF0000A057093C4016093C30184E18093C50129
:100C0000D092C601CAE0D0E0D093C801C093C7011A
:100C10001092CA011092C9011092CB0161E081E0EB
:100C20000E940A057093CD016093CC011092CE0111
:100C3000C092CF01F092D101E092D0011093D30184
:100C40000093D201C092D40162E081E00E940A05C3
:100C50007093D6016093D50180E58093D701D0923F
:100C6000D801D093DA01C093D9011092DC0110921F
:100C7000DB011092DD0163E081E00E940A057093C0
:100C8000DF016093DE011092E001DF91CF911F91AF
:100C90000F91FF90EF90DF90CF90BF90AF900895AD
:100CA0004F925F926F927F92AF92BF92CF92DF92FC
:100CB000EF92FF920F931F93CF93DF93CDB7DEB7E1
:100CC00029013A01621B730B840B950B29893A8920
:100CD0004B895C892A193B094C095D09298B3A8BA0
:100CE0004B8B5C8B9B01AC0169897A898B899C89D0
:100CF0000E94CE0CE418F50806091709A80197010F
:100D00000E94140D2A0D3B1D4C1D5D1DCA01B90129
:100D1000DF91CF911F910F91FF90EF90DF90CF90D7
:100D2000BF90AF907F906F905F904F90089581300B
:100D300051F4409A611102C0429A07C0613031F407
:100D40004298439A08954098429843980895909302
:100D50004E0180934D0170E070931802609317026A
:100D6000089510928100089585E080938100089590
:100D70008091100190911101892B21F480910A0139
:100D8000813011F51092850010928400109280003D
:100D900084E0809381001092820081E19AE7909331
:100DA00089008093880080911A02877F80931A02BD
:100DB00088EC90E090934E0180934D0181E090E0AB
:100DC00090931802809317020895CF931092850094
:100DD0001092840010928000109281001092820084
:100DE00060E080E00E94970610925001C0911A02C4
:100DF000CE7FC0931A0280914F010E94320560930A
:100E00005101709352018093530190935401C77F15
:100E1000C0931A02CF91089514BC84E085BD16BC1E
:100E200081E387BD0895853670F4282F30E0AFEF59
:100E3000B0E00E94330D24E630E040E050E00E9434
:100E4000140D2093B400089581E28093B00083E0F4
:100E50008093B1001092B40008951F920F920FB6C4
:100E60000F9211242F933F934F935F936F937F9330
:100E70008F939F93AF93BF93EF93FF9316BC0E9402
:100E800062040E94D30480914B0190914C0118168A
:100E900019066CF4019790934C0180934B018032BA
:100EA000934029F480911A02806280931A02809103
:100EB000170290911802892BD1F1809149019091EC
:100EC0004A01019690934A018093490120914D0176
:100ED00030914E018217930740F480914701909121
:100EE0004801892B11F45A9A22C05A9880914701DF
:100EF0009091480101969093480180934701209179
:100F00004D0130914E018217930788F010924801ED
:100F10001092470110924A011092490180911702E4
:100F20009091180201979093180280931702FF91F5
:100F3000EF91BF91AF919F918F917F916F915F9151
:100F40004F913F912F910F900FBE0F901F901895CA
:100F50001F920F920FB60F9211240F931F932F938E
:100F60003F934F935F936F937F938F939F93AF9331
:100F7000BF93CF93DF93EF93FF931092850010926E
:100F8000840080911A0282FF17C08B7F80931A021F
:100F900010924601109245011092440110924301B3
:100FA000109242011092410182E090E09093090179
:100FB000809308011092400180910A0181117DC047
:100FC0008091100190911101009709F45CC0019784
:100FD0009093110180931001809108019091090173
:100FE000029701F580910B010E9413076091410166
:100FF00081E00E94970680914301909144010196FF
:10100000909344018093430120910E0130910F0190
:1010100082179307C1F5109244011092430181E0B9
:1010200090E02DC01092B400C0914101D0914201D6
:101030006C2F80E00E94970680910E0190910F0125
:10104000892BB9F081E090E0CD2B11F080E090E0A9
:1010500090934201809341018EE190E090934E0184
:1010600080934D0181E090E09093180280931702E5
:1010700004C0109242011092410182E090E09093EE
:101080000901809308018091100190911101892B31
:10109000A1F4109246011092450110924401109261
:1010A0004301109242011092410182E090E090933E
:1010B0000901809308010E94E50620910A01213070
:1010C00009F027C190911A02892F869586958695F9
:1010D000822780FB93F990931A022091400130916E
:1010E0004F010BE53003C0011124DC01AF59BE4FA5
:1010F0003C91231708F0E5C030E019E0129FE001B1
:10110000139FD00D1124DE01A80FB91FAF59BE4F98
:1011100011964C91423009F07CC0409108015091E9
:1011200009014230510591F52F5F3F4F129FD001C9
:10113000139FB00D1124A80FB91FAF59BE4F8C914A
:101140000E9413076091410181E00E9497068091FF
:10115000430190914401019690934401809343018F
:1011600020914F012003F0011124EC0FFD1FEF59D6
:10117000FE4F248135818217930709F05CC01092DD
:1011800044011092430181E090E03EC01092B4000F
:1011900060E080E00E9497068091450190914601B1
:1011A0000196909346018093450130914F01209123
:1011B00040013003F0011124129FE00DF11D1124B4
:1011C000EF59FE4F268130E082179307A1F5109268
:1011D00046011092450184819581892B79F081E047
:1011E00090E02091410130914201232B11F080E0E9
:1011F00090E0909342018093410104C0109242011B
:101200001092410182E090E09093090180930801DF
:1012100012C02F5F3F4F129FF001139FF00D11245A
:10122000E80FF91FEF59FE4F80810E94130760E01D
:1012300080E00E94970680913E0190913F010196C7
:1012400090933F0180933E0140914001E0914F0116
:101250002BE5E202F001112429E0429FE00DF11D8F
:101260001124EF59FE4F2781308582179307B1F47F
:1012700010923F0110923E0181E0840F8093400163
:10128000809350018EE190E090934E0180934D0148
:1012900081E090E0909318028093170280915101B1
:1012A00090915201A0915301B09154010197A1096D
:1012B000B1098093510190935201A0935301B093CF
:1012C0005401E0914F018BE5E802F0011124EF5940
:1012D000FE4F90914001808198131BC010924601EF
:1012E0001092450110924401109243011092420164
:1012F0001092410182E090E09093090180930801EF
:10130000109240010E94E50680911A02806180934C
:101310001A02FF91EF91DF91CF91BF91AF919F9111
:101320008F917F916F915F914F913F912F911F917D
:101330000F910F900FBE0F901F90189546EB50E045
:1013400060E070E081E691E00E944D0D8091BE0169
:101350009091BF01019621F40E9451050E94F4046E
:1013600087E00E9460020E943D040E94CE04569ACB
:101370003A9A3B9A389A539A529A0E940C070E94C2
:10138000240782E080936E0080936F0081E0809359
:101390000A0180911A028E7F8F7E80931A027894C0
:1013A0001092B40060E080E00E9497068CE291E029
:1013B00090934E0180934D0181E090E0909318024C
:1013C0008093170280914F010E9432056093510172
:1013D00070935201809353019093540120911A020B
:1013E00060317E4081059105D8F4277F20931A0251
:1013F00048EC442E512C53E0252E312C60E2662E11
:101400006CE1762EC9E01BE570E1872E7EE0972E19
:10141000A12CB12CECE3CE2ED12CE12CF12CB0C0C0
:10142000822F886080931A02E3CF8F7E80931A0206
:1014300068E082E191E00E94940150924E01409256
:101440004D0130921802209217026FEF79E688E181
:10145000615070408040E1F700C000000E94F40439
:1014600080E00E943C0280914F010E94320560930F
:101470005101709352018093530190935401209134
:101480001A0260317E408105910508F083C0277FF4
:1014900020931A0280916001823009F480C080910B
:1014A0000A0168E0813009F0E5C18BE191E00E941A
:1014B000940180911A0280FF8BC007E080914F0158
:1014C000992787FD90950196BC01882777FD809527
:1014D000982F27E047E00E94030380911A0280FDC5
:1014E00079C066E08DE191E00E94940180914B010A
:1014F00090914C01892B09F0A6C060915101709127
:101500005201809153019091540160312EE0720795
:101510008105910508F06DC0A70196010E94F20CAB
:10152000CA01B90103E024E043E00E940303609193
:101530005101709152018091530190915401A70182
:1015400096010E94F20C22E041E00E940303809188
:101550001A028F7D80931A0280916001823009F413
:101560008FC080916001823009F4A8C040911A02B6
:1015700040FD1EC1D13009F4ECC0DF3F09F4F1C0D9
:101580000E94FF040E94EF04D82F80911A0284FF6A
:1015900081CF4BCF822F886080931A027BCF8091BE
:1015A0001902843009F07BCF80911A0280FD77CF39
:1015B00080910A01811106C00E943C0261E06093A3
:1015C0000A016DCF80E00E943C0210920A0167CFB1
:1015D00000E074CF8091500190E00196BC01882713
:1015E00077FD8095982F00E026E046E00E940303F7
:1015F0007DCFA50194010E94F20CCA01B90103E05C
:1016000024E043E00E940303609151017091520174
:101610008091530190915401A70196010E94F20C10
:10162000CA01B9016C5371098109910922E041E0B5
:101630000E94030360911A0263FB662760F981E050
:101640000E94DB0384CF2091500130E02F5F3F4F99
:1016500040914F01C29FF001C39FF00D112441033F
:10166000C0011124E80FF91FEF59FE4F608170E0AF
:1016700080E090E000E024E041E00E9403036CCFB2
:1016800090911902953009F06CCF80911A0280FD7B
:1016900007C08D7F816080931A020E94B80661CFD7
:1016A00081FD06C0826080931A021092810059CF9A
:1016B0008D7F80931A029093810053CF80911902FD
:1016C000843009F053CF80911A0280FF4FCF8D7F75
:1016D0008E7F80931A020E94E50680911A02846030
:1016E00080931A0268E082E191E00E949401509296
:1016F0004E0140924D0130921802209217023FEFA6
:1017000069E678E1315060407040E1F700C00000C8
:101710000E94F40480E00E943C0280914F010E94EC
:10172000320560935101709352018093530190935D
:10173000540120911A0260317E408105910520F408
:10174000277F20931A0212CF822F886080931A027B
:101750000DCF80914F018F5F823041F410924F0185
:101760000BC080914F01815087FD03C080934F01D2
:1017700003C061E060934F0180914F010E943205E8
:1017800060935101709352018093530190935401DF
:1017900020911A0260317E408105910520F4277F57
:1017A00020931A02EDCE822F886080931A02E8CE31
:1017B000D13069F560914F0150915001252F30E0F3
:1017C0006103C0011124FC01C59FE00DF11D11242E
:1017D000EF59FE4F5181523009F0D2CE68EE73E0DE
:1017E00070934C0160934B012F5F3F4FC29FF001FC
:1017F000C39FF00D1124E80FF91FEF59FE4F8081B0
:10180000843608F0BDCE45FFBBCE8F5F2FC0DF3FD3
:1018100009F0B6CE60914F0150915001252F30E074
:101820006103C0011124FC01C59FE00DF11D1124CD
:10183000EF59FE4F5181523009F0A2CE68EE73E0AD
:1018400070934C0160934B012F5F3F4FC29FF0019B
:10185000C39FF00D1124E80FF91FEF59FE4F80814F
:10186000882309F48DCE45FF8BCE815080830E9462
:10187000130786CE8FE191E00E94940160910B01E5
:10188000772767FD7095872F972F00E023E041E0D1
:101890000E940303D13031F480910B01843684F42B
:1018A0008F5F07C0DF3F61F480910B01181644F48D
:1018B000815080930B0190911A0290FD0E941307B2
:1018C000809160018230C1F4809119028330A1F4CB
:1018D000709211016092100110920F0110920E018E
:1018E00066E081E291E00E9494010E94B806809136
:1018F0001A02816080931A02809160018230D1F4D3
:10190000809119028530B1F470921101609210013A
:101910008EE190E090930F0180930E0166E084E2E7
:1019200091E00E9494010E94B80680911A028160A1
:1019300080931A0280916001823009F021CE80915B
:101940001902843009F01CCE80911A0280FF18CE53
:101950008E7F80931A021092B4000E94E506809157
:101960001A02846080931A0268E082E191E00E948A
:10197000940150924E0140924D01309218022092F3
:1019800017029FEF29E638E1915020403040E1F7FF
:1019900000C0000080E00E943C02F2CDDB018F938A
:1019A0009F930E94420DBF91AF91A29F800D911D08
:1019B000A39F900DB29F900D11240895AA1BBB1BED
:1019C00051E107C0AA1FBB1FA617B70710F0A61B3F
:1019D000B70B881F991F5A95A9F780959095BC0160
:1019E000CD010895A1E21A2EAA1BBB1BFD010DC05B
:1019F000AA1FBB1FEE1FFF1FA217B307E407F507BF
:101A000020F0A21BB30BE40BF50B661F771F881F9A
:101A1000991F1A9469F760957095809590959B0130
:101A2000AC01BD01CF010895052E97FB1EF4009473
:101A30000E942B0D57FD07D00E94F20C07FC03D02B
:101A40004EF40C942B0D50954095309521953F4FB9
:101A50004F4F5F4F089590958095709561957F4F9A
:101A60008F4F9F4F0895A29FB001B39FC001A39FC6
:101A7000700D811D1124911DB29F700D811D1124C7
:101A8000911D08950E94330DA59F900DB49F900D58
:101A9000A49F800D911D11240895DC01CB01FC0150
:101AA000F999FECF06C0F2BDE1BDF89A319600B4B7
:101AB0000D9241505040B8F70895DC01A40FB51FB6
:101AC0004150504048F0CB01840F951F2E910E9449
:101AD0006E0D41505040D0F70895262FF999FECF52
:101AE00092BD81BDF89A019700B4021639F01FBA71
:101AF00020BD0FB6F894FA9AF99A0FBE0895F8949B
:021B0000FFCF15
:101B0200FFFFFFFFFFFFFFFF0200013201001E0087
:101B1200201C2D2D53746F502D2D00500020004895
:081B2200007546007572000019
:00000001FF
