:100000000C945B000C9478000C9478000C947800AD
:100010000C9478000C9478000C9478000C94780080
:100020000C9478000C9478000C9478000C94A80739
:100030000C9478000C9478000C942D070C947800A4
:100040000C9478000C9478000C9478000C94780050
:100050000C9478000C9478000C9478000C94780040
:100060000C9478000C9478002D013D092A635F08F8
:100070002000307E3130326D33793433355B365F7A
:100080003770387F397B41774647621F553E751C74
:10009000535B49306910740F4837454F4C0E720559
:1000A0004F7E6F1D5067434E475F630D6E15643D75
:1000B0006817593B000011241FBECFEFD8E0DEBF08
:1000C000CDBF11E0A0E0B1E0E4EAFBE102C00590A1
:1000D0000D92A033B107D9F722E0A0E3B1E001C04F
:1000E0001D92A332B207E1F70E949E090C94D00D35
:1000F0000C9400002A9A2C9A8CE284B91CBC83E5EB
:100100008CBD1DBC1DBC0895CF93DF93CDB7DEB76A
:1001100028970FB6F894DEBF0FBECDBF1816C4F0F7
:10012000880F990B19821A82FE01E80FF91F62836A
:10013000FE01E80FF91F41832A988A818EBD0DB414
:1001400007FEFDCF89818EBD0DB407FEFDCF2A9A33
:1001500028960FB6F894DEBF0FBECDBFDF91CF91CA
:1001600008952F923F924F925F926F927F928F925B
:100170009F92AF92BF92CF92DF92EF92FF920F9336
:100180001F93CF93DF93CDB7DEB727970FB6F894C1
:10019000DEBF0FBECDBF6B017C0197FF10C0CB014E
:1001A00077FF04C0882799278C199D09AA2797FDF6
:1001B000A095BA2F89839A83AB83BC8304C06983DB
:1001C0007A838B839C83842E912C540181E08D83D0
:1001D000822F90E09F838E838AE0482E512C612CE1
:1001E000712C202E312C8E819F818A159B050CF459
:1001F0005CC069817A818B819C81A30192010E94FC
:10020000650D672B682B692BB9F489819A81AB81C5
:10021000BC810A97A105B1057CF4A114B10461F079
:10022000A214B304ACF0C114D104E104F10471F4DC
:10023000A814B90459F40CC069817A818B819C811E
:10024000A30192010E94650D162F03C01FE001C09B
:1002500010E0F501E05AFE4F108369817A818B81AD
:100260009C81A30192010E94650D29833A834B83EF
:100270005C839FEFA91AB90AC501805A9E4FFC0101
:100280003197A214B30411F4106801C01F771083D2
:1002900089819A81AB81BC81892B8A2B8B2B09F4B4
:1002A000A2CF8D818F5F8D839ECFF7FE0FC001118E
:1002B00007C084019D81090F111D97FD1A9501C08A
:1002C00010E0F801E05AFE4F8AE080838D81279686
:1002D0000FB6F894DEBF0FBECDBFDF91CF911F9157
:1002E0000F91FF90EF90DF90CF90BF90AF909F90D5
:1002F0008F907F906F905F904F903F902F900895D8
:100300001F93CF93DF9381110BC0C0E6D1E011E0C2
:100310004991612F80E00E9484001F5F1930C1F76E
:10032000DF91CF911F910895AF92BF92CF92DF924C
:10033000EF92FF920F931F93CF93DF93A62F693015
:100340000CF08FC0662309F48CC0FC0101900020E2
:10035000E9F73197E81BF90BB62FBE1BE62FFF27F5
:10036000E7FDF095C12CD12C7601C3942B2F30E002
:100370002E173F07A4F5A0900001B0900101D09185
:100380000201C091030120910401209105012091F7
:10039000060120910701970186010B2E04C0000F72
:1003A000111F221F331F0A94D2F700951095209534
:1003B0003095A022B122D223C323A0920001B09293
:1003C0000101D0930201C093030110920401109225
:1003D00005011092060110920701BF5FC7CF2FEFF2
:1003E0002A0FEC012830E0F449914423C9F030E0B1
:1003F000A22FB0E0A05ABE4F832F90E0FC01E85935
:10040000FF4F5491552351F0E4914E1305C0FC0168
:10041000E759FF4F84918C933E5FEECF2150E2CF9E
:1004200040910001809101018091020180910301BE
:10043000809104018091050180910601809107015E
:1004400069E080E00E94840080E0DF91CF911F91FD
:100450000F91FF90EF90DF90CF90BF90AF900C94F2
:100460008001DF91CF911F910F91FF90EF90DF906E
:10047000CF90BF90AF900895811121C08FEF8093EE
:100480000001809301018093020180930301809316
:1004900004018093050180930601809307014FEFCB
:1004A00069E080E00E948400E0E6F1E08FE0819363
:1004B00091E0E836F907D9F780E00C9480010895BF
:1004C000CF93C82F803108F0C5E00E947A0040E049
:1004D0006FE080E00E94840047E06BE080E00E94D3
:1004E00084004C2F6AE080E00E94840080E00E943B
:1004F0003C0241E06CE080E0CF910C9484008F924C
:100500009F92AF92BF92CF92DF92EF92FF920F93A2
:100510001F93CF93DF936A017B01811167C029305C
:1005200008F064C0022F27E040E0C701B6010E9436
:10053000B100E0E0F0E090E0C12CD12C7601C39452
:10054000E817F90784F5D0910001C0910101B0913D
:100550000201A09103018090040190900501A090F8
:100560000601B0900701970186010E2E04C0000F0E
:10057000111F221F331F0A94D2F7D02BC12BB22B8D
:10058000A32BD0930001C0930101B0930201A0936B
:1005900003018092040190920501A0920601B0929D
:1005A00007013196CDCF40910001809101018091EA
:1005B00002018091030180910401809105018091E5
:1005C00006018091070169E080E00E94840080E0DC
:1005D000DF91CF911F910F91FF90EF90DF90CF901F
:1005E000BF90AF909F908F900C948001DF91CF913E
:1005F0001F910F91FF90EF90DF90CF90BF90AF9041
:100600009F908F9008952F923F924F925F926F929A
:100610007F928F929F92AF92BF92CF92DF92EF9292
:10062000FF920F931F93CF93DF93CDB7DEB76397FE
:100630000FB6F894DEBF0FBECDBF442309F4A2C0AD
:10064000293008F09FC0093008F09CC0212C312CC3
:10065000E42EF12CD7011197B88BAF87F7013297B1
:10066000FA87E987422E512C5A8A498AEF84F88802
:10067000E20CF31C3FEF231A330AE985FA85E20DF9
:10068000F31DA989BA89EA17FB070CF048C05090FE
:1006900000015E8610910101509102013091030129
:1006A000A0910401B0910501609006016B8A7090E1
:1006B00007017D86812C912C5401839404C0880C01
:1006C000991CAA1CBB1CEA94D2F775016401240191
:1006D0003501812C912C5401C9825A826B827C8213
:1006E0008D829E82AF82B8865E8454286A801629E5
:1006F0007B8057298C80382950920001109301018A
:100700005093020130930301A0930401B0930501BB
:100710009B8890920601AD84A0920701A7CF21503B
:1007200041500E94B10040910001809101018091EF
:100730000201809103018091040180910501809163
:1007400006018091070169E080E00E94840080E05A
:1007500063960FB6F894DEBF0FBECDBFDF91CF9189
:100760001F910F91FF90EF90DF90CF90BF90AF90CF
:100770009F908F907F906F905F904F903F902F90C1
:100780000C94800163960FB6F894DEBF0FBECDBF08
:10079000DF91CF911F910F91FF90EF90DF90CF905D
:1007A000BF90AF909F908F907F906F905F904F9091
:1007B0003F902F900895893070F4E82FF0E0E15ACF
:1007C000FE4F808160FD05C08F77808380E00C94B0
:1007D00080018068FACF089581111CC0E0E6F1E045
:1007E00080E090E070E09B01082E02C035952795CF
:1007F0000A94E2F720FD03C020812F7702C02081F8
:1008000020682083019631968830910561F780E059
:100810000C9480010895462F811105C0603118F4B1
:100820006AE00C948400089520913001223078F41D
:1008300090913201E92FF0E0ED5CFE4F80832F5F55
:100840002093300181E0890F8170809332010895F7
:1008500020913001222379F090913101E92FF0E0CD
:10086000ED5CFE4F80812150209330019F5F91709D
:1008700090933101089580E0089510923F01109205
:100880003E011092350110923901109241011092EF
:1008900040011092360110923A01109243011092D9
:1008A00042011092370110923B01109233011092D5
:1008B000340110923201109231011092300155989A
:1008C0005D9A0895CF93DF9329B1C091360180914D
:1008D0003A018093380180914001909141019093B9
:1008E0003D0180933C0125FD15C0893E23E0920720
:1008F00090F5019690933D0180933C018A319105DA
:1009000050F1C160893E934031F5C1FD24C0CB7FD9
:10091000C26021C0C0FF0AC0C1FD08C0C2FF03C041
:10092000CB7FD5E004C010923801C460D0E0C2FF94
:1009300008C080913801893C20F010923801CB7FAB
:10094000D3E0C0FF02C0C1FDD4E010923D0110927F
:100950003C01CC7F01C0D0E0C2FF07C080913801CC
:10096000893C18F48F5F809338018091380180931F
:100970003A01DD2331F082E00E9414048D2F0E94A1
:10098000140480913C0190913D019093410180932A
:100990004001C0933601DF91CF91089521982098AE
:1009A000299A289A089523B12695217018992260D2
:1009B00080914401982F9370291781F034E0839F30
:1009C000C0011124822B80934401813E11F48FEFEA
:1009D00003C0823D19F481E0809345010895809120
:1009E0004501109245010895F89446EB50E060E00F
:1009F00070E089E691E00E94AE0D789408950E941F
:100A0000280480936801882321F00E9428048093A1
:100A1000210208950F931F939BE5899FF0011124F4
:100A200089E0689FE00DF11D1124E759FE4F828196
:100A300093818C0120E030E064817581611571053E
:100A400061F046810E942F0D469FC001479F900D87
:100A50001124080F191F211D311DC901B8011F9153
:100A60000F9108959BE5899FF0011124E759FE4FEE
:100A7000B081AF0120E030E0A0E060E070E0CB01A9
:100A8000AB1771F0FA01E20FF31F0780F085E02D3C
:100A90006E0F7F1F811D911DAF5F275F3F4FF0CF0E
:100AA0000895AF92BF92CF92DF92EF92FF920F9391
:100AB0001F93CF93DF93E9E6F1E0119282E0EF31EB
:100AC000F807D9F785E08093690182E0C82EC092CB
:100AD0006A010CE211E010936C0100936B01CEE10E
:100AE000D0E0D0936E01C0936D01C0926F0160E0C1
:100AF00080E00E940A0570937101609370019BE48D
:100B0000F92EF0927201DD24D394D09273011093E8
:100B10007501009374011092770110927601109282
:100B2000780161E080E00E940A0570937A01609389
:100B3000790110927B01C0927C0128E5A22E22E06F
:100B4000B22EB0927E01A0927D01D0938001C0931D
:100B50007F01C092810162E080E00E940A057093EB
:100B6000830160938201F0928401D0928501B0925A
:100B70008701A0928601109289011092880110923B
:100B80008A0163E080E00E940A0570938C01609303
:100B90008B0110928D01C0928E01109390010093F1
:100BA0008F01D0939201C0939101C092930164E0B0
:100BB00080E00E940A057093950160939401F09281
:100BC000960184E08093C401C092C50134E1E32E14
:100BD000F12CF092C701E092C60105E010E01093FD
:100BE000C9010093C801C092CA0160E081E00E947F
:100BF0000A057093CC016093CB0184E18093CD0111
:100C0000D092CE01CAE0D0E0D093D001C093CF0102
:100C10001092D2011092D1011092D30161E081E0D3
:100C20000E940A057093D5016093D4011092D601F9
:100C3000C092D701F092D901E092D8011093DB0164
:100C40000093DA01C092DC0162E081E00E940A05B3
:100C50007093DE016093DD0180E58093DF01D09227
:100C6000E001D093E201C093E1011092E4011092FF
:100C7000E3011092E50163E081E00E940A057093B0
:100C8000E7016093E6011092E801DF91CF911F9197
:100C90000F91FF90EF90DF90CF90BF90AF900895AD
:100CA0004F925F926F927F92AF92BF92CF92DF92FC
:100CB000EF92FF920F931F93CF93DF93CDB7DEB7E1
:100CC00029013A01621B730B840B950B29893A8920
:100CD0004B895C892A193B094C095D09298B3A8BA0
:100CE0004B8B5C8B9B01AC0169897A898B899C89D0
:100CF0000E941F0DE418F50806091709A8019701BD
:100D00000E94650D2A0D3B1D4C1D5D1DCA01B901D8
:100D1000DF91CF911F910F91FF90EF90DF90CF90D7
:100D2000BF90AF907F906F905F904F90089581300B
:100D300051F4409A611102C0429A07C0613031F407
:100D40004298439A08954098429843980895909302
:100D500056018093550170E07093200260931F024A
:100D6000089510928100089584E080938100089591
:100D70008091100190911101892B21F480910A0139
:100D8000813011F51092850010928400109280003D
:100D900084E0809381001092820081E19AE7909331
:100DA00089008093880080912202877F80932202AD
:100DB00088EC90E0909356018093550181E090E09B
:100DC0009093200280931F020895CF931092850084
:100DD0001092840010928000109281001092820084
:100DE00060E080E00E94970610925801C0912202B4
:100DF000CE7FC0932202809157010E9432056093FA
:100E0000590170935A0180935B0190935C01C77FF5
:100E1000C0932202CF91089514BC84E085BD16BC16
:100E200081E387BD0895853670F4282F30E0AFEF59
:100E3000B0E00E94840D24E630E040E050E00E94E3
:100E4000650D2093B400089581E28093B00083E0A3
:100E50008093B1001092B40008951F920F920FB6C4
:100E60000F9211242F933F934F935F936F937F9330
:100E70008F939F93AF93BF93EF93FF9316BC0E9402
:100E800062040E94D304809153019091540118167A
:100E900019066CF4019790935401809353018032AA
:100EA000934029F4809122028062809322028091F3
:100EB0001F0290912002892BD1F1809151019091D4
:100EC0005201019690935201809351012091550156
:100ED000309156018217930740F480914F01909111
:100EE0005001892B11F45A9A22C05A9880914F01CF
:100EF0009091500101969093500180934F01209161
:100F00005501309156018217930788F010925001D5
:100F100010924F01109252011092510180911F02C4
:100F20009091200201979093200280931F02FF91DD
:100F3000EF91BF91AF919F918F917F916F915F9151
:100F40004F913F912F910F900FBE0F901F901895CA
:100F50001F920F920FB60F9211240F931F932F938E
:100F60003F934F935F936F937F938F939F93AF9331
:100F7000BF93CF93DF93EF93FF931092850010926E
:100F800084008091220282FF17C08B7F809322020F
:100F900010924E0110924D0110924C0110924B0193
:100FA00010924A011092490182E090E09093090169
:100FB000809308011092480180910A0181117DC03F
:100FC0008091100190911101009709F45CC0019784
:100FD0009093110180931001809108019091090173
:100FE000029701F580910B010E941307609149015E
:100FF00081E00E94970680914B0190914C010196EF
:1010000090934C0180934B0120910E0130910F0180
:1010100082179307C1F510924C0110924B0181E0A9
:1010200090E02DC01092B400C0914901D0914A01C6
:101030006C2F80E00E94970680910E0190910F0125
:10104000892BB9F081E090E0CD2B11F080E090E0A9
:1010500090934A01809349018EE190E0909356016C
:101060008093550181E090E09093200280931F02CD
:1010700004C010924A011092490182E090E09093DE
:101080000901809308018091100190911101892B31
:10109000A1F410924E0110924D0110924C01109249
:1010A0004B0110924A011092490182E090E0909326
:1010B0000901809308010E94E50620910A01213070
:1010C00009F027C190912202892F869586958695F1
:1010D000822780FB93F9909322022091480130915E
:1010E00057010BE53003C0011124DC01A759BE4FA5
:1010F0003C91231708F0E5C030E019E0129FE001B1
:10110000139FD00D1124DE01A80FB91FA759BE4FA0
:1011100011964C91423009F07CC0409108015091E9
:1011200009014230510591F52F5F3F4F129FD001C9
:10113000139FB00D1124A80FB91FA759BE4F8C9152
:101140000E9413076091490181E00E9497068091F7
:101150004B0190914C01019690934C0180934B016F
:10116000209157012003F0011124EC0FFD1FE759D6
:10117000FE4F248135818217930709F05CC01092DD
:101180004C0110924B0181E090E03EC01092B400FF
:1011900060E080E00E94970680914D0190914E01A1
:1011A000019690934E0180934D013091570120910B
:1011B00048013003F0011124129FE00DF11D1124AC
:1011C000E759FE4F268130E082179307A1F5109270
:1011D0004E0110924D0184819581892B79F081E037
:1011E00090E02091490130914A01232B11F080E0D9
:1011F00090E090934A018093490104C010924A0103
:101200001092490182E090E09093090180930801D7
:1012100012C02F5F3F4F129FF001139FF00D11245A
:10122000E80FF91FE759FE4F80810E94130760E025
:1012300080E00E94970680914601909147010196B7
:10124000909347018093460140914801E0915701F6
:101250002BE5E202F001112429E0429FE00DF11D8F
:101260001124E759FE4F2781308582179307B1F487
:10127000109247011092460181E0840F809348014B
:10128000809358018EE190E0909356018093550130
:1012900081E090E09093200280931F028091590199
:1012A00090915A01A0915B01B0915C010197A10955
:1012B000B1098093590190935A01A0935B01B093B7
:1012C0005C01E09157018BE5E802F0011124E75938
:1012D000FE4F90914801808198131BC010924E01DF
:1012E00010924D0110924C0110924B0110924A0144
:1012F0001092490182E090E09093090180930801E7
:10130000109248010E94E50680912202806180933C
:101310002202FF91EF91DF91CF91BF91AF919F9109
:101320008F917F916F915F914F913F912F911F917D
:101330000F910F900FBE0F901F90189587E00E949D
:1013400060020E943D040E94CE0446EB50E060E043
:1013500070E089E691E00E949E0D8091C601909117
:10136000C7010196B9F468E082E191E00E9494011E
:101370004D9BFECF3FEF89E698E131508040904091
:10138000E1F700C0000080E00E943C020E9451058D
:101390000E94F404569A3A9A3B9A389A539A529A6F
:1013A0000E940C070E94240782E080936E008093C5
:1013B0006F0081E080930A01809122028E7F8F7EF0
:1013C0008093220278941092B40060E080E00E9442
:1013D00097068CE291E0909356018093550181E04D
:1013E00090E09093200280931F02809157010E9409
:1013F00032056093590170935A0180935B01909379
:101400005C012091220260317E4081059105C8F483
:10141000277F2093220248EC442E512C53E0252EA6
:10142000312CC9E01BE564E0662E70E1872E7EE07A
:10143000972EA12CB12CECE3CE2ED12CE12CF12C4B
:10144000B7C0822F886080932202E5CF8F7E809381
:10145000220268E08BE191E00E94940150925601D3
:10146000409255013092200220921F028FEF99E6A0
:1014700028E1815090402040E1F700C000008091B9
:10148000220286FF05C08F7B809322020E94F40413
:1014900080E00E943C02809157010E9432056093D7
:1014A000590170935A0180935B0190935C012091E4
:1014B000220260317E408105910508F083C0277FBC
:1014C0002093220280916801823009F480C08091CB
:1014D0000A0168E0813009F01AC284E291E00E94BA
:1014E00094018091220280FF8BC007E08091570118
:1014F000992787FD90950196BC01882777FD8095F7
:10150000982F27E047E00E9403038091220280FD8C
:1015100079C066E086E291E00E94940180915301D7
:1015200090915401892B09F0A6C0609159017091E6
:101530005A0180915B0190915C0160312EE072074D
:101540008105910508F06DC0A70196010E94430D29
:10155000CA01B90103E024E043E00E940303609163
:10156000590170915A0180915B0190915C01A70132
:1015700096010E94430D22E041E00E940303809106
:1015800022028F7D8093220280916801823009F4CB
:101590008FC080916801823009F4A8C04091220276
:1015A00040FD1FC1D13009F4F3C0DF3F09F4F8C09A
:1015B0000E94FF040E94EF04D82F8091220284FF32
:1015C00081CF44CF822F8860809322027BCF80918D
:1015D0002102843009F07BCF8091220280FD77CFF9
:1015E00080910A01811106C00E943C0281E0809333
:1015F0000A016DCF80E00E943C0210920A0167CF81
:1016000000E074CF8091580190E00196BC018827DA
:1016100077FD8095982F00E026E046E00E940303C6
:101620007DCFA50194010E94430DCA01B90103E0D9
:1016300024E043E00E9403036091590170915A0134
:1016400080915B0190915C01A70196010E94430D7E
:10165000CA01B9016C5371098109910922E041E085
:101660000E9403036091220263FB662760F981E018
:101670000E94DB0384CF2091580130E02F5F3F4F61
:1016800040915701C29FF001C39FF00D1124410307
:10169000C0011124E80FF91FE759FE4F608170E087
:1016A00080E090E000E024E041E00E9403036CCF82
:1016B00080912102853009F06CCF8091220280FD5B
:1016C00007C08D7F8160809322020E94B80661CF9F
:1016D00081FD06C08260809322021092810059CF62
:1016E0008D7F809322026092810053CF80912102EE
:1016F000843009F053CF8091220280FF4FCF8D7F3D
:101700008E7F809322020E94E506809122028460EF
:101710008093220268E08BE191E00E949401509254
:101720005601409255013092200220921F023FEF55
:1017300089E698E1315080409040E1F700C0000018
:101740008091220286FF05C08F7B809322020E9437
:10175000F40480E00E943C02809157010E9432050F
:101760006093590170935A0180935B0190935C01DF
:101770002091220260317E408105910520F4277F6F
:10178000209322020BCF822F88608093220206CF03
:10179000809157018F5F823041F41092570107C04A
:1017A00080915701815087FD81E08093570180919E
:1017B00057010E9432056093590170935A0180933A
:1017C0005B0190935C012091220260317E40810593
:1017D000910520F4277F20932202EACE822F886091
:1017E00093C0D13009F045C0609157015091580124
:1017F000252F30E06103C0011124FC01C59FE00DDD
:10180000F11D1124E759FE4F5181523009F0D0CE1D
:101810002F5F3F4FC29FF001C39FF00D1124E80FCF
:10182000F91FE759FE4F008188EE93E09093540131
:1018300080935301043638F445FF05C081E0800FE2
:1018400080830E9413078091580190E001962091B7
:101850005701C89FF001C99FF00D11242103C00159
:101860001124E80FF91FE759FE4F8081081349C082
:101870009FCEDF3F09F09CCE6091570150915801F7
:10188000252F30E06103C0011124FC01C59FE00D4C
:10189000F11D1124E759FE4F5181523009F088CED5
:1018A0002F5F3F4FC29FF001C39FF00D1124E80F3F
:1018B000F91FE759FE4F708028EE33E03093540152
:1018C00020935301772039F045FF05C08FEF870D36
:1018D00080830E9413078091580190E00196209127
:1018E0005701C89FF001C99FF00D11242103C001C9
:1018F0001124E80FF91FE759FE4F8081781609F48B
:1019000057CE8091220280648093220251CE88E2D9
:1019100091E00E94940160910B01772767FD70951B
:10192000872F972F00E023E041E00E940303D1308E
:1019300031F480910B01843684F48F5F07C0DF3F60
:1019400061F480910B01181644F4815080930B01CF
:101950009091220290FD0E941307809168018230CD
:10196000D1F4809121028330B1F480E29CE1909324
:1019700011018093100110920F0110920E0166E088
:101980008AE291E00E9494010E94B80680912202AE
:10199000816080932202809168018230E1F480911D
:1019A00021028530C1F420E23CE130931101209303
:1019B00010018EE190E090930F0180930E0166E09C
:1019C0008DE291E00E9494010E94B806809122026B
:1019D00081608093220280916801823009F0E8CD15
:1019E00080912102843009F0E3CD8091220280FFB2
:1019F000DFCD8E7F809322021092B4000E94E50614
:101A00008091220284608093220268E08BE191E061
:101A10000E9494015092560140925501309220024A
:101A200020921F029FEF29E638E19150204030407C
:101A3000E1F700C0000080E00E943C02B9CDDB016C
:101A40008F939F930E94930DBF91AF91A29F800DA2
:101A5000911DA39F900DB29F900D11240895AA1B74
:101A6000BB1B51E107C0AA1FBB1FA617B70710F089
:101A7000A61BB70B881F991F5A95A9F780959095BB
:101A8000BC01CD010895A1E21A2EAA1BBB1BFD01CA
:101A90000DC0AA1FBB1FEE1FFF1FA217B307E4074D
:101AA000F50720F0A21BB30BE40BF50B661F771FA5
:101AB000881F991F1A9469F7609570958095909585
:101AC0009B01AC01BD01CF010895052E97FB1EF4CB
:101AD00000940E947C0D57FD07D00E94430D07FC27
:101AE00003D04EF40C947C0D509540953095219583
:101AF0003F4F4F4F5F4F089590958095709561953A
:101B00007F4F8F4F9F4F0895A29FB001B39FC00199
:101B1000A39F700D811D1124911DB29F700D811D19
:101B20001124911D08950E94840DA59F900DB49FCE
:101B3000900DA49F800D911D11240895DC01CB010F
:101B4000FC01F999FECF06C0F2BDE1BDF89A3196CD
:101B500000B40D9241505040B8F70895DC01A40F35
:101B6000B51F4150504048F0CB01840F951F2E9176
:101B70000E94BF0D41505040D0F70895262FF9998B
:101B8000FECF92BD81BDF89A019700B4021639F0DC
:101B90001FBA20BD0FB6F894FA9AF99A0FBE0895AD
:041BA000F894FFCFE7
:101BA400FFFFFFFFFFFFFFFF0200013201001E00E5
:101BB400201C2D2D496E69742D2D002D2D53746F0D
:101BC400502D2D005000200048007546007572000D
:00000001FF
