:100000000C945B000C9478000C9478000C947800AD
:100010000C9478000C9478000C9478000C94780080
:100020000C9478000C9478000C9478000C94A80739
:100030000C9478000C9478000C942D070C947800A4
:100040000C9478000C9478000C9478000C94780050
:100050000C9478000C9478000C9478000C94780040
:100060000C9478000C9478002D013D092A635F08F8
:100070002000307E3130326D33793433355B365F7A
:100080003770387F397B41774647621F553E751C74
:10009000535B49306910740F4837454F4C0E720559
:1000A0004F7E6F1D5067434E475F630D6E15643D75
:1000B0006817593B000011241FBECFEFD8E0DEBF08
:1000C000CDBF11E0A0E0B1E0E4EAFBE102C00590A1
:1000D0000D92A233B107D9F722E0A2E3B1E001C04B
:1000E0001D92A532B207E1F70E949E090C94D00D33
:1000F0000C9400002A9A2C9A8CE284B91CBC83E5EB
:100100008CBD1DBC1DBC0895CF93DF93CDB7DEB76A
:1001100028970FB6F894DEBF0FBECDBF1816C4F0F7
:10012000880F990B19821A82FE01E80FF91F62836A
:10013000FE01E80FF91F41832A988A818EBD0DB414
:1001400007FEFDCF89818EBD0DB407FEFDCF2A9A33
:1001500028960FB6F894DEBF0FBECDBFDF91CF91CA
:1001600008952F923F924F925F926F927F928F925B
:100170009F92AF92BF92CF92DF92EF92FF920F9336
:100180001F93CF93DF93CDB7DEB727970FB6F894C1
:10019000DEBF0FBECDBF6B017C0197FF10C0CB014E
:1001A00077FF04C0882799278C199D09AA2797FDF6
:1001B000A095BA2F89839A83AB83BC8304C06983DB
:1001C0007A838B839C83842E912C540181E08D83D0
:1001D000822F90E09F838E838AE0482E512C612CE1
:1001E000712C202E312C8E819F818A159B050CF459
:1001F0005CC069817A818B819C81A30192010E94FC
:10020000650D672B682B692BB9F489819A81AB81C5
:10021000BC810A97A105B1057CF4A114B10461F079
:10022000A214B304ACF0C114D104E104F10471F4DC
:10023000A814B90459F40CC069817A818B819C811E
:10024000A30192010E94650D162F03C01FE001C09B
:1002500010E0F501EE59FE4F108369817A818B81A0
:100260009C81A30192010E94650D29833A834B83EF
:100270005C839FEFA91AB90AC5018E599E4FFC01F4
:100280003197A214B30411F4106801C01F771083D2
:1002900089819A81AB81BC81892B8A2B8B2B09F4B4
:1002A000A2CF8D818F5F8D839ECFF7FE0FC001118E
:1002B00007C084019D81090F111D97FD1A9501C08A
:1002C00010E0F801EE59FE4F8AE080838D81279679
:1002D0000FB6F894DEBF0FBECDBFDF91CF911F9157
:1002E0000F91FF90EF90DF90CF90BF90AF909F90D5
:1002F0008F907F906F905F904F903F902F900895D8
:100300001F93CF93DF9381110BC0C2E6D1E011E0C0
:100310004991612F80E00E9484001F5F1930C1F76E
:10032000DF91CF911F910895AF92BF92CF92DF924C
:10033000EF92FF920F931F93CF93DF93A62F693015
:100340000CF08FC0662309F48CC0FC0101900020E2
:10035000E9F73197E81BF90BB62FBE1BE62FFF27F5
:10036000E7FDF095C12CD12C7601C3942B2F30E002
:100370002E173F07A4F5A0900001B0900101D09185
:100380000201C091030120910401209105012091F7
:10039000060120910701970186010B2E04C0000F72
:1003A000111F221F331F0A94D2F700951095209534
:1003B0003095A022B122D223C323A0920001B09293
:1003C0000101D0930201C093030110920401109225
:1003D00005011092060110920701BF5FC7CF2FEFF2
:1003E0002A0FEC012830E0F449914423C9F030E0B1
:1003F000A22FB0E0AE59BE4F832F90E0FC01E85928
:10040000FF4F5491552351F0E4914E1305C0FC0168
:10041000E759FF4F84918C933E5FEECF2150E2CF9E
:1004200040910001809101018091020180910301BE
:10043000809104018091050180910601809107015E
:1004400069E080E00E94840080E0DF91CF911F91FD
:100450000F91FF90EF90DF90CF90BF90AF900C94F2
:100460008001DF91CF911F910F91FF90EF90DF906E
:10047000CF90BF90AF900895811121C08FEF8093EE
:100480000001809301018093020180930301809316
:1004900004018093050180930601809307014FEFCB
:1004A00069E080E00E948400E2E6F1E08FE0819361
:1004B00091E0EA36F907D9F780E00C9480010895BD
:1004C000CF93C82F803108F0C5E00E947A0040E049
:1004D0006FE080E00E94840047E06BE080E00E94D3
:1004E00084004C2F6AE080E00E94840080E00E943B
:1004F0003C0241E06CE080E0CF910C9484008F924C
:100500009F92AF92BF92CF92DF92EF92FF920F93A2
:100510001F93CF93DF936A017B01811167C029305C
:1005200008F064C0022F27E040E0C701B6010E9436
:10053000B100E0E0F0E090E0C12CD12C7601C39452
:10054000E817F90784F5D0910001C0910101B0913D
:100550000201A09103018090040190900501A090F8
:100560000601B0900701970186010E2E04C0000F0E
:10057000111F221F331F0A94D2F7D02BC12BB22B8D
:10058000A32BD0930001C0930101B0930201A0936B
:1005900003018092040190920501A0920601B0929D
:1005A00007013196CDCF40910001809101018091EA
:1005B00002018091030180910401809105018091E5
:1005C00006018091070169E080E00E94840080E0DC
:1005D000DF91CF911F910F91FF90EF90DF90CF901F
:1005E000BF90AF909F908F900C948001DF91CF913E
:1005F0001F910F91FF90EF90DF90CF90BF90AF9041
:100600009F908F9008952F923F924F925F926F929A
:100610007F928F929F92AF92BF92CF92DF92EF9292
:10062000FF920F931F93CF93DF93CDB7DEB76397FE
:100630000FB6F894DEBF0FBECDBF442309F4A2C0AD
:10064000293008F09FC0093008F09CC0212C312CC3
:10065000E42EF12CD7011197B88BAF87F7013297B1
:10066000FA87E987422E512C5A8A498AEF84F88802
:10067000E20CF31C3FEF231A330AE985FA85E20DF9
:10068000F31DA989BA89EA17FB070CF048C05090FE
:1006900000015E8610910101509102013091030129
:1006A000A0910401B0910501609006016B8A7090E1
:1006B00007017D86812C912C5401839404C0880C01
:1006C000991CAA1CBB1CEA94D2F775016401240191
:1006D0003501812C912C5401C9825A826B827C8213
:1006E0008D829E82AF82B8865E8454286A801629E5
:1006F0007B8057298C80382950920001109301018A
:100700005093020130930301A0930401B0930501BB
:100710009B8890920601AD84A0920701A7CF21503B
:1007200041500E94B10040910001809101018091EF
:100730000201809103018091040180910501809163
:1007400006018091070169E080E00E94840080E05A
:1007500063960FB6F894DEBF0FBECDBFDF91CF9189
:100760001F910F91FF90EF90DF90CF90BF90AF90CF
:100770009F908F907F906F905F904F903F902F90C1
:100780000C94800163960FB6F894DEBF0FBECDBF08
:10079000DF91CF911F910F91FF90EF90DF90CF905D
:1007A000BF90AF909F908F907F906F905F904F9091
:1007B0003F902F900895893070F4E82FF0E0EF59C2
:1007C000FE4F808160FD05C08F77808380E00C94B0
:1007D00080018068FACF089581111CC0E2E6F1E043
:1007E00080E090E070E09B01082E02C035952795CF
:1007F0000A94E2F720FD03C020812F7702C02081F8
:1008000020682083019631968830910561F780E059
:100810000C9480010895462F811105C0603118F4B1
:100820006AE00C948400089520913201223078F41B
:1008300090913401E92FF0E0EB5CFE4F80832F5F55
:100840002093320181E0890F8170809334010895F3
:1008500020913201222379F090913301E92FF0E0C9
:10086000EB5CFE4F80812150209332019F5F91709D
:1008700090933301089580E0089510924101109201
:1008800040011092370110923B01109243011092E7
:1008900042011092380110923C01109245011092D1
:1008A00044011092390110923D01109235011092CD
:1008B0003601109234011092330110923201559892
:1008C0005D9A0895CF93DF9329B1C091380180914B
:1008D0003C0180933A0180914201909143019093B1
:1008E0003F0180933E0125FD15C0893E23E092071C
:1008F00090F5019690933F0180933E018A319105D6
:1009000050F1C160893E934031F5C1FD24C0CB7FD9
:10091000C26021C0C0FF0AC0C1FD08C0C2FF03C041
:10092000CB7FD5E004C010923A01C460D0E0C2FF92
:1009300008C080913A01893C20F010923A01CB7FA7
:10094000D3E0C0FF02C0C1FDD4E010923F0110927D
:100950003E01CC7F01C0D0E0C2FF07C080913A01C8
:10096000893C18F48F5F80933A0180913A0180931B
:100970003C01DD2331F082E00E9414048D2F0E949F
:10098000140480913E0190913F0190934301809324
:100990004201C0933801DF91CF91089521982098AA
:1009A000299A289A089523B12695217018992260D2
:1009B00080914601982F9370291781F034E0839F2E
:1009C000C0011124822B80934601813E11F48FEFE8
:1009D00003C0823D19F481E080934701089580911E
:1009E0004701109247010895F89446EB50E060E00B
:1009F00070E08BE691E00E94AE0D789408950E941D
:100A0000280480936A01882321F00E94280480939F
:100A1000230208950F931F939BE5899FF0011124F2
:100A200089E0689FE00DF11D1124E559FE4F828198
:100A300093818C0120E030E064817581611571053E
:100A400061F046810E942F0D469FC001479F900D87
:100A50001124080F191F211D311DC901B8011F9153
:100A60000F9108959BE5899FF0011124E559FE4FF0
:100A7000B081AF0120E030E0A0E060E070E0CB01A9
:100A8000AB1771F0FA01E20FF31F0780F085E02D3C
:100A90006E0F7F1F811D911DAF5F275F3F4FF0CF0E
:100AA0000895AF92BF92CF92DF92EF92FF920F9391
:100AB0001F93CF93DF93EBE6F1E0119282E0E132F6
:100AC000F807D9F785E080936B0182E0C82EC092C9
:100AD0006C010CE211E010936E0100936D01CEE108
:100AE000D0E0D0937001C0936F01C092710160E0BB
:100AF00080E00E940A0570937301609372019BE489
:100B0000F92EF0927401DD24D394D09275011093E4
:100B1000770100937601109279011092780110927A
:100B20007A0161E080E00E940A0570937C01609385
:100B30007B0110927D01C0927E0128E5A22E22E069
:100B4000B22EB0928001A0927F01D0938201C09317
:100B50008101C092830162E080E00E940A057093E7
:100B6000850160938401F0928601D0928701B09252
:100B70008901A092880110928B0110928A01109233
:100B80008C0163E080E00E940A0570938E016093FF
:100B90008D0110928F01C0929001109392010093E9
:100BA0009101D0939401C0939301C092950164E0A8
:100BB00080E00E940A057093970160939601F0927D
:100BC000980184E08093C601C092C70134E1E32E0E
:100BD000F12CF092C901E092C80105E010E01093F9
:100BE000CB010093CA01C092CC0160E081E00E9479
:100BF0000A057093CE016093CD0184E18093CF010B
:100C0000D092D001CAE0D0E0D093D201C093D101FC
:100C10001092D4011092D3011092D50161E081E0CD
:100C20000E940A057093D7016093D6011092D801F3
:100C3000C092D901F092DB01E092DA011093DD015C
:100C40000093DC01C092DE0162E081E00E940A05AF
:100C50007093E0016093DF0180E58093E101D09221
:100C6000E201D093E401C093E3011092E6011092F7
:100C7000E5011092E70163E081E00E940A057093AC
:100C8000E9016093E8011092EA01DF91CF911F9191
:100C90000F91FF90EF90DF90CF90BF90AF900895AD
:100CA0004F925F926F927F92AF92BF92CF92DF92FC
:100CB000EF92FF920F931F93CF93DF93CDB7DEB7E1
:100CC00029013A01621B730B840B950B29893A8920
:100CD0004B895C892A193B094C095D09298B3A8BA0
:100CE0004B8B5C8B9B01AC0169897A898B899C89D0
:100CF0000E941F0DE418F50806091709A8019701BD
:100D00000E94650D2A0D3B1D4C1D5D1DCA01B901D8
:100D1000DF91CF911F910F91FF90EF90DF90CF90D7
:100D2000BF90AF907F906F905F904F90089581300B
:100D300051F4409A611102C0429A07C0613031F407
:100D40004298439A08954098429843980895909302
:100D500058018093570170E0709322026093210242
:100D6000089510928100089584E080938100089591
:100D70008091120190911301892B21F480910C0133
:100D8000813011F51092850010928400109280003D
:100D900084E0809381001092820081E19AE7909331
:100DA00089008093880080912402877F80932402A9
:100DB00088EC90E0909358018093570181E090E097
:100DC00090932202809321020895CF931092850080
:100DD0001092840010928000109281001092820084
:100DE00060E080E00E94970610925A01C0912402B0
:100DF000CE7FC0932402809159010E9432056093F6
:100E00005B0170935C0180935D0190935E01C77FED
:100E1000C0932402CF91089514BC84E085BD16BC14
:100E200081E387BD0895853670F4282F30E0AFEF59
:100E3000B0E00E94840D24E630E040E050E00E94E3
:100E4000650D2093B400089581E28093B00083E0A3
:100E50008093B1001092B40008951F920F920FB6C4
:100E60000F9211242F933F934F935F936F937F9330
:100E70008F939F93AF93BF93EF93FF9316BC0E9402
:100E800062040E94D3048091550190915601181676
:100E900019066CF4019790935601809355018032A6
:100EA000934029F4809124028062809324028091EF
:100EB000210290912202892BD1F1809153019091CE
:100EC000540101969093540180935301209157014E
:100ED000309158018217930740F48091510190910D
:100EE0005201892B11F45A9A22C05A9880915101CB
:100EF000909152010196909352018093510120915B
:100F00005701309158018217930788F010925201CF
:100F100010925101109254011092530180912102BC
:100F20009091220201979093220280932102FF91D7
:100F3000EF91BF91AF919F918F917F916F915F9151
:100F40004F913F912F910F900FBE0F901F901895CA
:100F50001F920F920FB60F9211240F931F932F938E
:100F60003F934F935F936F937F938F939F93AF9331
:100F7000BF93CF93DF93EF93FF931092850010926E
:100F800084008091240282FF17C08B7F809324020B
:100F90001092500110924F0110924E0110924D018B
:100FA00010924C0110924B0182E090E09093090165
:100FB0008093080110924A0180910C0181117DC03B
:100FC0008091120190911301009709F45CC0019780
:100FD000909313018093120180910801909109016F
:100FE000029701F580910D010E94130760914B015A
:100FF00081E00E94970680914D0190914E010196EB
:1010000090934E0180934D01209110013091110178
:1010100082179307C1F510924E0110924D0181E0A5
:1010200090E02DC01092B400C0914B01D0914C01C2
:101030006C2F80E00E949706809110019091110121
:10104000892BB9F081E090E0CD2B11F080E090E0A9
:1010500090934C0180934B018EE190E09093580166
:101060008093570181E090E09093220280932102C7
:1010700004C010924C0110924B0182E090E09093DA
:101080000901809308018091120190911301892B2D
:10109000A1F41092500110924F0110924E01109243
:1010A0004D0110924C0110924B0182E090E0909320
:1010B0000901809308010E94E50620910C0121306E
:1010C00009F027C190912402892F869586958695EF
:1010D000822780FB93F99093240220914A0130915A
:1010E00059010BE53003C0011124DC01A559BE4FA5
:1010F0003C91231708F0E5C030E019E0129FE001B1
:10110000139FD00D1124DE01A80FB91FA559BE4FA2
:1011100011964C91423009F07CC0409108015091E9
:1011200009014230510591F52F5F3F4F129FD001C9
:10113000139FB00D1124A80FB91FA559BE4F8C9154
:101140000E94130760914B0181E00E9497068091F5
:101150004D0190914E01019690934E0180934D0167
:10116000209159012003F0011124EC0FFD1FE559D6
:10117000FE4F248135818217930709F05CC01092DD
:101180004E0110924D0181E090E03EC01092B400FB
:1011900060E080E00E94970680914F01909150019D
:1011A00001969093500180934F0130915901209105
:1011B0004A013003F0011124129FE00DF11D1124AA
:1011C000E559FE4F268130E082179307A1F5109272
:1011D000500110924F0184819581892B79F081E033
:1011E00090E020914B0130914C01232B11F080E0D5
:1011F00090E090934C0180934B0104C010924C01FD
:1012000010924B0182E090E09093090180930801D5
:1012100012C02F5F3F4F129FF001139FF00D11245A
:10122000E80FF91FE559FE4F80810E94130760E027
:1012300080E00E94970680914801909149010196B3
:10124000909349018093480140914A01E0915901EE
:101250002BE5E202F001112429E0429FE00DF11D8F
:101260001124E559FE4F2781308582179307B1F489
:10127000109249011092480181E0840F80934A0145
:1012800080935A018EE190E090935801809357012A
:1012900081E090E0909322028093210280915B0193
:1012A00090915C01A0915D01B0915E010197A1094F
:1012B000B10980935B0190935C01A0935D01B093B1
:1012C0005E01E09159018BE5E802F0011124E55936
:1012D000FE4F90914A01808198131BC010925001DB
:1012E00010924F0110924E0110924D0110924C013C
:1012F00010924B0182E090E09093090180930801E5
:1013000010924A010E94E506809124028061809338
:101310002402FF91EF91DF91CF91BF91AF919F9107
:101320008F917F916F915F914F913F912F911F917D
:101330000F910F900FBE0F901F90189587E00E949D
:1013400060020E943D040E94CE0446EB50E060E043
:1013500070E08BE691E00E949E0D8091C801909113
:10136000C9010196B9F468E084E191E00E9494011A
:101370004D9BFECF3FEF89E698E131508040904091
:10138000E1F700C0000080E00E943C020E9451058D
:101390000E94F404569A3A9A3B9A389A539A529A6F
:1013A0000E940C070E94240782E080936E008093C5
:1013B0006F0081E080930C01809124028E7F8F7EEC
:1013C0008093240278941092B40060E080E00E9440
:1013D00097068CE291E0909358018093570181E049
:1013E00090E09093220280932102809159010E9403
:1013F000320560935B0170935C0180935D01909373
:101400005E012091240260317E4081059105C8F47F
:10141000277F2093240248EC442E512C53E0252EA4
:10142000312CC9E01BE564E0662E70E1872E7EE07A
:10143000972EA12CB12CECE3CE2ED12CE12CF12C4B
:10144000B7C0822F886080932402E5CF8F7E80937F
:10145000240268E08DE191E00E94940150925801CD
:101460004092570130922202209221028FEF99E69A
:1014700028E1815090402040E1F700C000008091B9
:10148000240286FF05C08F7B809324020E94F4040F
:1014900080E00E943C02809159010E9432056093D5
:1014A0005B0170935C0180935D0190935E012091DC
:1014B000240260317E408105910508F083C0277FBA
:1014C0002093240280916A01823009F480C08091C7
:1014D0000C0168E0813009F01AC286E291E00E94B6
:1014E00094018091240280FF8BC007E08091590114
:1014F000992787FD90950196BC01882777FD8095F7
:10150000982F27E047E00E9403038091240280FD8A
:1015100079C066E088E291E00E94940180915501D3
:1015200090915601892B09F0A6C060915B017091E2
:101530005C0180915D0190915E0160312EE0720747
:101540008105910508F06DC0A70196010E94430D29
:10155000CA01B90103E024E043E00E940303609163
:101560005B0170915C0180915D0190915E01A7012A
:1015700096010E94430D22E041E00E940303809106
:1015800024028F7D8093240280916A01823009F4C5
:101590008FC080916A01823009F4A8C04091240272
:1015A00040FD1FC1D13009F4F3C0DF3F09F4F8C09A
:1015B0000E94FF040E94EF04D82F8091240284FF30
:1015C00081CF44CF822F8860809324027BCF80918B
:1015D0002302843009F07BCF8091240280FD77CFF5
:1015E00080910C01811106C00E943C0281E0809331
:1015F0000C016DCF80E00E943C0210920C0167CF7D
:1016000000E074CF80915A0190E00196BC018827D8
:1016100077FD8095982F00E026E046E00E940303C6
:101620007DCFA50194010E94430DCA01B90103E0D9
:1016300024E043E00E94030360915B0170915C0130
:1016400080915D0190915E01A70196010E94430D7A
:10165000CA01B9016C5371098109910922E041E085
:101660000E9403036091240263FB662760F981E016
:101670000E94DB0384CF20915A0130E02F5F3F4F5F
:1016800040915901C29FF001C39FF00D1124410305
:10169000C0011124E80FF91FE559FE4F608170E089
:1016A00080E090E000E024E041E00E9403036CCF82
:1016B00080912302853009F06CCF8091240280FD57
:1016C00007C08D7F8160809324020E94B80661CF9D
:1016D00081FD06C08260809324021092810059CF60
:1016E0008D7F809324026092810053CF80912302EA
:1016F000843009F053CF8091240280FF4FCF8D7F3B
:101700008E7F809324020E94E506809124028460EB
:101710008093240268E08DE191E00E949401509250
:1017200058014092570130922202209221023FEF4D
:1017300089E698E1315080409040E1F700C0000018
:101740008091240286FF05C08F7B809324020E9433
:10175000F40480E00E943C02809159010E9432050D
:1017600060935B0170935C0180935D0190935E01D7
:101770002091240260317E408105910520F4277F6D
:10178000209324020BCF822F88608093240206CFFF
:10179000809159018F5F823041F41092590107C046
:1017A00080915901815087FD81E08093590180919A
:1017B00059010E94320560935B0170935C01809334
:1017C0005D0190935E012091240260317E4081058D
:1017D000910520F4277F20932402EACE822F88608F
:1017E00093C0D13009F045C06091590150915A0120
:1017F000252F30E06103C0011124FC01C59FE00DDD
:10180000F11D1124E559FE4F5181523009F0D0CE1F
:101810002F5F3F4FC29FF001C39FF00D1124E80FCF
:10182000F91FE559FE4F008188EE93E09093560131
:1018300080935501043638F445FF05C081E0800FE0
:1018400080830E94130780915A0190E001962091B5
:101850005901C89FF001C99FF00D11242103C00157
:101860001124E80FF91FE559FE4F8081081349C084
:101870009FCEDF3F09F09CCE6091590150915A01F3
:10188000252F30E06103C0011124FC01C59FE00D4C
:10189000F11D1124E559FE4F5181523009F088CED7
:1018A0002F5F3F4FC29FF001C39FF00D1124E80F3F
:1018B000F91FE559FE4F708028EE33E03093560152
:1018C00020935501772039F045FF05C08FEF870D34
:1018D00080830E94130780915A0190E00196209125
:1018E0005901C89FF001C99FF00D11242103C001C7
:1018F0001124E80FF91FE559FE4F8081781609F48D
:1019000057CE8091240280648093240251CE8AE2D3
:1019100091E00E94940160910D01772767FD709519
:10192000872F972F00E023E041E00E940303D1308E
:1019300031F480910D01843684F48F5F07C0DF3F5E
:1019400061F480910D01181644F4815080930D01CB
:101950009091240290FD0E94130780916A018230C9
:10196000D1F4809123028330B1F480E29CE1909322
:10197000130180931201109211011092100166E080
:101980008CE291E00E9494010E94B80680912402AA
:1019900081608093240280916A018230E1F4809119
:1019A00023028530C1F420E23CE1309313012093FF
:1019B00012018EE190E0909311018093100166E096
:1019C0008FE291E00E9494010E94B8068091240267
:1019D00081608093240280916A01823009F0E8CD11
:1019E00080912302843009F0E3CD8091240280FFAE
:1019F000DFCD8E7F809324021092B4000E94E50612
:101A00008091240284608093240268E08DE191E05B
:101A10000E94940150925801409257013092220244
:101A2000209221029FEF29E638E19150204030407A
:101A3000E1F700C0000080E00E943C02B9CDDB016C
:101A40008F939F930E94930DBF91AF91A29F800DA2
:101A5000911DA39F900DB29F900D11240895AA1B74
:101A6000BB1B51E107C0AA1FBB1FA617B70710F089
:101A7000A61BB70B881F991F5A95A9F780959095BB
:101A8000BC01CD010895A1E21A2EAA1BBB1BFD01CA
:101A90000DC0AA1FBB1FEE1FFF1FA217B307E4074D
:101AA000F50720F0A21BB30BE40BF50B661F771FA5
:101AB000881F991F1A9469F7609570958095909585
:101AC0009B01AC01BD01CF010895052E97FB1EF4CB
:101AD00000940E947C0D57FD07D00E94430D07FC27
:101AE00003D04EF40C947C0D509540953095219583
:101AF0003F4F4F4F5F4F089590958095709561953A
:101B00007F4F8F4F9F4F0895A29FB001B39FC00199
:101B1000A39F700D811D1124911DB29F700D811D19
:101B20001124911D08950E94840DA59F900DB49FCE
:101B3000900DA49F800D911D11240895DC01CB010F
:101B4000FC01F999FECF06C0F2BDE1BDF89A3196CD
:101B500000B40D9241505040B8F70895DC01A40F35
:101B6000B51F4150504048F0CB01840F951F2E9176
:101B70000E94BF0D41505040D0F70895262FF9998B
:101B8000FECF92BD81BDF89A019700B4021639F0DC
:101B90001FBA20BD0FB6F894FA9AF99A0FBE0895AD
:041BA000F894FFCFE7
:101BA400FFFFFFFFFFFFFFFF02000A0001320100F9
:101BB4001E00201C2D2D496E69742D2D002D2D53D2
:101BC400746F502D2D00500020004800754600759C
:021BD40072009D
:00000001FF
